:020000040800F2
:100000001801002045000008DFF80CD000F022F8AD
:1000100000480047FD01000818010020D0F800D07A
:100020004068004772B6034691F800A083F800A02C
:1000300001F1010103F10103521EF5D2D0F800D005
:1000400040680047014880470148004779000008A0
:1000500009000008064C074D06E0E06840F0010387
:1000600094E8070098471034AC42F6D3FFF7D0FF6E
:100070003402000854020008704702E008C8121F4A
:1000800008C1002AFAD170477047002001E001C181
:10009000121F002AFBD17047074A00B501461269BA
:1000A0000020914207D200F0A3F8494200EB810002
:1000B00050F8041D401A00BD00000020FFF7ECBFFF
:1000C00030B500F095F8001F0E4900221446CA60B2
:1000D00008E0CD689D4203D203EB82031B1DCB6079
:1000E000001F521C03685D1C03D0082AF1D30022B4
:1000F000CC6000F07DF8CB680A61C01A886090B2CD
:1001000030BD00000000002010B50024FFF7D8FF2C
:1001100020B1034803C800F054F80446204610BD3F
:100120000800002010B5FFF7CBFF48B1FFF7ECFF48
:100130000449896831F8021C884201D1012010BDB0
:10014000002010BD0000002010B5FFF7B7FF0146EA
:1001500082684068BDE810401231FFF763BF10B5F8
:1001600000F009F8A0F57F41FF3903D0BDE8104049
:10017000FFF7EABF10BD30B50546FFF7A1FF040049
:100180000CD0002308E098B2FFF798FF8089A842BE
:1001900001D198B230BD5B1CA342F4D34FF6FF707F
:1001A00030BD000010B503460C46104606E000BF07
:1001B00013F8012B0146104600F007F8641EF7D231
:1001C00010BD41F2AE52FFF7EDBF414081EA011090
:1001D000C0B2090A81EA002181EAC00181EA101057
:1001E000704700000148008880027047227AFF1F94
:1001F00000B5FFF7F7FF00F1006000BDFFF792FFC9
:1002000010B10020FFF7ABFF00BFBFF34F8F0748CF
:10021000006800F4E06006490843001D03490860D7
:10022000BFF34F8F00BF00BFFEE700000CED00E002
:100230000000FA055402000800000020140000002D
:100240007A00000868020008140000200401000081
:100250008A0000080000000000000000000000000C
:08026000000000000000000096
:0400000508000009E6
:00000001FF
