:020000040800F2
:1000000000400120EDE6000831E7000831E7000874
:1000100031E7000831E7000831E700080000000080
:1000200000000000000000000000000031E70008B0
:1000300031E700080000000031E7000891E6000801
:1000400031E7000831E7000831E70008714E000889
:1000500031E7000831E7000831E7000831E7000820
:1000600031E7000831E7000831E7000831E7000810
:1000700031E7000831E7000831E7000831E7000800
:1000800031E7000831E70008A157000831E7000810
:1000900031E7000831E7000831E7000831E70008E0
:1000A00031E7000831E7000831E7000831E70008D0
:1000B00031E7000831E7000831E70008A57A0008B9
:1000C000B17A000831E7000831E700089DC900084F
:1000D00031E70008E1CA000869CD000809CF00082F
:1000E00031E7000831E7000831E70008814E0008D9
:1000F00031E700080000000031E7000831E70008A0
:1001000031E7000831E7000831E7000831E700086F
:1001100031E7000831E7000831E70008000000007F
:1001200031E70008000000000000000000000000AF
:0C01300000000000000000005FF808F173
:10013C0081F0004102E000BF83F0004330B54FEA8C
:10014C0041044FEA430594EA050F08BF90EA020FF9
:10015C001FBF54EA000C55EA020C7FEA645C7FEA8C
:10016C00655C00F0E2804FEA5454D4EB5555B8BFAF
:10017C006D420CDD2C4480EA020281EA030382EA20
:10018C00000083EA010180EA020281EA0303362DB2
:10019C0088BF30BD11F0004F4FEA01314FF4801C85
:1001AC004CEA113102D0404261EB410113F0004F97
:1001BC004FEA03334CEA133302D0524263EB43034E
:1001CC0094EA050F00F0A780A4F10104D5F1200EEC
:1001DC000DDB02FA0EFC22FA05F2801841F1000147
:1001EC0003FA0EF2801843FA05F359410EE0A5F11B
:1001FC0020050EF1200E012A03FA0EFC28BF4CF04C
:10020C00020C43FA05F3C01851EBE37101F0004501
:10021C0007D54FF0000EDCF1000C7EEB00006EEB0E
:10022C000101B1F5801F1BD3B1F5001F0CD3490898
:10023C005FEA30004FEA3C0C04F101044FEA4452EF
:10024C0012F5800F80F09A80BCF1004F08BF5FEA76
:10025C00500C50F1000041EB045141EA050130BD56
:10026C005FEA4C0C404141EB010111F4801FA4F1F9
:10027C000104E9D191F0000F04BF01460020B1FA4E
:10028C0081F308BF2033A3F10B03B3F120020CDA86
:10029C000C3208DD02F1140CC2F10C0201FA0CF064
:1002AC0021FA02F10CE002F11402D8BFC2F1200CC9
:1002BC0001FA02F120FA0CFCDCBF41EA0C0190407F
:1002CC00E41AA2BF01EB0451294330BD6FEA0404C8
:1002DC001F3C1CDA0C340EDC04F11404C4F12002B3
:1002EC0020FA04F001FA02F340EA030021FA04F3C5
:1002FC0045EA030130BDC4F10C04C4F1200220FA1C
:10030C0002F001FA04F340EA0300294630BD21FA59
:10031C0004F0294630BD94F0000F83F4801306BF1F
:10032C0081F480110134013D4EE77FEA645C18BF13
:10033C007FEA655C29D094EA050F08BF90EA020FAA
:10034C0005D054EA000C04BF1946104630BD91EAA2
:10035C00030F1EBF0021002030BD5FEA545C05D1A5
:10036C004000494128BF41F0004130BD14F58004E4
:10037C003CBF01F5801130BD01F0004545F0FE4158
:10038C0041F470014FF0000030BD7FEA645C1ABF8D
:10039C00194610467FEA655C1CBF0B46024650EAC4
:1003AC00013406BF52EA033591EA030F41F40021F0
:1003BC0030BD00BF90F0000F04BF0021704730B576
:1003CC004FF4806404F132044FF000054FF000014B
:1003DC0050E700BF90F0000F04BF0021704730B50C
:1003EC004FF4806404F1320410F0004548BF4042E1
:1003FC004FF000013EE700BF42004FEAE2014FEA36
:10040C0031014FEA02701FBF12F07F4393F07F4F10
:10041C0081F06051704792F0000F14BF93F07F4F42
:10042C00704730B54FF4607401F0004521F0004185
:10043C0020E700BF50EA010208BF704730B54FF00B
:10044C0000050AE050EA010208BF704730B511F010
:10045C00004502D5404261EB41014FF4806404F148
:10046C0032045FEA915C3FF4DCAE4FF003025FEACA
:10047C00DC0C18BF03325FEADC0C18BF033202EB52
:10048C00DC02C2F1200300FA03FC20FA02F001FAAC
:10049C0003FE40EA0E0021FA02F11444C1E600BF4B
:1004AC0070B54FF0FF0C4CF4E06C1CEA11541DBFFE
:1004BC001CEA135594EA0C0F95EA0C0F00F0DEF8C9
:1004CC002C4481EA030621EA4C5123EA4C5350EAAE
:1004DC00013518BF52EA033541F4801143F48013FF
:1004EC0038D0A0FB02CE4FF00005E1FB02E506F090
:1004FC000042E0FB03E54FF00006E1FB03569CF0E5
:10050C00000F18BF4EF0010EA4F1FF04B6F5007FEA
:10051C0064F5407404D25FEA4E0E6D4146EB06065C
:10052C0042EAC62141EA55514FEAC52040EA5E50E5
:10053C004FEACE2EB4F1FD0C88BFBCF5E06F1ED88F
:10054C00BEF1004F08BF5FEA500E50F1000041EBC6
:10055C00045170BD06F0004646EA010140EA020073
:10056C0081EA0301B4EB5C04C2BFD4EB0C0541EA95
:10057C00045170BD41F480114FF0000E013C00F3AA
:10058C00AB8014F1360FDEBF002001F0004170BDCE
:10059C00C4F10004203C35DA0C341BDC04F11404E7
:1005AC00C4F1200500FA05F320FA04F001FA05F273
:1005BC0040EA020001F0004221F0004110EBD37040
:1005CC0021FA04F642EB06015EEA430E08BF20EA6C
:1005DC00D37070BDC4F10C04C4F1200500FA04F30F
:1005EC0020FA05F001FA04F240EA020001F00041A1
:1005FC0010EBD37041F100015EEA430E08BF20EA14
:10060C00D37070BDC4F1200500FA05F24EEA020E5B
:10061C0020FA04F301FA05F243EA020321FA04F08A
:10062C0001F0004121FA04F220EA020000EBD37041
:10063C005EEA430E08BF20EAD37070BD94F0000F41
:10064C000FD101F00046400041EB010111F4801F75
:10065C0008BF013CF7D041EA060195F0000F18BF26
:10066C00704703F00046520043EB030313F4801F62
:10067C0008BF013DF7D043EA0603704794EA0C0F1C
:10068C000CEA135518BF95EA0C0F0CD050EA410632
:10069C0018BF52EA4306D1D181EA030101F00041AF
:1006AC004FF0000070BD50EA410606BF10461946D7
:1006BC0052EA430619D094EA0C0F02D150EA0136E3
:1006CC0013D195EA0C0F05D152EA03361CBF104624
:1006DC0019460AD181EA030101F0004141F0FE41C3
:1006EC0041F470014FF0000070BD41F0FE4141F447
:1006FC00780170BD70B54FF0FF0C4CF4E06C1CEA47
:10070C0011541DBF1CEA135594EA0C0F95EA0C0FFB
:10071C0000F0A7F8A4EB050481EA030E52EA0335B6
:10072C004FEA013100F088804FEA03334FF08055D7
:10073C0045EA131343EA12634FEA022245EA111504
:10074C0045EA10654FEA00260EF000419D4208BFB5
:10075C00964244F1FD0404F5407402D25B084FEA62
:10076C003202B61A65EB03055B084FEA32024FF40E
:10077C0080104FF4002CB6EB020E75EB030E22BF6B
:10078C00B61A754640EA0C005B084FEA3202B6EB2B
:10079C00020E75EB030E22BFB61A754640EA5C00DA
:1007AC005B084FEA3202B6EB020E75EB030E22BF6A
:1007BC00B61A754640EA9C005B084FEA3202B6EB6B
:1007CC00020E75EB030E22BFB61A754640EADC002A
:1007DC0055EA060E18D04FEA051545EA16754FEA8C
:1007EC0006164FEAC30343EA52734FEAC2025FEAAA
:1007FC001C1CC0D111F4801F0BD141EA00014FF039
:10080C0000004FF0004CB6E711F4801F04BF014309
:10081C000020B4F1FD0C88BFBCF5E06F3FF6AFAE25
:10082C00B5EB030C04BFB6EB020C5FEA500C50F1B5
:10083C00000041EB045170BD0EF0004E4EEA113138
:10084C0014EB5C04C2BFD4EB0C0541EA045170BD3F
:10085C0041F480114FF0000E013C90E645EA060E83
:10086C008DE60CEA135594EA0C0F08BF95EA0C0FB1
:10087C003FF43BAF94EA0C0F0AD150EA01347FF4F9
:10088C0034AF95EA0C0F7FF425AF104619462CE7D0
:10089C0095EA0C0F06D152EA03353FF4FDAE104633
:1008AC00194622E750EA410618BF52EA43067FF484
:1008BC00C5AE50EA41047FF40DAF52EA43057FF414
:1008CC00EBAE12E74FF0FF3C06E000BF4FF0010C1F
:1008DC0002E000BF4FF0010C4DF804CD4FEA410C83
:1008EC007FEA6C5C4FEA430C18BF7FEA6C5C1BD050
:1008FC0001B050EA410C0CBF52EA430C91EA030FD1
:10090C0002BF90EA020F0020704710F1000F91EA2D
:10091C00030F58BF994208BF90422CBFD8176FEAFB
:10092C00E37040F0010070474FEA410C7FEA6C5CC9
:10093C0002D150EA013C07D14FEA430C7FEA6C5CD0
:10094C00D6D152EA033CD3D05DF8040B704700BFFC
:10095C008446104662468C461946634600E000BF4A
:10096C0001B5FFF7B7FF002848BF10F1000F01BD1C
:10097C004DF808EDFFF7F4FF0CBF012000205DF8E7
:10098C0008FB00BF4DF808EDFFF7EAFF34BF01206C
:10099C0000205DF808FB00BF4DF808EDFFF7E0FF05
:1009AC0094BF012000205DF808FB00BF4DF808ED56
:1009BC00FFF7CEFF94BF012000205DF808FB00BFBD
:1009CC004DF808EDFFF7C4FF34BF012000205DF89F
:1009DC0008FB00BF4FEA410212F5001215D211D5E7
:1009EC006FF47873B3EB625212D94FEAC12343F020
:1009FC00004343EA505311F0004F23FA02F018BFA2
:100A0C00404270474FF00000704750EA013005D16A
:100A1C0011F0004008BF6FF0004070474FF000002D
:100A2C00704700BF4A0011D212F5001211D20DD539
:100A3C006FF47873B3EB62520ED44FEAC12343F0D8
:100A4C00004343EA505323FA02F070474FF0000082
:100A5C00704750EA013002D14FF0FF3070474FF031
:100A6C00000070474FEA4102B2F1E04324BFB3F5F6
:100A7C00001CDCF1FE5C0DD901F0004C4FEAC00209
:100A8C004CEA5070B2F1004F40EB830008BF20F0ED
:100A9C000100704711F0804F21D113F13872BCBFA7
:100AAC0001F00040704741F480114FEA5252C2F1FC
:100ABC001802C2F1200C10FA0CF320FA02F018BF45
:100ACC0040F001004FEAC1234FEAD32303FA0CFC98
:100ADC0040EA0C0023FA02F34FEA4303CCE77FEA27
:100AEC00625307D150EA01331EBF4FF0FE4040F471
:100AFC004000704701F0004040F0FE4040F4000020
:100B0C00704700BF80F0004002E000BF81F0004160
:100B1C0042001FBF5FEA410392EA030F7FEA226C97
:100B2C007FEA236C6AD04FEA1262D2EB1363C1BF27
:100B3C00D218414048404140B8BF5B42192B88BF96
:100B4C00704710F0004F40F4000020F07F4018BFB9
:100B5C00404211F0004F41F4000121F07F4118BFD9
:100B6C00494292EA030F3FD0A2F1010241FA03FC81
:100B7C0010EB0C00C3F1200301FA03F100F0004369
:100B8C0002D5494260EB4000B0F5000F13D3B0F131
:100B9C00807F06D340084FEA310102F10102FE2AA0
:100BAC0051D2B1F1004F40EBC25008BF20F0010010
:100BBC0040EA03007047490040EB000010F4000FBE
:100BCC00A2F10102EDD1B0FA80FCACF1080CB2EB51
:100BDC000C0200FA0CF0AABF00EBC25052421843B0
:100BEC00BCBFD0401843704792F0000F81F4000155
:100BFC0006BF80F400000132013BB5E74FEA410328
:100C0C007FEA226C18BF7FEA236C21D092EA030F93
:100C1C0004D092F0000F08BF0846704790EA010F0D
:100C2C001CBF0020704712F07F4F04D1400028BF3A
:100C3C0040F00040704712F100723CBF00F500001C
:100C4C00704700F0004343F0FE4040F40000704752
:100C5C007FEA226216BF08467FEA236301464202FE
:100C6C0006BF5FEA412390EA010F40F48000704711
:100C7C004FF0000304E000BF10F0004348BF4042B7
:100C8C005FEA000C08BF704743F0964301464FF0F3
:100C9C0000001CE050EA010208BF70474FF000034F
:100CAC000AE000BF50EA010208BF704711F0004390
:100CBC0002D5404261EB41015FEA010C02BF844660
:100CCC000146002043F0B64308BFA3F18053A3F5BF
:100CDC000003BCFA8CF2083AA3EBC25310DB01FA06
:100CEC0002FC634400FA02FCC2F12002BCF1004F8A
:100CFC0020FA02F243EB020008BF20F0010070471B
:100D0C0002F1200201FA02FCC2F1200250EA4C006E
:100D1C0021FA02F243EB020008BF20EADC707047B4
:100D2C004FF0FF0C1CEAD0521EBF1CEAD15392EAC2
:100D3C000C0F93EA0C0F6FD01A4480EA010C40029E
:100D4C0018BF5FEA41211ED04FF0006343EA5010F8
:100D5C0043EA5111A0FB01310CF00040B1F5000F3A
:100D6C003EBF490041EAD3715B0040EA010062F1E9
:100D7C007F02FD2A1DD8B3F1004F40EBC25008BFD3
:100D8C0020F00100704790F0000F0CF0004C08BFF1
:100D9C0049024CEA502040EA51207F3AC2BFD2F1BE
:100DAC00FF0340EAC250704740F400004FF00003CC
:100DBC00013A5DDC12F1190FDCBF00F00040704706
:100DCC00C2F10002410021FA02F1C2F1200200FA44
:100DDC0002FC5FEA310040F1000053EA4C0308BF0B
:100DEC0020EADC70704792F0000F00F0004C02BF5C
:100DFC00400010F4000F013AF9D040EA0C0093F0D7
:100E0C00000F01F0004C02BF490011F4000F013B30
:100E1C00F9D041EA0C018FE70CEAD15392EA0C0F9E
:100E2C0018BF93EA0C0F0AD030F0004C18BF31F009
:100E3C00004CD8D180EA010000F00040704790F0DF
:100E4C00000F17BF90F0004F084691F0000F91F083
:100E5C00004F14D092EA0C0F01D142020FD193EA49
:100E6C000C0F03D14B0218BF084608D180EA0100D1
:100E7C0000F0004040F0FE4040F40000704740F0AD
:100E8C00FE4040F4400070474FF0FF0C1CEAD0527B
:100E9C001EBF1CEAD15392EA0C0F93EA0C0F69D0D7
:100EAC00A2EB030280EA010C49024FEA402037D042
:100EBC004FF0805343EA111143EA10130CF0004039
:100ECC008B4238BF5B0042F17D024FF4000C8B4229
:100EDC0024BF5B1A40EA0C00B3EB510F24BFA3EB09
:100EEC00510340EA5C00B3EB910F24BFA3EB9103D9
:100EFC0040EA9C00B3EBD10F24BFA3EBD10340EA33
:100F0C00DC001B0118BF5FEA1C1CE0D1FD2A3FF678
:100F1C0050AF8B4240EBC25008BF20F0010070472D
:100F2C000CF0004C4CEA50207F32C2BFD2F1FF03D0
:100F3C0040EAC250704740F400004FF00003013A01
:100F4C0037E792F0000F00F0004C02BF400010F4A5
:100F5C00000F013AF9D040EA0C0093F0000F01F0B9
:100F6C00004C02BF490011F4000F013BF9D041EADB
:100F7C000C0195E70CEAD15392EA0C0F08D142020E
:100F8C007FF47DAF93EA0C0F7FF470AF084676E7E1
:100F9C0093EA0C0F04D14B023FF44CAF08466EE7BA
:100FAC0030F0004C18BF31F0004CCAD130F0004288
:100FBC007FF45CAF31F000437FF43CAF5FE700BFE0
:100FCC004FF0FF3C06E000BF4FF0010C02E000BF09
:100FDC004FF0010C4DF804CD4FEA40024FEA4103AB
:100FEC007FEA226C18BF7FEA236C11D001B052EA61
:100FFC00530C18BF90EA010F58BFB2EB030088BF27
:10100C00C81738BF6FEAE17018BF40F00100704795
:10101C007FEA226C02D15FEA402C05D17FEA236C77
:10102C00E4D15FEA412CE1D05DF8040B704700BFBE
:10103C00844608466146FFE70FB5FFF7C9FF002855
:10104C0048BF10F1000F0FBD4DF808EDFFF7F4FF8E
:10105C000CBF012000205DF808FB00BF4DF808ED27
:10106C00FFF7EAFF34BF012000205DF808FB00BF4A
:10107C004DF808EDFFF7E0FF94BF012000205DF86C
:10108C0008FB00BF4DF808EDFFF7D2FF94BF01201D
:10109C0000205DF808FB00BF4DF808EDFFF7C8FF16
:1010AC0034BF012000205DF808FB00BF10B50446DA
:1010BC00074B08481B68A0FB0330800900F00CFCB0
:1010CC00214600224FF0FF3000F0B4FB002010BD91
:1010DC0010000020D34D621008B5094B03201A688C
:1010EC0042F004021A601A6842F002021A6000F020
:1010FC008FFB0F20FFF7DAFF01F0C8FC002008BDC2
:10110C00003C0240024A136801331360704700BF71
:10111C00B43F0020014B1868704700BFB43F00205B
:10112C00002800F0AB80F0B5C36C83B00446002BF4
:10113C0000F09280E36CD8066DD4E36C5C4923F428
:10114C00885323F0020343F00203E3644A686368A4
:10115C0022F4403213434B604FF4007393FAA3F321
:10116C000222B3FA83F3656A92FAA2F2B2FA82F21D
:10117C00E7686669206AE16B3E43994046EA0003E2
:10118C00606B05FA02F20B43102843EA020302D00B
:10119C00A26B0243134322681168490621D52669C4
:1011AC0090684449B6F5807F01EA000141EA0301E9
:1011BC00916033D0012E31D0116B21F0F871116395
:1011CC0091683D4A0A4093423CD0E36C012023F0E5
:1011DC00120343F01003E364236D0343236503B050
:1011EC00F0BD2669A769A068E169B6F5807F43EA7E
:1011FC00070341EA00013FD0012E14BF00274FF432
:10120C008077E06A394301283AD055682B4828404A
:10121C0001435160C4E7012003B0F0BD106B4FF0E7
:10122C00F87191FAA1F1B1FA81F1A56A20F0F87088
:10123C00013D05FA01F10143116391681E4A0A4010
:10124C009342C2D100202065E36C23F0030343F0EA
:10125C000103E36403B0F0BD194A0365116A80F819
:10126C00483041F001031362136A03F00103019348
:10127C00019B04F0D1F95DE73746C2E701207047C6
:10128C0065B94FF4604090FAA0F0B0FA80F5206B8D
:10129C0041F400610138A8400143B6E7E06C40F02E
:1012AC002000E064206D40F001002065ADE700BF38
:1012BC000027014089F1FFC0FEFF80BFFF16FCFC38
:1012CC00003802400368986D704700BF704700BF3C
:1012DC0038B5036804465A68910602D51A68920715
:1012EC0044D45A68120602D51A6855070CD45A68A9
:1012FC00550602D51A68D0076DD45A68510102D52B
:10130C001A6892065AD438BDE26CD00603D4E26C4B
:10131C0042F40052E2649A6812F4401F1ED15A6CD7
:10132C0012F4401F02D09A68510517D45A6852051E
:10133C0014D49A6812F0405F10D1626A72B95A687C
:10134C0022F080025A60E36C23F48053E364E36C74
:10135C00DB0503D4E36C43F00103E364204600F0A7
:10136C0055FA23686FF00C021A60C0E7C26CD50600
:10137C0003D4C26C42F40072C2649A6812F0405FEB
:10138C0014D1626A92B91A6B12F0F87F2FD15A6895
:10139C0022F020025A60E36C23F48073E364E36C64
:1013AC00D90403D4E36C43F00103E364204604F056
:1013BC00F7F923686FF012021A6092E7226D6FF052
:1013CC00200542F00202226520461D6004F012FA4C
:1013DC0023681D6038BDE36C204643F48033E3641E
:1013EC00FFF774FF23686FF001021A6085E79A68B3
:1013FC005005DBD4CBE700BF70B490F8483083B015
:10140C000022012B01923DD04B680122062B80F863
:10141C004820026824D803EB8303053B166C0C6848
:10142C001F259D4026EA050504FA03F32B4313649C
:10143C00092C2BD8896804EB440655690723B34063
:10144C00B14025EA03030B435361A4F11003012BB4
:10145C003CD9002380F84830184603B070BC704764
:10146C000C2B51D9122B5DD803EB8303413B966BAC
:10147C000C681F259D4026EA050504FA03F32B434F
:10148C009363D5E7022003B070BC7047132C04EBB8
:10149C00440389680CD91D2C54D83C3BD5680726CD
:1014AC009E4001FA03F325EA06010B43D360CCE717
:1014BC001E3B156907269E4001FA03F325EA060137
:1014CC000B431361A4F11003012BC2D8294B5A68AA
:1014DC001202BED45A68102C42F400025A60B8D1E1
:1014EC00254B264A1B68A2FB03239B0C03EB8303AF
:1014FC005B000193019B002BABD0019B013B019343
:10150C00019B002BF9D1A4E703EB8303233BD66BA0
:10151C000C681F259D4026EA050504FA03F32B43AE
:10152C00D36385E7182B03EB830316D85F3B566B0D
:10153C000C681F259D4026EA050504FA03F32B438E
:10154C00536375E75A3BD56D07269E4001FA03F3AA
:10155C0025EA06010B43D36577E77D3B166B0C68D8
:10156C001F259D4026EA050504FA03F32B4313635C
:10157C005EE700BF002701401000002083DE1B4304
:10158C00006D704770B5002382B002680193136838
:10159C005B0623D4194B1A4C1B689168A4FB0343BC
:1015AC009B0C03EB430341F0010191600193019B00
:1015BC002BB1019B013B0193019B002BF9D10546FB
:1015CC00FFF7A8FD064604E0FFF7A4FD801B0228E8
:1015DC0007D82B681B6813F04004F5D0002002B02C
:1015EC0070BDEB6C012043F01003EB642B6D85F8A0
:1015FC00484003432B6502B070BD00BF10000020B3
:10160C0083DE1B4390F84820012A01D10220704749
:10161C00012310B580F848300446FFF7B3FF0028CB
:10162C0030D1E36C226823F4E06323F0010343F42C
:10163C008073E36453685B0505D5E36C23F4405376
:10164C0043F48053E364E36C002113F4805318BF1C
:10165C00236D84F8481018BF23F0060323656FF040
:10166C0022031360536843F0806343F020035360FC
:10167C00936813F0405004D1936843F08043936017
:10168C0010BD084610BD00BF38B503681A68520675
:10169C0001D4002038BD9A68044622F001029A60F9
:1016AC00FFF738FD054623681B685B06F1D5FFF78D
:1016BC0031FD401B0228F6D9E36C012043F01003E6
:1016CC00E364236D0343236538BD00BF002875D048
:1016DC0038B5C36C044643F00203C364FFF7D4FF70
:1016EC00054620B10023284684F8483038BD2368CD
:1016FC006FF01F021A6058683149324A0140596034
:10170C009868314902409A60DA6D204622F03F0217
:10171C00DA65DA6802F04042DA601A6902F0404297
:10172C001A615A6902F040425A619A6922F47F6246
:10173C0022F00F029A61DA6922F47F6222F00F0222
:10174C00DA611A6A22F47F6222F00F021A625A6A74
:10175C0022F47F6222F00F025A629A6A22F47F62AC
:10176C0022F00F029A62DA6A22F47F6222F00F02F0
:10177C00DA621A6B02F07E421A635A6B02F0404234
:10178C005A639A6B02F040429A63DA6B02F0404261
:10179C00DA631A6C02F040421A645A6C920D92058C
:1017AC005A644B6823F400034B6003F06DFF002375
:1017BC0025652846E56484F8483038BD012070471B
:1017CC0000003CF888F080800027014090F8482009
:1017DC00012A01D102207047012310B580F848304E
:1017EC000446FFF751FF60B92268536823F02003C9
:1017FC005360E36C23F4885323F0010343F001039B
:10180C00E364002384F8483010BD00BF704700BF6C
:10181C004FF6FF0206490002CB6800F4E0601A4064
:10182C0042F0BF6343F400330343CB60704700BF07
:10183C0000ED00E0194B30B4DB68C3F30223C3F1B5
:10184C000705042D03F1040428BF0425062C18D920
:10185C00033B01249C40013C22400124AC40013C50
:10186C00214001FA03F3002842EA03020CDB1201C7
:10187C0000F16040D2B200F5614080F8002330BC2A
:10188C00704700221346E8E7054B00F00F001201E9
:10189C00D2B203441A7630BC704700BF00ED00E0B2
:1018AC00FCEC00E000F01F010123034A40098B40CF
:1018BC0042F82030704700BF00E100E043090122EC
:1018CC0000F01F000349203302FA00F041F8230016
:1018DC00704700BF00E100E00138B0F1807F0DD20D
:1018EC0030B4074B074CF0255860002284F8235085
:1018FC000721104630BC9A60196070470120704770
:10190C0010E000E000ED00E0704700BF08B5FFF705
:10191C00FBFF08BD90F82120F8B5022A03D0042261
:10192C0082630120F8BD0268016C1468012524F063
:10193C000E0414601468C76B466B24F00104146029
:10194C0005FA01F10024796080F8215080F82040DC
:10195C0016B1B0472046F8BD3046F8BDD1F800C0EE
:10196C00BCF1000F00F0E0802DE9F04F884683B009
:10197C00DFF8D491002579E0D0F800E001F0030AFB
:10198C000EEA030E0AFA07FA013E4AEA0E0E012E7F
:10199C00C0F800E040F29C80C668D8F808203340BC
:1019AC00BA401343CF00C3605CD5604B5F4E1B6ADB
:1019BC0025F0030243F001033362336A02F18042E3
:1019CC0003F00103019302F5803205F00303019E3D
:1019DC009B0097680F269E4027EA0606544FB84294
:1019EC0000F08C8007F58067B84200F08980514F79
:1019FC00B84200F08980504FB84200F089804F4FB8
:101A0C00B84200F089804E4FB84200F089804D4FAB
:101A1C00B8420CBF0627072707FA03F3334393603A
:101A2C00E243D9F80030CE034CBF23431340C9F82E
:101A3C000030D9F804308F034CBF23431340C9F84E
:101A4C000430D9F80830CE024CBF23431340C9F8F8
:101A5C000830D9F80C30890254BF02EA03041C4345
:101A6C00C9F80C4001353CFA05F344D00122AA40D8
:101A7C0012EA0C04F6D0D8F804106F0021F010060E
:101A8C000323BB40022E6FEA03037FF475AF4FEACA
:101A9C00D50A00EB8A0A05F0070EDAF820B04FEAF7
:101AAC008E0E0F2606FA0EF62BEA060BD8F81060EF
:101ABC0006FA0EF646EA0B06CAF82060066801F034
:101ACC00030A06EA030E5646BE4046EA0E060660B8
:101ADC00866806EA030ED8F80C60BE4046EA0E068D
:101AEC0086604668C1F3001E26EA02067246AA40CA
:101AFC003243426050E703B0BDE8F08F00238DE71E
:101B0C00012707FA03F389E7022707FA03F385E7AE
:101B1C00032707FA03F381E7042707FA03F37DE7AA
:101B2C00052707FA03F379E7704700BF0038024036
:101B3C000000024000080240000C0240001002406D
:101B4C00001402400018024000040140002900F07B
:101B5C009A802DE9F04F0023DFF844B1DFF844916F
:101B6C004FF0010A03E0013331FA03F270D00AFAA4
:101B7C0003F611EA060CF6D04FF003085C0008FAE5
:101B8C0004F4E443026823FA08F72240026000EBF5
:101B9C00870703F007053A6A4FF00F0EAD000EFAF7
:101BAC0005F522EA05053D62826823F00305224013
:101BBC008260426805F1804522EA06064660C268EA
:101BCC0005F580351440C46003EA0802AC68920045
:101BDC000EFA02FE584504EA0E043BD02A4EB042DF
:101BEC003FD02A4EB0423FD0294EB04236D0294E7B
:101BFC00B0423ED0284EB04240D0284EB0422BD0FE
:101C0C004FF0070808FA02F29442ACD16FEA0C0CC0
:101C1C00AA68013322EA0E02AA60D9F8002002EA6F
:101C2C000C02C9F80020D9F804200CEA0202C9F809
:101C3C000420D9F808200CEA0202C9F80820D9F8C7
:101C4C000C200CEA0202C9F80C2031FA03F28ED1F6
:101C5C00BDE8F08F0022D7E74FF0060808FA02F231
:101C6C00D2E70AFA02F2CFE74FF0020808FA02F2C2
:101C7C00CAE74FF0040808FA02F2C5E74FF005086E
:101C8C0008FA02F2C0E77047000402400008024064
:101C9C00000C0240001002400014024000180240E8
:101CAC0000000240000401400369194214BF0120E6
:101CBC000020704702B9090481617047002800F0C8
:101CCC009080F8B590F83D30044603F0FF02002BED
:101CDC0074D001F00BFC444B98426DD9236824223C
:101CEC0084F83D201A68414922F00102A1FB005101
:101CFC001A605A68890C22F03F020A435A603C4E23
:101D0C0062681D6AB24225F03F0539D85200B0FB1B
:101D1C00F2F2013129431962D969C2F30B0521F49E
:101D2C004F41032D21F0FF0198BF04220A43DA61D1
:101D3C001968E669226A21F0C00132430A431A602D
:101D4C0099682769E66821F403423E4322F0FF02BA
:101D5C0032439A60D9686669A26921F0FF01324367
:101D6C000A43DA601A680025202142F001021A6049
:101D7C002846256484F83D10256384F83E50F8BD50
:101D8C004FF4967606FB01F11A4FA668A7FB01717A
:101D9C008909013129431962D96921F44F4121F094
:101DAC00FF0186B902EB4202B0FBF2F0C0F30B026A
:101DBC00AAB140F40042B9E70120F8BD80F83C20FC
:101DCC0005F0F2FD85E702EB820202EB8202B0FB2A
:101DDC00F2F0C0F30B0212B140F44042A6E701222C
:101DEC00A4E70120704700BF7F841E0083DE1B43E5
:101DFC00A0860100D34D6210F0B5002483B001948D
:101E0C0090F83D40202C03D00225284603B0F0BDAD
:101E1C00254C264D2468E408A5FB0454240A04EB45
:101E2C00840404EB8404019403E00468A569AE0700
:101E3C000CD5019C651E0195002CF6D12023046362
:101E4C0080F83C4080F83D300325DEE790F83C50AC
:101E5C00012DD9D025680126ED0780F83C6002D40D
:101E6C002568354325602768DFF844E027F40067D0
:101E7C002760212780F83D700026102780F83E70DF
:101E8C0006644385C0F82CE0478D416423684262A8
:101E9C0043F48073078523606368354643F4E0633D
:101EAC0080F83C606360B0E71000002089B5F8143E
:101EBC000000FFFFF0B5002483B0019490F83D4082
:101ECC00202C03D00225284603B0F0BD274C284D0A
:101EDC002468E408A5FB0454240A04EB840404EBF2
:101EEC008404019403E00468A569AE070CD5019C39
:101EFC00651E0195002CF6D12023046380F83C402C
:101F0C0080F83D300325DEE790F83C50012DD9D008
:101F1C0025680126ED0780F83C6002D4256835431E
:101F2C0025602768DFF84CE027F40067276022273C
:101F3C0080F83D700026102780F83E7006644385BB
:101F4C00C0F82CE0478D41642368426243F48063FF
:101F5C00078523602368354643F4807323606368E8
:101F6C0080F83C6043F4E0636360ACE71000002051
:101F7C0089B5F8140000FFFF704700BF704700BF21
:101F8C00704700BF704700BF704700BF704700BF6D
:101F9C00704700BF704700BF90F83D3010B5293B2B
:101FAC00012B04464ED990F83D30602B036805D0C8
:101FBC005A6812055CBF202280F83D200022226363
:101FCC0084F83E201A6822F400621A605A6812F4EF
:101FDC00006214D05A68616B22F400625A6091F866
:101FEC002130012B35D03A4B08464B63FFF792FC5E
:101FFC00002860D194F83D30282B13D010BD94F8F4
:10200C003D10602942D05A69520604D5626A1B6998
:10201C00511C616213702046FFF7BAFF94F83D30F3
:10202C00282BEBD1236C5B07E8D52A49002320220F
:10203C00E1622046236384F83D2084F83E30FFF7AC
:10204C00A1FF10BD002328220363036880F83D2004
:10205C00B8E7A36B1E4A18465A63FFF75BFC0028CF
:10206C00C8D023685A69500605D5626A1B69511C91
:10207C006162137023681A68A06B22F001022021A0
:10208C001A60436B84F83D109847B3E7202184F81D
:10209C003D1022645A69510605D5626A1B69511CB0
:1020AC006162137023681A68204622F001021A60DC
:1020BC00FFF770FF9EE72268606B1368202123F006
:1020CC0001031360436B84F83D10984792E700BFFF
:1020DC00F92900080000FFFF0346F0B502688DB037
:1020EC0095695169506893F83E40102C00F0968029
:1020FC0093F83E40402C00F09180A34C0C40FCB176
:10210C00840500F11A82A14C2C40002C00F0538164
:10211C009F4C0C40002C40F094819E4C0C406CB1B8
:10212C0085050BD5598D89B241B1596A481C586245
:10213C00097811615A8D013A92B25A850DB0F0BDF1
:10214C00954F0F40002FDED08605DCD55168164622
:10215C0021F4E06151600B9451690B91116841F0CD
:10216C00010111600B99116821F4806111605168B3
:10217C0008050ED593F83D10222900F0818293F8C2
:10218C003D102A2900F07C82596B0968496889B294
:10219C005985598D89B2E1B15169490709D5596AF7
:1021AC001269481C58620A705A8D1E68013A92B224
:1021BC005A857269570608D55A6A3169501C58629B
:1021CC0011705A8D013A92B25A851A6C42F004027F
:1021DC001A641A6C002A40F0598293F83D20282A80
:1021EC0000F0178293F83D202A2A00F0128293F80F
:1021FC003D20292A00F00D821A6B222A03D093F875
:10220C003D20222A9AD1002220211A63184683F8F5
:10221C003D1083F83E20FFF7B1FE8FE711F0011F50
:10222C003AD0870500F13A815C4C0C40002C00F050
:10223C0095801C6D002C3BD1544C2C40002C37D07D
:10224C00534C0C40002C00F04381440540F140817C
:10225C00504C0C40002C40F04081198D21B993F862
:10226C003D10212900F0A48293F83D10212909D0BA
:10227C0093F83E1040297FF461AF93F83D1022296A
:10228C007FF45CAF598D89B200297FF44EAF53684F
:10229C0023F48063536051E7404C0C40002C5DD01C
:1022AC008605C6D55C6CE4B214611C6D002CC3D0E1
:1022BC003B4C0C40002C75D0460573D5354C0C406E
:1022CC00002C00F0488185057FF538AF598D89B217
:1022DC00032900F07A81598D89B202297BD1D96A00
:1022EC00042900F0DD81D96A082900F0D981D96A66
:1022FC0011F5803F00F0D481D96A0229116814BF0E
:10230C0021F4806141F480611160596A1269481CA2
:10231C0058620A705A8D1968013A92B25A855A6AF3
:10232C000969501C586211705A8D1968013A92B2A1
:10233C005A854A68202022F440724A6083F83D0096
:10234C0093F83E20402A00F03881122100221963B4
:10235C00184683F83E2005F08DFBEFE60A4C0C4046
:10236C00002C3FF466AF84057FF563AF93F83D40D6
:10237C00222C00F0698100240A9454690A9494690F
:10238C000A940A9C55E700BF0200010004000200F9
:10239C008000010004000100100001000800010091
:1023AC0040000100A54C0C40002C3FF4C7AE850545
:1023BC007FF5C4AE8AE7A24C0C40B4B99F4C0C40DC
:1023CC00002C3FF4BBAE81057FF5B8AE598D89B2B8
:1023DC0000293FF4B3AE596A1269481C58620A705E
:1023EC005A8D013A92B25A85A8E64405E6D5934C2B
:1023FC000C40002CE7D1598D89B200293FF49EAED8
:10240C00596A1269481C58620A705A8D013A92B284
:10241C005A855A8D92B2002A7FF490AE93F83D20E3
:10242C002A2A7FF48BAE196822254A68282422F4C4
:10243C0080624A6018461D6383F83D40FFF79EFD9D
:10244C007CE646057FF569AE7C4C0C40002C7FF495
:10245C0067AE598D89B200293FF470AE596A481C99
:10246C00586209781161598D013989B25985598D94
:10247C0089B200297FF462AE93F83D1029297FF4CC
:10248C005DAE5168212521F48061282451601846E5
:10249C001D6383F83D40FFF76FFD4FE693F83E4018
:1024AC00402C00F0AE801C69B4F5804F00F09D808C
:1024BC001C6D002C00F0BA801C6D012C7FF4B9AEA1
:1024CC005C6CE41104F0060444F0F1041461B0E611
:1024DC005A4C0C40002C3FF431AE87057FF52EAEE4
:1024EC0093F83D1021297FF429AE598D89B200292A
:1024FC007FF41BAED86A042807D0D86A082804D009
:10250C00D86A10F5803F40F02C815168002021F4EE
:10251C00E06151601168202441F40071116018636E
:10252C0083F83D4093F83E2083F83E00402A18463D
:10253C0000F05D8105F08AFA00E69169926981F0FC
:10254C0004011706C1F3800154BF9A891A8B1846EF
:10255C00FFF716FDF2E593F83D1022297FF4EEAD5E
:10256C00598D89B203293FF636AF598D89B20229AC
:10257C0000F0B680598D89B2032900F0B180D96A78
:10258C00586A0229116814BF21F4806141F48061FA
:10259C001160516821F4E06151601269411C59626B
:1025AC0002705A8D2021013A92B25A8583F83D105F
:1025BC0093F83E20402A7FF4C8AE00221A631846D6
:1025CC0083F83E20FFF7E2FCB8E5D96A042907D06E
:1025DC00D96A082904D0D96A11F5803F7FF4FBAE83
:1025EC00116821F480611160F5E693F83D40212CCF
:1025FC005C6C16BF44F0010404F0FE04E4B21461F8
:10260C0017E61C6D002C45D15C6C04F0FE041461C3
:10261C000FE60C4800222021D8621A63184683F872
:10262C003D1083F83E20FFF7ADFC87E55C6CE411B0
:10263C0004F0060444F0F0041461FAE5040001000F
:10264C00400001000000FFFF1C6D1CB993F83E60B8
:10265C00402E71D01C6D1CB91E69B6F5404F72D05E
:10266C005C8DA4B20CBB03945469039494690394D9
:10267C00039C146844F40074146000241C65D8E5B1
:10268C00996B0968496889B2598582E51846FFF744
:10269C0083FC53E55C6C44F00104E4B21461C8E5BE
:1026AC00116841F4007111602FE65C8DA4B2012C0D
:1026BC0023D05C8DA4B2022C60D0146844F48064E6
:1026CC0014605468260503D5546844F4805454604F
:1026DC00002409945469099494690994099CCCE7E1
:1026EC00DB6A022B136800F0858023F4806313608F
:1026FC00136843F400631360C9E5DC6A14F5803F8A
:10270C0000F08C80DC6A042C78D0DC6A082C75D044
:10271C001C6B122C72D0DC6A022C146814BF24F4CB
:10272C00806444F480641460002406945469069414
:10273C0094690694069CA0E70194546901949469E9
:10274C000194019C75E50294546902949469029475
:10275C00029C146844F4807414601C6D01341C6574
:10276C0067E55068112520F4E060202450601D635B
:10277C00184683F83E1083F83D40DBE6DC6A022CF9
:10278C0014685FD024F480641460146844F400640A
:10279C0014605468270503D5546844F4805454607D
:1027AC00002408945469089494690894089C64E77C
:1027BC00D96A042906D0D96A082903D0D96A11F537
:1027CC00803F43D15068002120F4E06050601068D5
:1027DC00202440F400701060196383F83D4093F896
:1027EC003E201846402A83F83E107FF4A3AEFFF734
:1027FC00CBFBA3E443F48063136048E51468002624
:10280C0024F48064146007965469079494690794BF
:10281C00079C146844F4007414602EE7146824F4C4
:10282C0080641460546814F400641FD0146800268B
:10283C0024F4806414600496546904949469049498
:10284C00049C1AE744F480641460A2E751681126D2
:10285C0021F4E06100252024516018461E6383F8A2
:10286C003E5083F83D4005F0F1F867E40594546957
:10287C00059494690594059C146844F400741460E0
:10288C00FBE600BF036870B5564A5D6904462A40F2
:10289C00596822B3CE0522D5026C15F4813F6FF432
:1028AC00807042F001022264586141D0226C6FF4B6
:1028BC00007042F0020215F4823F2264586123D169
:1028CC0015F4843F08D0CA0506D5226C6FF400615C
:1028DC0042F0080222645961236C5BB970BD15F497
:1028EC00813F0CD0C805E1D415F4823FE8D0236CAD
:1028FC00002BF3D02046BDE87040FFF74DBB15F41C
:10290C00823FDDD0C905E7D594F83E20202A13D0AC
:10291C00226C42F00402226494F83E20102A40D02B
:10292C006FF480625A6115F4843FD5D02368CCE7EC
:10293C0015F4823FE8D1C3E7628D92B2002AE7D149
:10294C0094F83D20212A0AD094F83D20292A06D05B
:10295C0094F83D20282ADBD1226B212AD8D1E26AB7
:10296C00042A23D0E26A082A20D094F83D20D2B25F
:10297C00212AD5D11C4E20200021E662226384F846
:10298C003D0084F83E105A686FF4806122F4E062D6
:10299C005A6059611A6820460A401A60FFF7ECFA2F
:1029AC00C1E71A6842F400721A60B9E794F83D2046
:1029BC00282ADAD10C4A6FF48060E2625A6800214E
:1029CC0022F4E0625A6058611A68202602401A60AC
:1029DC002046216384F83D6084F83E10FFF7D2FA5C
:1029EC00A1E700BF000101000000FFFF406A38B5FD
:1029FC00026800231168456B21F48061846B1160BF
:102A0C00438590F83D106B6360294FF020016363A0
:102A1C0080F83D1080F83E3006D0136823F0010397
:102A2C001360FFF7B5FA38BD0364136823F0010394
:102A3C001360FFF7AFFA38BDF8B138B504464CF661
:102A4C00CC4545F2555023686168A2681D6018603A
:102A5C0059609A60FEF75EFB054604E0FEF75AFBF0
:102A6C00401B302807D82368D8680028F6D14AF6CE
:102A7C00AA221A6038BD032038BD0120704700BF60
:102A8C004AF6AA22036800201A607047704700BFFC
:102A9C004FF4807393FAA3F3B3FA83F39B0003F11F
:102AAC00844303F5602301221A60704710B40B4C69
:102ABC000B4A2368012923F0030340EA030020603A
:102ACC00136923F00403136104D040BF20BF20BF5F
:102ADC0010BC704730BF10BC704700BF0070004086
:102AEC0000ED00E010B40D4C0D4A2368012923F0D1
:102AFC00030340EA03002060136943F004031361ED
:102B0C0009D040BF20BF20BF054A10BC136923F079
:102B1C0004031361704730BFF6E700BF007000403C
:102B2C0000ED00E0024A136923F0020313617047C1
:102B3C0000ED00E0024B186800F4C050704700BF75
:102B4C000070004030B51C4C83B0A36813F0F00F3C
:102B5C0015D1636A0546DB001ED4636A43F08053CB
:102B6C006362636A03F080530193019BFFF7E2FFFA
:102B7C00636AB0F5C05F23F08053636211D000220A
:102B8C000E490B6823F0010313430B60086800F037
:102B9C000100504003B030BDFFF7CCFFB0F5C05F73
:102BAC00EDD1B5F5404FEAD1044901220B6843F051
:102BBC0004030B60E4E700BF00380240003C024015
:102BCC002DE9F043036883B0DD0704463BD5B949D2
:102BDC008A6802F00C02082A00F0C8818A6802F0A8
:102BEC000C020C2A00F0BE816368012B00F082827B
:102BFC00002B00F01A82052BAE4B1A6800F059839B
:102C0C0022F480321A601A6822F480221A60FEF7CD
:102C1C0081FA4FF400370646A64D06E0FEF77AFA25
:102C2C00801BB0F5967F00F2358297FAA7F32A68DD
:102C3C0097FAA7F3B3FA83F303F01F0322FA03F313
:102C4C00DA07EBD52368980744D59A498A6802F0CD
:102C5C000C02042A00F026828A6802F00C020C2A6C
:102C6C0000F01C82E268002A00F09981012292FA9D
:102C7C00A2F3B3FA83F39B0003F1844303F58E03B1
:102C8C001A60FEF747FA022706468A4D05E0FEF762
:102C9C0041FA801B022800F2FD8197FAA7F38549BF
:102CAC002A6897FAA7F3B3FA83F303F01F0322FA07
:102CBC0003F3DB07EBD54A684FF4F85393FAA3F30D
:102CCC00B3FA83F3206922F4F85200FA03F31343A6
:102CDC004B602368D90600F1A780190725D56269D6
:102CEC00002A00F08181012292FAA2F3B3FA83F355
:102CFC007149022741F82320FEF70CFA6D4D064668
:102D0C0005E0FEF707FA801B022800F2C38197FA50
:102D1C00A7F36A6B97FAA7F3B3FA83F303F01F03D5
:102D2C0022FA03F3DA07ECD523685E0746D5614B2C
:102D3C005A6AD50000F1DC815A6A012542F08052B2
:102D4C005A625B6A03F080530193019B5B4B1A68D8
:102D5C00D00540F18E81A368012B00F04D82002B31
:102D6C0000F0F281052B534B5A6B00F0358222F4A4
:102D7C0080725A635A6B22F480625A63FEF7CAF966
:102D8C004FF4007980464B4E41F2883706E0FEF74F
:102D9C00C1F9C8EB0000B84200F27C8199FAA9F3A2
:102DAC00726B99FAA9F3B3FA83F303F01F0322FAB7
:102DBC0003F3DA07EBD5002D40F00882636A7BB38E
:102DCC003C4DAA6802F00C020C2A00F0E480022BA5
:102DDC004FF0807300F0168293FAA3F3B3FA83F3E7
:102DEC009B0003F1844303F58E0300221A60FEF767
:102DFC0091F94FF00074064605E0FEF78BF9801B45
:102E0C00022800F2478194FAA4F32A6894FAA4F3F6
:102E1C00B3FA83F303F01F0322FA03F3DB07ECD4BA
:102E2C00002003B0BDE8F083224DAB6813F00C0F0B
:102E3C0046D0A2694FF48073002A00F0618193FAA6
:102E4C00A3F3B3FA83F39B0003F1844303F58E03DE
:102E5C0001221A60FEF75EF94FF40077064605E092
:102E6C00FEF758F9801B022800F2148197FAA7F399
:102E7C0010492A6897FAA7F3B3FA83F303F01F03F8
:102E8C0022FA03F3DB07EBD54A68236A22F460428B
:102E9C0013434B604A684FF07F4393FAA3F3B3FAA2
:102EAC0083F3E06922F07F4200FA03F313434B6093
:102EBC00236812E700380240800647420070004049
:102ECC004FF4007393FAA3F22A6893FAA3F3B3FABC
:102EDC0083F303F01F0322FA03F3DA0702D5A36985
:102EEC00002B58D0C04D206A6B6803F460439842A5
:102EFC0040F25281FFF726FE00284CD16A68236A03
:102F0C0022F460421A436A6069684FF07F4292FA79
:102F1C00A2F2B2FA82F2E06921F07F4100FA02F2E9
:102F2C000A436A604FF4604191FAA1F1AE4AB1FADA
:102F3C0081F19268F02090FAA0F0B0FA80F002F0E3
:102F4C00F002AA4DC240CB400133A95C4FF40042C1
:102F5C0002FA03F3A64ACB400F201360FEF7A6F843
:102F6C002368BAE68A68D0037FF53EAE4FF4003290
:102F7C0092FAA2F19C49096892FAA2F2B2FA82F290
:102F8C0002F01F0221FA02F2D1077FF55CAE6268F3
:102F9C00002A7FF458AE012003B0BDE8F083012372
:102FAC0093FAA3F3B3FA83F39B0003F1844303F581
:102FBC008E031A60FEF7AEF8022706468A4D04E02F
:102FCC00FEF7A8F8801B022864D897FAA7F32A68A2
:102FDC0097FAA7F3B3FA83F303F01F0322FA03F370
:102FEC00D807EDD4236875E6012393FAA3F3B3FA5B
:102FFC0083F38049022741F82320FEF78BF87A4DA2
:10300C00064604E0FEF786F8801B022842D897FAA1
:10301C00A7F36A6B97FAA7F3B3FA83F303F01F03D2
:10302C0022FA03F3DB07EDD47EE66F4B4FF4003747
:10303C001A681D4622F480321A601A6822F4802223
:10304C001A60FEF767F8064605E0FEF763F8801B8A
:10305C00B0F5967F1ED897FAA7F32A6897FAA7F3CC
:10306C00B3FA83F303F01F0322FA03F3DB07ECD468
:10307C00E8E51A681E4642F480721A60FEF74AF8B8
:10308C0007463368D9053FF566AEFEF743F8C01B1B
:10309C006428F6D9032003B0BDE8F0838A68D10315
:1030AC003FF5E0AD022292FAA2F14F49096892FA7B
:1030BC00A2F2B2FA82F202F01F0221FA02F2D20755
:1030CC0003D5E268012A7FF466AF474D4FF4F852FE
:1030DC00696892FAA2F2B2FA82F2206921F4F851EC
:1030EC0000FA02F20A43D9066A607FF5F6AD9BE658
:1030FC0000252BE63C4A136843F48033136086E5C5
:10310C0093FAA3F3B3FA83F39B0003F1844303F51F
:10311C008E031A60FDF7FEFF4FF40077064604E0BD
:10312C00FDF7F8FF801B0228B4D897FAA7F32A689A
:10313C0097FAA7F3B3FA83F303F01F0322FA03F30E
:10314C00D807EDD42368C8E5274B4FF400795A6BA8
:10315C001E4622F480725A635A6B41F2883822F46C
:10316C0080625A63FDF7D6FF074604E0FDF7D2FFF5
:10317C00C01B40458ED899FAA9F3726B99FAA9F342
:10318C00B3FA83F303F01F0322FA03F3DB07EDD446
:10319C00002D3FF413AE19E06A684FF07F4322F420
:1031AC00604202436A606A6893FAA3F3B3FA83F34A
:1031BC00E16922F07F4201FA03F313436B60FFF7DE
:1031CC00C1FC00287FF4E7AE236AABE6064A536ADB
:1031DC0023F080535362F1E542F480625A635A6BD8
:1031EC0042F480725A63C9E500380240E8EA0008EC
:1031FC001000002080064742324A536B43F4807320
:10320C005363BBE593FAA3F3B3FA83F39B0003F187
:10321C00844303F58E0300221A60FDF77BFF4FF009
:10322C000077064605E0FDF775FF801B02283FF688
:10323C0031AF97FAA7F323492A6897FAA7F3B3FAA1
:10324C0083F303F01F0322FA03F3D807EBD4A56A28
:10325C00E06A226B8B682843024323F47D031343FB
:10326C008B604FF0807393FAA3F3B3FA83F39B0054
:10327C0003F1844303F58E0301221A600C46FDF71B
:10328C0049FF4FF00075064605E0FDF743FF801B34
:10329C0002283FF6FFAE95FAA5F3226895FAA5F33E
:1032AC00B3FA83F303F01F0322FA03F3DA07ECD526
:1032BC00B6E542F480221A601A6842F480321A6031
:1032CC00A5E400BF003802401D498B6803F00C02D6
:1032DC00082A14D00C2A14D0042A10D04B684FF4AE
:1032EC00604090FAA0F0B0FA80F003F4604323FA47
:1032FC0000F001304FF4004303FA00F0704711481E
:10330C00704710B44FF4701292FAA2F2B2FA82F231
:10331C0003F470100C4C20FA02F2A45C4FF4400041
:10332C0090FAA0F0B0FA80F003F44003C3400548D3
:10333C00013300FB04F08A68B0FBF3F010BC70475B
:10334C00003802400024F400DCEA0008634A2DE94E
:10335C00F041136803F001038B4214D20129136866
:10336C0007D023F001031943116001201368BDE855
:10337C00F08143F004031360136843F001031360FE
:10338C001368DE077CD503689F0706D5544D826809
:10339C00AC6824F0F0042243AA60DD0706460C4614
:1033AC0035D54368022B00F09580032B00F08C8000
:1033BC00012B0CBF02224FF4007292FAA2F1484981
:1033CC00096892FAA2F2B2FA82F202F01F0221FA12
:1033DC0002F2D00754D5424D41F28838AA6822F047
:1033EC0003021343AB60FDF795FE73680746022B8F
:1033FC004ED0032B57D0012B05D15FE0FDF78AFE91
:10340C00C01B404563D8AB6813F00C0FF6D1334AA0
:10341C00136803F001039C422BD333685A0706D57B
:10342C002F48F268816821F4E0610A4382601B072F
:10343C0007D52B4A3169936823F4605343EAC103DF
:10344C009360FFF741FF264BF0229B6892FAA2F2A1
:10345C00B2FA82F2234903F0F003D340CB5C224A48
:10346C0020FA03F30F201360FDF720FE0020BDE8C7
:10347C00F081136823F0010313601368D907CCD5CE
:10348C000120BDE8F081FDF745FEC01B40451ED86C
:10349C00AB6803F00C03082BF5D1B8E7FDF73AFE47
:1034AC00C01B404513D8AB6803F00C030C2BF5D1B3
:1034BC00ADE7FDF72FFEC01B404508D8AB6803F005
:1034CC000C03042BF5D1A2E74FF0007275E7032033
:1034DC00BDE8F0814FF400326FE700BF003C0240C2
:1034EC0000380240E8EA000810000020084B4FF4B6
:1034FC00E0629B6892FAA2F2B2FA82F2054806499F
:10350C0003F4E063D340C35C0868D840704700BF45
:10351C0000380240F8EA000810000020084B4FF475
:10352C0060529B6892FAA2F2B2FA82F205480649FE
:10353C0003F46053D340C35C0868D840704700BFA5
:10354C0000380240F8EA0008100000201F222F4B20
:10355C0002601A6851034BD5052343602B4B2B4952
:10356C001B684FF4F85213F0010318BF0123C3601A
:10357C004B6892FAA2F2B2FA82F203F4F853D340F7
:10358C0003610B68214913F4807318BF0123836115
:10359C004FF07F424B6892FAA2F2B2FA82F203F039
:1035AC007F43D340C3614B6803F4604303624B6BAE
:1035BC005A0524D505238360144B5B6B13F0010370
:1035CC0018BF01234361114B1B68DB014CBF022365
:1035DC00012343620D4B9A6802F4803282629A682E
:1035EC0002F47012C2629B6803F4400303637047D9
:1035FC001B6813F4803318BF01234360AEE74B6B99
:10360C0013F4807318BF01238360D5E700380240A0
:10361C0003689B074CD02DE9F0435E4B83B05A6A8C
:10362C00D10022D55C4B00251A680446D2052BD557
:10363C00584A6168136801F0C04003F0C0438342EC
:10364C007ED001F44032B2F5403F524B32D05B6B2E
:10365C0013F4403335D14F494B6B1A434A63002D59
:10366C0066D1002003B0BDE8F0835A6A012542F010
:10367C0080525A625B6A044603F080530193019BAB
:10368C00454B1A68D205D3D41A681E4642F4807290
:10369C001A60FDF73FFD07463368DB05C8D4FDF71C
:1036AC0039FDC01B6428F7D9032003B0BDE8F083B3
:1036BC00002070471E68B7034FD45B6B13F4403384
:1036CC002DD0934202D02068C60707D4A06800F41E
:1036DC00403098421ED0236898071BD52D4E4FF4CE
:1036EC000003716B21F4403793FAA3F2B2FA82F221
:1036FC002A484FF0010E40F822E093FAA3F3B3FAF4
:10370C0083F3002240F82320CA05776327D461682D
:10371C0001F44032B2F5403F9DD101F0C0401D494B
:10372C004FF440320B6823F0C0431843086092E713
:10373C004B6A002023F080534B6203B0BDE8F0834A
:10374C00A66806F0C046B3427FF47BAF536B01F41E
:10375C00403213F44033B4D1DCE7012082E7FDF7AB
:10376C00D9FC41F2883780464FF4007999FAA9F3D5
:10377C00726B99FAA9F3B3FA83F303F01F0322FADD
:10378C0003F3DB07C3D4FDF7C5FCC8EB0000B8425C
:10379C00ECD989E7003802400070004080064742AF
:1037AC002DE9F843037F012B58D0054603681746D3
:1037BC0088465322CA210124022068772C7759624B
:1037CC005A629A6851050DD5FDF7A4FC044605E034
:1037DC00FDF7A0FC001BB0F57A7F4BD82B68DA689C
:1037EC005207F5D49A6822F480629A60DA68D2B2F1
:1037FC0062F49062DA60FDF78DFC814606E0FDF71D
:10380C0089FCC9EB0000B0F57A7F2AD82E68F368E2
:10381C0013F00404F3D0C6F81480B2681A4B22F0EB
:10382C000702B260B268FF211743B7601A6800271D
:10383C0042F480121A609A68012442F480129A6051
:10384C00B368384643F48043B360B36843F4806391
:10385C00B36071626C772F77BDE8F8830220BDE806
:10386C00F8832A680323FF21516218462C776B7763
:10387C00BDE8F88329680323FF200022486218461C
:10388C006B772A77BDE8F88300040140036810B514
:10389C00DB6804465B0507D501F0EAFA2268D368B9
:1038AC00DBB263F49063D360034A4FF480110123BD
:1038BC005161637710BD00BF0004014010B503686F
:1038CC0084B0596802464C0605D59968C90702D5DB
:1038DC0099684C064ED55968090638D4596888063B
:1038EC0033D59968C90606D5516D6FF0100041F0BB
:1038FC0002015165986099688C060AD5516D41F0AA
:10390C000101516599680191196821F04001196014
:10391C000199996848060CD592F85110122908D0D3
:10392C00516D41F004015165D96802919968029179
:10393C0002999968C90506D5516D41F00801516588
:10394C00996803910399516D41B904B010BD996800
:10395C008C07C3D5D36C10469847F6E759680124F9
:10396C0021F0E0015960104682F8514009F016F838
:10397C0004B010BD836C9847E7E700BF2DE9F04712
:10398C0082460668C0683469DAF8085024F440545A
:10399C0020433061DAF81010F368DAF81420DAF802
:1039AC001C00294323F416430A43024323F00C035F
:1039BC001343F3607269DAF8183022F4407213433F
:1039CC00B0F5004F7361AD4B5CD09E4200F0B780F8
:1039DC00FFF78CFDDAF8045000EB800000EB800060
:1039EC00AD00B0FBF5F5FFF781FDA54F00EB8000B6
:1039FC00A7FB0535DAF8043000EB80009C00B0FB27
:103A0C00F4F4FFF773FDDAF8043000EB80009B0050
:103A1C0000EB8000B0FBF3F0A7FB00304FF0640824
:103A2C00400908FB1044FFF761FDDAF8041000EBC5
:103A3C0080008A0000EB8000B0FBF2F9FFF756FD26
:103A4C00DAF8042000EB8000920000EB8000B0FB61
:103A5C00F2F0A7FB003024013234A7FB04344009F8
:103A6C0008FB10926D0964092D0104F0F004120199
:103A7C003232A7FB0223C3F343131C442544B56025
:103A8C00BDE8F0879E4200F0AA80FFF72FFDDAF820
:103A9C00045000EB800000EB80006D00B0FBF5F5EE
:103AAC00FFF724FD764F00EB8000A7FB0535DAF815
:103ABC00043000EB80005C00B0FBF4F4FFF716FD63
:103ACC00DAF8042000EB8000530000EB8000B0FB20
:103ADC00F3F3A7FB03234FF064085B0908FB1344C3
:103AEC00FFF704FDE4003234A7FB0434DAF80430A9
:103AFC0000EB80005A0000EB8000B0FBF2F9FFF7FE
:103B0C00F5FCDAF8042000EB8000520000EB80009A
:103B1C00B0FBF2F0A7FB00326D0924092D0104F46F
:103B2C00F874520908FB1292D2003232A7FB02231E
:103B3C00C3F342132B441C44B460BDE8F087FFF779
:103B4C00EDFCDAF8045000EB800000EB8000AD00D7
:103B5C00B0FBF5F5FFF7E2FC494F00EB8000A7FB4B
:103B6C000535DAF8043000EB80009C00B0FBF4F46F
:103B7C00FFF7D4FCDAF8042000EB8000930000EB94
:103B8C008000B0FBF3F3A7FB03234FF064085B0941
:103B9C0008FB1344FFF7C2FC24013234A7FB0434A6
:103BAC00DAF8043000EB80009A0000EB8000B0FBE8
:103BBC00F2F9FFF7B3FCDAF8042000EB8000920076
:103BCC0000EB8000B0FBF2F0A7FB00326D0964093A
:103BDC0052092D0104F0F00408FB129247E7FFF79D
:103BEC009DFCDAF8045000EB800000EB80006D00C7
:103BFC00B0FBF5F5FFF792FC214F00EB8000A7FB23
:103C0C000535DAF8043000EB80005C00B0FBF4F40E
:103C1C00FFF784FCDAF8042000EB8000530000EB83
:103C2C008000B0FBF3F3A7FB03234FF064085B09A0
:103C3C0008FB1344FFF772FCE4003234A7FB043496
:103C4C00DAF8043000EB80005A0000EB8000B0FB87
:103C5C00F2F9FFF763FCDAF8043000EB800000EBBC
:103C6C0080005B00B0FBF3F3A7FB03236D09240971
:103C7C002D0104F4F8745A0954E700BF00380140D0
:103C8C001F85EB5150B338B590F83930044603F02A
:103C9C00FF02F3B12268022384F83930D36820463E
:103CAC0023F40053D360FFF769FE236800211A69DF
:103CBC00012522F490421A615A69084622F02A0220
:103CCC005A61DA6842F40052DA60E16384F83950E0
:103CDC0038BD80F8382009F0D1F9DBE701207047B6
:103CEC00B0B138B505460368022280F83920DA688D
:103CFC00002422F40052DA60DC601C615C6109F083
:103D0C00D3F9EC6385F8384085F83940204638BD46
:103D1C000120704790F83930DBB2012B03D0222BF5
:103D2C0001D00220704701B3FAB190F83830012B62
:103D3C00F7D0002310B4C36390F839300162222B02
:103D4C0001680CBF3223122380F839308284C2847C
:103D5C00CA680124002342F0800280F8384080F8C1
:103D6C00383010BC1846CA6070470120704700BF3D
:103D7C0090F83930DBB2012B03D0122B01D002208A
:103D8C00704749B342B390F83830012BF7D0002379
:103D9C0010B4C36390F839308285122BC28508BFEA
:103DAC003223026818BF222380F839308162D1682F
:103DBC000023012441F4807180F8384080F83830B9
:103DCC00D1605169184641F001035361D36810BCAE
:103DDC0043F02003D360704701207047704700BF49
:103DEC00036810B51A680446D00782B0D96801D5AB
:103DFC00CA055AD419685A69880702F0010240D5DD
:103E0C00002A45D0E26B42F00402E2631A685107C3
:103E1C0050D5E26B42F00202E2631A6812073FD4FB
:103E2C001A68D968900601D58A0665D41A68D968CB
:103E3C00100601D5090641D41A68D968520610D566
:103E4C0048060ED5DA68204622F04002DA6094F873
:103E5C003930322B0CBF2223012384F8393009F07E
:103E6C0039F9E36B5BB12368012219682046019193
:103E7C005B680193019B84F83920FFF7AFFF02B018
:103E8C0010BD1968480706D5002AC2D11A68C7E7C1
:103E9C0019684907FAD419680907C1D5002ABFD097
:103EAC00E26B42F00802E263BAE7E26B42F0010215
:103EBC00E2639FE71A681207F2D4B1E794F839204D
:103ECC0002F0DF02122AB7D1A268B2F5805F226A33
:103EDC004DD0511C216212785A60E28C013A92B298
:103EEC00E284002AA8D1DA6822F08002DA60DA686B
:103EFC0042F04002DA609FE794F8392002F0EF02BA
:103F0C00222A93D1A268B2F5805F26D02269002ABA
:103F1C0036D1A26A5B68511CA16213702368E28DD2
:103F2C00013A92B2E285002A80D1DA6822F02002AE
:103F3C00DA6094F83920322A2BD0DA68012122F485
:103F4C008072DA605A6922F001025A6184F83910E1
:103F5C00204609F0D5F8236868E72169A26AE1B91F
:103F6C005968C1F3080122F8021BA262D7E7118835
:103F7C002069C1F308015960A8B902322262ACE78A
:103F8C005B68A26A03F07F03511CA1621370236863
:103F9C00C5E7122384F83930DAE75968C9B222F838
:103FAC00011BA262BBE70132226296E7044B00219F
:103FBC0003F1780243F8041F9342FBD1704700BF12
:103FCC0014000020F0B5EFF3148515F080051CD01B
:103FDC0072B60127124E002402E001341E2C18D0B8
:103FEC0056F8045F002DF8D1DFF838E004EB4406F6
:103FFC000EEB86064EF82430B067A6F87C10C6F897
:10400C00802027B162B62846F0BD2F46E2E738463D
:10401C00F0BD17B162B60220F0BD0220F0BD00BFAA
:10402C0014000020180000202DE9F843154D4FF026
:10403C0000090746C84605F17C0405F5F27602E056
:10404C000C34B44217D055F8043FBB42F8D1206869
:10405C0018B1A268A18800F0DDFFEFF3148313F010
:10406C0080030AD072B64FF00109C5F8008062B621
:10407C000C34B442E7D1BDE8F8832B60B9F1000FE2
:10408C00DED0F4E7140000202DE9F047164D4FF078
:10409C00000A80460F46D14605F17C0405F5F27600
:1040AC0002E00C34B44217D055F8043FBB42F8D1AF
:1040BC00206818B1A268414600F0ACFFEFF31483FE
:1040CC0013F080030AD072B64FF0010AC5F80090C5
:1040DC0062B60C34B442E7D1BDE8F0872B60BAF17C
:1040EC00000FDED0F4E700BF1400002070B4EFF333
:1040FC00148313F0800601D072B60126094D0A4ACA
:10410C00002302E001331E2B06D052F8044F8442E8
:10411C00F8D145F82310F2E706B162B670BC002066
:10412C00704700BF180000201400002000231A461E
:10413C0010B4054C1801013321180A2B22504A6087
:10414C008A60F7D110BC7047F8010020F0B5EFF38E
:10415C00148313F0800501D072B60125094F002499
:10416C0007EB04135E68013403F1040E26B10A2C2C
:10417C00F6D105B162B6F0BD19601A73CEF8000025
:10418C009860F6E7F80100202DE9F041EFF3148C6C
:10419C001CF0800C02D072B64FF0010C174D0023AE
:1041AC00AE461E46984611E06EB12F590EEB000438
:1041BC004EF800709068A06050686060107BC0B2D0
:1041CC002073C2F8048001330A2B0FD01C012A196A
:1041DC005768981B57B12F5900018F42E4D1013316
:1041EC0001360A2BF6B2C2F80480EFD1BCF1000FF5
:1041FC0002D062B6BDE8F081BDE8F081F801002084
:10420C0038B50F4D6B68D3B10024234606E01B680C
:10421C00984701342301EA18526882B12B449A68FA
:10422C00013A9A609A68002AF3D159689960197B0F
:10423C000029ECD01868114600F0ECFEE9E738BD17
:10424C00F8010020064B002203F190019A80DA80DD
:10425C001A601A815A810C338B42F7D1704700BF18
:10426C00980200200023F0B41D461A4FFC58194E3A
:10427C00844203F10C0328D03CB1902B05F10105CD
:10428C00F4D101242046F0BC7047EFF3148313F0F3
:10429C0080030DD072B605EB4505AD007319705156
:1042AC0019815A819A80DA8062B62046F0BC704738
:1042BC001C4605EB4505AD0073197051198120465C
:1042CC00F0BC5A819A80DA80704703242046F0BCF7
:1042DC00704700BF980200200022134630B40A4CED
:1042EC00A158094D884202F10C0205D001330C2B68
:1042FC00F6D1012030BC704703EB430300229B0036
:10430C001046EA5030BC7047980200200022F8B5E5
:10431C0013461D4EB4581C4DA14202F10C0204D0A0
:10432C0001330C2BF6D10120F8BD5C00E21805EB33
:10433C008205EA88C2B123449B001E44013AB4882A
:10434C0097B2BC42DFF840E010D00C460146EFF3C8
:10435C00148212F080050BD1328902FB074000F069
:10436C005DFF2846F780F8BD6A89E4E70220F8BDB6
:10437C0072B65EF80300328902FB070000F04EFFB4
:10438C00F78062B60020F8BD9802002000231A4680
:10439C002DE9F0412B4DEC582A4EA14203F10C03B0
:1043AC0005D001320C2AF6D10120BDE8F0814FEA8C
:1043BC00420E0EEB02039B0006EB030CBCF80480D0
:1043CC00BCF8067047451BD0EFF3148717F0800735
:1043DC0019D072B6BCF80410F45829BB01267244EB
:1043EC0005EB82056B892A89013B9BB202FB0341D9
:1043FC00AB8000F013FF06B162B60020BDE8F0817F
:10440C000220BDE8F081B8F1000F18D0BCF80820EC
:10441C0008F1FF36B6B202FB0611ACF8046000F0EE
:10442C00FDFE3846BDE8F0814B1EBCF808209BB25F
:10443C0003FB0241ACF8043000F0F0FEDCE746462A
:10444C00CDE700BF980200200022134630B4184D6F
:10445C00A958174C884202F10C0205D001330C2BE1
:10446C00F6D1012030BC704703EB430304EB83030C
:10447C009988DA888A420ED0EFF3148212F0800009
:10448C000CD072B69A8802B95A89013A9A8062B6EF
:10449C00002030BC7047022030BC704719B130BCD2
:1044AC000139998070475A890846013A9A80D9E7B0
:1044BC00980200200022F8B513461D4DAC581C4E36
:1044CC00A14202F10C0204D001330C2BF6D10120D5
:1044DC00F8BD5F00F918890006EB010EBEF8042048
:1044EC00BEF806C0944518D0EFF3148C1CF0800C69
:1044FC001CD072B6BEF80420745801267AB1013A69
:10450C00D1B23B4405EB83052A8902FB014100F043
:10451C0085FE06B162B60020F8BD0220F8BDFA187F
:10452C0005EB8202917A0139C9B2EAE76646E5E702
:10453C00980200200022134630B4124DA958114C99
:10454C00884202F10C0204D001330C2BF6D130BCA2
:10455C007047EFF3148212060AD572B603EB4303CD
:10456C0004EB83035A899A80DA8062B630BC7047B8
:10457C0003EB430304EB83035A8930BC9A80DA8043
:10458C00704700BF980200200022134630B40C4D37
:10459C00A9580B4C884202F10C0205D001330C2BAC
:1045AC00F6D1012030BC704703EB430304EB8303CB
:1045BC009A88D88830BC101AB0FA80F0400970473D
:1045CC0098020020EFF314831B0604D4054A1378D9
:1045DC0018431070704772B6024A13781843107063
:1045EC0062B6704728030020EFF314831B0605D432
:1045FC00064A137823EA00001070704772B6034A1B
:10460C00137823EA0000107062B67047280300206C
:10461C00034B1B78184214BF01200020704700BFC9
:10462C0028030020014B1878704700BF2803002096
:10463C0003780A7802700B70704700BF704700BF98
:10464C00014B1888704700BF00000020084B9842AF
:10465C000BD9084B984208D210F8012C22F07F039A
:10466C0003F0FF0013B190B270470020704700BFF9
:10467C002C0300203C2A002042F21072F0B5224C90
:10468C00224E0027A64639463B4642F20F75328031
:10469C0015E04A1C111801F0FF017E2917D8EFF321
:1046AC00148C1CF0800F23D072B65F1C9A1A3B1826
:1046BC009BB20EF80210012762B6AB420DD8E25C39
:1046CC0012F07F0009D0120608D40029E1D1013381
:1046DC0003449BB2AB420146F1D9F0BD328880B2A3
:1046EC000133013A0344101A9BB230800021E4E7F5
:1046FC0003F1010C9A1A0CEB00039BB20EF802109A
:10470C00002FDAD0D8E700BF2C03002000000020D7
:10471C0043B2002B57DD01282DE9F0410ABF0225D9
:10472C0005462846EFF3148313F0800326D19E46EA
:10473C00DFF8A0C09CF8002012F07F0445D00027C1
:10474C003B462E4642F20E78611C12F0800F194443
:10475C0018D1A04216D8651B012D2BDDC243803821
:10476C0014440CEB06020CF807005470BEF1000F59
:10477C0018D101330CEB0300BDE8F08172B64FF099
:10478C00010ED5E78BB25E1946451F4617DC1CF8A7
:10479C00032012F07F04D7D180380CF80700BEF14B
:1047AC00000FE6D062B642F20E729642E1DD0020B6
:1047BC00BDE8F08162F07F020CF80720D6E7BEF16D
:1047CC00000FEFD1F3E70020704727462E46234613
:1047DC00E2E700BF2C030020064B984208D9064B99
:1047EC00984205D210F8013C03F07F0300F8013C1D
:1047FC00704700BF2C0300203C2A002000293CD02D
:10480C000B78F0B52D2B31D0440064B2002B36D090
:10481C0000229646002008E045EA001074B20132EE
:10482C00002C92B217DD8B5CABB1A3F13005EEB26C
:10483C00092EA3F1410704F1FF36EDD9052FA3F1A1
:10484C00370304F1FF350BD86CB20132002C43EA6C
:10485C00001092B2E7DCBEF1000F06D04042F0BD72
:10486C000028DCD0BEF1000FF8D1F0BD4B7844002D
:10487C0064B223B101229646CCE70846704718462D
:10488C00F3E700BF00283CD000293AD0F0B4002355
:10489C0002E0B3F5803F32D0C25C9CB20133002AF7
:1048AC00F7D12746002202E0B2F5803F1FD08B5C87
:1048BC0094B20132002BF7D1BC4218D3BCB11A46CA
:1048CC000139013F05E001339DB2AC424FF00002CB
:1048DC000DD911F8016F855CAE42F4D1BA4202F1E8
:1048EC00010508D00133AAB29DB2AC42F1D84FF009
:1048FC00FF30F0BC70479B1A58B2F0BC70470027D1
:10490C00D0E74FF0FF30704708B5FFF7BBFFC0434F
:10491C00C0F3C01008BD00BF61B10B7853B1984211
:10492C000DD0002301E0824207D001339BB2CA5C58
:10493C00002AF8D14FF0FF30704758B27047002072
:10494C00704700BF60B1002302E0B3F5803F06D092
:10495C00C25C99B20133002AF7D108467047002097
:10496C00704700BFC8B1C1B1037830B4B3B10023F4
:10497C0001339BB2C25CC518002AF9D10C784CB13A
:10498C0000220132C45492B28C5C01339BB2002CD5
:10499C00F7D1C51800232B7030BC70470546EDE7E6
:1049AC0040B339B3F0B5002402E0B4F5803F22D017
:1049BC000D5DA6B20134002DF7D1D2B102F1FF3E4C
:1049CC00F6B2F51A1FFA8EFEADB20EF1010E0022F0
:1049DC0004E08E5D72450655FCB208D09C18A6B258
:1049EC00AA42D4B204F1010702F10102F1D1002371
:1049FC000355F0BD70470026002ADFD1F9E700BF50
:104A0C0008B100230370704709282DE9F04105D93E
:104A1C00632825D80A224FF0020C02E000224FF046
:104A2C00010C0CF1FF3EDFF8D4805FFA8EFE4D1EB8
:104A3C0000235C1C9E45E3B24AD0B0FBF2F4A8FB09
:104A4C0002769C4504F1300702FB140005F8017F47
:104A5C004FEAD602EDD1002301F80C30BDE8F0810D
:104A6C00B0F57A7F1AD342F20F7398421AD91A4BC7
:104A7C0098421CD9194B98421ED9194B98421FD9F0
:104A8C00184B984220D9184C0133A042174A9ABFB0
:104A9C004FF0090C1A464FF00A0CC2E764224FF093
:104AAC00030CBEE74FF47A724FF0040CB9E742F2F4
:104ABC0010724FF0050CB4E70D4A4FF0060CB0E73E
:104ACC000C4A4FF0070CACE70B4A4FF0080CA8E768
:104ADC00303001F80E00BEE79F8601003F420F0008
:104AEC007F969800FFE0F505FFC99A3B00CA9A3BF8
:104AFC00A086010040420F0080969800CDCCCCCC13
:104B0C00021E01DBFFF780BF2D2301F8013B504251
:104B1C00FFF77ABF400010F0FF0070B418BF0024FC
:104B2C0013D00138C0B28300DBB221FA03F303F0D7
:104B3C000F03092B10D803F13006651C03B90CB117
:104B4C001655ECB20028ECD114B9302313700124A3
:104B5C000023135570BC70473733651C1355ECB2EA
:104B6C000028DED1F0E700BFF0B4044688B3002380
:104B7C0003E00133B3F5803F29D0E25C002AF8D181
:104B8C0043F306035B0022782D2A1BD01AB30021B5
:104B9C000F46002008E002EB46006BB20131002BFF
:104BAC0089B20BDD625C4AB1303AD5B2092D00EB0B
:104BBC00800603F1FF35EED90028EFD007B1404253
:104BCC00F0BC7047627832B101210F46E1E7002357
:104BDC00D9E7F0BC70471046F2E700BF70B1002374
:104BEC0002E0B3F5803F09D0C25C99B20133002AD0
:104BFC00F7D119B101460420FFF700BE0020704721
:104C0C0090B108B5002303E00133B3F5803F0CD01D
:104C1C00C25C002AF8D15BB2002B08DD01460120F2
:104C2C00FFF7ECFD40B208BD7047002008BD1046F0
:104C3C0008BD00BFD9B130B4002302E0B3F5803F0A
:104C4C0018D0CA5C9CB20133002AF7D184420AD92D
:104C5C0003461A1ACD5C01339BB292B29C428D541E
:104C6C00F7D1221A92B200238B5430BC7047002328
:104C7C004B547047002200238B5430BC704700BF4C
:104C8C00C1B110B4002302E0B3F5803F10D0CC5C6E
:104C9C009AB20133002CF7D113189BB20AB907E072
:104CAC008C5C013A581E92B2CC5483B2002AF7D1D4
:104CBC0010BC7047704700BF002A5AD02DE9F8434A
:104CCC000D46174698460446FBF784FE0646FBF74E
:104CDC0081FB02460B4620462946FBF72DFA05467A
:104CEC000C4630463946FFF70BFF2846214600227A
:104CFC000023FBF747FEB0BBB8F1000F31D03B7877
:104D0C001BB117F8013F002BFBD1B9462E2309F834
:104D1C00013B4E4608F1FF385FFA88F808F10203B0
:104D2C001F440022134B28462146FBF7B9FB0D46C6
:104D3C000446FBF777FE00F00F0000F1300306F895
:104D4C00013BFBF747FB02460B4620462946FBF787
:104D5C00F3F9BE4205460C46E3D1C844002388F85B
:104D6C000130BDE8F88304F10044B8F1000FC6D15E
:104D7C00F7E7704700002440D8B1F0B4D3B91C4613
:104D8C0002E0B4F5803F17D0055DA3B207190134DA
:104D9C00002DF6D183B1054615F8016B2C1A8E4205
:104DAC00A4B208BF05F8012C9C42F5D300233B703C
:104DBC00F0BC7047C718EEE7074600233B70F0BC09
:104DCC00F7E700BF704700BF10B440F21A64044B01
:104DDC000449052283E81600184610BCFDF72CBECA
:104DEC003C2A0020003000400148FDF749BE00BFBE
:104DFC003C2A002070B5184B184D90B045F80C3F6C
:104E0C00FDF746FE0C23002401260DEB0300039353
:104E1C000C9408940596FDF7D3FE4FF48033684646
:104E2C0001930096FEF7F4FB4FF4800393FAA3F37F
:104E3C00B3FA83F30A49224641F8236003200F2179
:104E4C00FCF7F8FC0320FCF72DFD224628460F2129
:104E5C00FEF7A6FC10B070BD002800403C2A0020D4
:104E6C00800647420148FEF711BD00BF482A0020CA
:104E7C0000F0FAB8054BDB6A1A69D20700D4704708
:104E8C006FF001021A6100F0EFB800BF3C2A00205D
:104E9C0008B5FFF7AFFFBDE80840FDF743BE00BF04
:104EAC00EFF314831B0602D4034B5860704772B6A1
:104EBC00014B586062B67047A02A002038B5002319
:104ECC0019460F4AD1500C33B42BFBD10023194691
:104EDC000C4AD1500C33B3F5967F0B4C4FF00005B8
:104EEC00F7D1FFF7D5FF65602560FFF7A7FBFFF74C
:104EFC00A9F9FFF71BF9BDE83840FFF757B800BF19
:104F0C00A82A00205C2B0020A02A0020114D80B57F
:104F1C002E4672B695F8E83195F8E91103EB430289
:104F2C00994206EB820203F101040BD00D2B94BFC6
:104F3C00E3B2002397681169908985F8E83162B66D
:104F4C00B847E6E762B67368002BE2D073689847FF
:104F5C00DFE700BFA02A002008B5FFF735FFFEE70A
:104F6C00044B93F8E80193F8E931C01AB0FA80F0D9
:104F7C0040097047A02A0020074A92F8E83192F8BD
:104F8C00E901984202D21B1AD8B2704703F10F0202
:104F9C00101AC0B2704700BFA02A0020F0B4EFF383
:104FAC001484240619D572B6194D95F8EA41182CBB
:104FBC002BD804EB440605EB860605EB840701347D
:104FCC00C6F8BC00A6F8C010C6F8C420C7F8EC316F
:104FDC0085F8EA4162B6F0BC70470D4D95F8EA4190
:104FEC00182CF8D804EB440605EB860605EB840771
:104FFC000134C6F8BC00A6F8C010C6F8C420C7F827
:10500C00EC3185F8EA41F0BC704762B6F0BC7047F1
:10501C00A02A0020F8B5EFF3148313F0800401D01C
:10502C0072B601240F4E96F8E93196F8E8710D2B03
:10503C009ABF5D1CEDB20025AF420A4E0BD003EBBC
:10504C00430306EB8303986099811A6186F8E95152
:10505C0004B162B6F8BD0523FFF7A0FF002CF8D110
:10506C00F8E700BFA02A00202DE9F041294EFFF7F8
:10507C00C7F8374696F8EA210024944206EB8405DB
:10508C0004F101010ED2D5F8EC31012B03F1FF3301
:10509C0017D0CCB29442C5F8EC3104F1010106EB07
:1050AC008405F0D333681B490133336033687F2B9D
:1050BC0005D9194A00201368086001331360BDE854
:1050CC00F08104EB440807EB8808D8F8C420B8F842
:1050DC00C010D8F8BC00FFF79DFF97F8EA21013A01
:1050EC00D2B202EB420107EB810107EB8203D1F84C
:1050FC00BC00B1F8C0E0D3F8EC31D1F8C41087F89B
:10510C00EA21C8F8BC00A8F8C0E0C8F8C410C5F87B
:10511C00EC31B2E7A02A0020F02C00202DE9F04160
:10512C00DFF8E0E09EF8EA81B8F1000F40D008F11A
:10513C00FF3C5FFA8CFC0CF1010606EB46060EF107
:10514C00BC0303EB8606002404E00C339E4204F1FE
:10515C0001042FD01D68E7B2A842F6D19D68AA427F
:10516C00F3D19D888D42F0D1B84521D9EFF314834A
:10517C001B0621D40CEB4C020EEB82020EEB8C03C3
:10518C00D3F8EC51D2F8BC0004EB4403B2F8C010D5
:10519C00D2F8C4200EEB83030EEB84048EF8EAC124
:1051AC00C4F8EC51C3F8BC00A3F8C010C3F8C42079
:1051BC00BDE8F081BDE8F08172B69EF8EA3104EBEF
:1051CC004402013BDBB203EB43010EEB81010EEB1E
:1051DC008300D0F8EC61D1F8BC50B1F8C000D1F824
:1051EC00C4100EEB82020EEB84048EF8EA31C4F884
:1051FC00EC61C2F8BC50A2F8C000C2F8C41062B690
:10520C00BDE8F081A02A0020034B93F8EA01C0F11D
:10521C001900C0B2704700BFA02A0020F0B402F001
:10522C00030592080FD00446013A96B201EB8607AB
:10523C000B1F53F8042FBB4244F8042BF9D1731CF9
:10524C009B00184419444DB16A1E92B20A440139AC
:10525C0011F8013F914200F8013BF9D1F0BC7047C5
:10526C00034B186818B118681A688242FBD1704752
:10527C00F02C0020094A106878B1136811688B4231
:10528C00FBD10748A0FB03235B09A0FB03204009CB
:10529C00C0EB0010A3EB8000C0B27047F02C0020D4
:1052AC00898888880E4A136883B1136811688B4209
:1052BC00FBD10C490C4AA1FB0313DB0AA2FB031222
:1052CC00120902EB4202A3EBC203DBB2074A1078CD
:1052DC000344D8B2172884BF1838C0B2704700BF37
:1052EC00F02C0020C5B3A291ABAAAAAA0200002000
:1052FC00084A136853B1136811688B42FBD10648F6
:10530C00A0FB0330C00D00F2B270704740F2B270D7
:10531C00704700BFF02C00207BA418442A4A70B4BC
:10532C00136813B3116813689942FBD140F26D16E0
:10533C0040F2B470254B264CA3FB01231B0CA3FBA2
:10534C000445244C5A1BA4FB014105EB5202120AE2
:10535C0006FB1233C90D01F2B27181429BB204D922
:10536C00A1F2B471A3EBA1039BB21B4C00211F2231
:10537C0001E014F8012F92B29A42CDB2A3EB0200D5
:10538C0001F101010DD20C2983B2F2D103F01F03FC
:10539C004FF45060114A02211170184380B270BC56
:1053AC007047681C033D062D03F01F03C0B208D8DC
:1053BC000A4A0002032100B21170184380B270BC7B
:1053CC007047000200B2E5E7F02C002007452EC222
:1053DC0061F319677BA4184434E70008020000202D
:1053EC00044B1A68904203D018601A688242FBD1B1
:1053FC00704700BFF02C002040F26D1C40F2B472DC
:10540C002DE9F0433C4C3D4DA4FB0134260CA6FB8E
:10541C0005893B4B3B4FA3FB013EA7FB0135C9EB79
:10542C00060409EB54046D09240AA7FB05370CFB91
:10543C001464354B354E4FEADE2EA6FB016CA3FBF4
:10544C000E834FEADC5C1B090CF2B27C03EB4303CA
:10545C00AEEBC30394454FEA57175FFA83FEC7EBD5
:10546C00071788BFACF2B473A5EB87078CBFC3F3E7
:10547C008F030023C5EB0515A4B2E41AA1EB85013B
:10548C00FFB2C9B2224EA4B200221F2301E016F8CB
:10549C00013F9BB2A3425FFA82F8A4EB030502F131
:1054AC00010216D20C2AACB2F1D104F01F044FF455
:1054BC005063184A022515701C43C4F30723C470AB
:1054CC0003710170477080F802E0A0F806C0BDE8D7
:1054DC00F08308F10103A8F10308B8F1060F04F0FA
:1054EC001F04DBB205D80B4A1B0203251BB2157037
:1054FC00E2E71B021BB2DCE707452EC261F319671A
:10550C00C5B3A29189888888ABAAAAAA7BA418449F
:10551C0034E700080200002010B4154C23881BB39C
:10552C001AB29342FDD140F6E44202FB03F3114A56
:10553C004FF47A71A2FB03029B1A02EB5302D20ABC
:10554C006FF411731A4401FB02F20B4BD01783FB5F
:10555C0002131A44C0EBA22290B294F9023010BC90
:10556C006E33184400B270474FF67860F5E700BF11
:10557C00F42C002001011000B9D31FB140F6E44215
:10558C004FF6F8700649074B898802FB01F2A3FB22
:10559C000213D21A03EB52031B0A1840704700BFC8
:1055AC00F42C00200101100010B5194C23885BB3BA
:1055BC001AB29342FDD140F6E44202FB03F3154AC2
:1055CC004FF47A71A2FB03E29B1A02EB5302D20A4C
:1055DC006FF411731A4401FB02F201F1314101F530
:1055EC00FE1101F6D17181FB02E1D3170A44C3EB22
:1055FC00A22293B294F9022002F16E010B441BB269
:10560C00C01A0244A27010BD4FF67863F2E700BFD7
:10561C00F42C002001011000194B30B5DA6995B05B
:10562C0042F00402DA61DA6907A802F0040200927F
:10563C00009A1A6A012442F400721A621B6A00254D
:10564C0003F400730193019BFDF780FF02221023EA
:10565C0007A807920B930A94FDF7B2FA032302A949
:10566C000848039302940495FCF778F92A462946D6
:10567C001220FCF7DFF81220FCF714F915B030BD3E
:10568C00003802400008024008B5094B09485A6925
:10569C00012142F400725A615A6922F400725A6173
:1056AC00FCF754FABDE808401220FCF707B900BF1C
:1056BC000038024000080240F0B5204B204900227F
:1056CC0085B04FF400374FF4806602251024196022
:1056DC00184601215F605E619D625C639A60DA60CE
:1056EC009A61DA611A625A629A63DA631961D96251
:1056FC001963FBF715FDE8B90A240122052301A95A
:10570C000E48019402920393FBF776FE78B91022AF
:10571C00022301A9094801920293FBF76DFE08B11F
:10572C00FFF750FB2020FEF74DFF05B0F0BDFFF753
:10573C0049FBECE7FFF746FBDEE700BFB83F002074
:10574C000024014010B5084C084B002220469A80DA
:10575C001A809A71FBF716FF2046FBF753FFBDE842
:10576C0010402020FEF72EBFB83F0020F42C002064
:10577C0010B5074C2046FCF729F82046FBF784FFB0
:10578C002020FEF731FF2046BDE81040FBF79EBFFE
:10579C00B83F00200148FBF79BBD00BFB83F00207D
:1057AC0010B5124CA379D3B1012B08D02020FEF7F1
:1057BC002FFF78B9A071BDE81040FFF7D9BF0C4896
:1057CC00FBF780FD002320802020A371FEF720FF33
:1057DC000028EFD0BDE810400548FBF713BF044884
:1057EC00FBF770FD0123A080A371DFE7F42C0020F0
:1057FC00B83F002008B5FBF7C3FE022800D008BD57
:10580C00044A937913B90023937108BD012BFAD084
:10581C0008BD00BFF42C002008B5FFF721FD014B9B
:10582C00186008BDFC2C0020012202494FF4F050F6
:10583C00FEF78CBC7D5D000870B50E46ACB0002840
:10584C0000F02A81012840F09380984C01A8FFF7C2
:10585C00D7F8FFF793FE01A9FFF7D6F801A9201D91
:10586C00FFF780F89249201DFFF77CF801A8FFF79D
:10587C00C7F8FFF751FE01A980B2FFF741F901A962
:10588C00201DFFF76FF8201D8949FFF76BF8211DCC
:10589C004FF4706007F030F801A8FFF7B1F8FFF78C
:1058AC00DFFC2568834B451BA3FB053001A9C0F326
:1058BC00CF20FFF7A9F801A9201DFFF753F87E4967
:1058CC00201DFFF74FF801A8FFF79AF87B4B01A9B1
:1058DC00A3FB05204009A3FB00235B09C3EB0313C7
:1058EC00A0EB8300FFF790F801A9201DFFF73AF811
:1058FC00201D6F49FFF736F8201DFFF723F83628D7
:10590C002FD801A8FFF77CF8FFF736FB01A9FFF7AA
:10591C007BF801A9201DFFF725F86749201DFFF72B
:10592C0021F801A8FFF76CF8FFF76EFC01A9FFF74F
:10593C006BF801A9201DFFF715F85F49201DFFF733
:10594C0011F801A8FFF75CF8FEF77AFE01A9FFF742
:10595C005BF801A9201DFFF705F8201D5449FFF73E
:10596C0001F8324602215648FFF754FB2CB070BDAB
:10597C00FFF7FEFE01A807F05FFC012803D001A988
:10598C00002006F0B9FF01A807F0C0FC012803D0E5
:10599C0001A9002006F0B0FF01A807F043FD012883
:1059AC0003D001A9002006F0A7FF01A807F0C8FD4D
:1059BC00012803D001A9002006F09EFF01A807F0E2
:1059CC0033FE012803D001A9002006F095FF002426
:1059DC00E0B201A907F09CFE013420B901A906F040
:1059EC008BFF0D2CF4D10024E0B201A907F078FF55
:1059FC00013420B901A906F07FFF0D2CF4D100244D
:105A0C00E0B201A908F054F8013420B901A906F05C
:105A1C0073FF082CF4D10024E0B201A908F03CF982
:105A2C00013420B901A906F067FF082CF4D1002439
:105A3C00E0B201A908F024FA013420B901A906F05A
:105A4C005BFF0D2CF4D10024E0B201A908F0CAFAD6
:105A5C00013420B901A906F04FFF0D2CF4D100241C
:105A6C00E0B201A908F070FB013420B901A906F0DD
:105A7C0043FF0D2CF4D10024E0B201A908F03AFC4C
:105A8C00013420B901A906F037FF0D2CF4D10C48D4
:105A9C00FEF7CAFA2CB070BDFFF754FE32468023D5
:105AAC0001210748FFF77AFA2CB070BDFC2C0020BE
:105ABC0000EB0008C5B3A29104EB00088988888824
:105ACC004558000810B50B4CFFF752FE94F84530C2
