:020000040800F2
:10000000D80700206D01000875010008770100087D
:10001000790100087B0100087D0100080000000054
:100020000000000000000000000000007F01000848
:10003000810100080000000083010008850100081C
:100040008701000887010008870100088701000870
:100050008701000887010008870100088701000860
:100060008701000887010008870100088701000850
:100070008701000887010008870100088701000840
:100080008701000887010008870100088701000830
:100090008701000887010008870100088701000820
:1000A0008701000887010008870100088701000810
:1000B0005B09000869090008790900088701000840
:1000C00087010008870100088701000887010008F0
:1000D000870100083D0B00089D0B0008FD0B000880
:1000E00087010008870100088701000887010008D0
:1000F00087010008870100088701000887010008C0
:1001000087010008870100088701000887010008AF
:10011000870100088701000887010008870100089F
:10012000870100088701000887010008870100088F
:10013000DFF80CD000F02CF800480047D911000877
:10014000D8070020D0F800D04068004772B60346B8
:1001500091F800A083F800A001F1010103F101036F
:10016000521EF5D2D0F800D04068004706488047BC
:1001700006480047FEE7FEE7FEE7FEE7FEE7FEE78C
:10018000FEE7FEE7FEE7FEE753090008310100083D
:10019000064C074D06E0E06840F0010394E80700D4
:1001A00098471034AC42F6D3FFF7C6FFEC170008AF
:1001B0000C18000802460020126803E08B4205D0AC
:1001C000401CC0B2135C002BF8D1002070472DE911
:1001D000F047002491468846824625462646274613
:1001E0001FE017F0030006D0012809D002280DD027
:1001F000032813D11CE05046FFF7DCFF04020DE09A
:100200005046FFF7D7FF44EA801404E05046FFF75A
:10021000D1FF44EA001409F805406D1C240A761C3D
:100220007F1C18F806100029DBD12846BDE8F087AE
:100230005046FFF7BFFF44EA8004ECE701607047D7
:1002400070B5044600F020FC051900BF00F01CFC4E
:1002500006463146284600F0B9FF0028F6D070BDAA
:1002600010B5044603E04FF47A70FFF7E9FF200071
:10027000A4F10104F7D110BD0149C8607047000026
:100280000020024070B5054640F6FF76304600F08B
:100290005DF8042813D10A4C206940F00200206167
:1002A0006561206940F040002061304600F04EF862
:1002B000012804D0216941F6FD721140216170BD11
:1002C0000020024008490420CA68D20701D001205A
:1002D0007047CA68520701D502207047C968C9062D
:1002E000FBD503207047000000200240024801694E
:1002F00041F08001016170470020024070B5064660
:100300000D460F2000F022F804280FD1084C206978
:1003100040F00100206135800F2000F017F801281F
:1003200004D0216941F6FE721140216170BD0000C8
:100330000020024003480249416003494160704780
:100340002301674500200240AB89EFCD18B5034675
:10035000FFF7B8FFFF2407E000940098401E0090CC
:10036000FBD1FFF7AFFF5B1E012803D0002B00D1AC
:10037000052018BD002BEFD1FAE70000F0B5CA78D0
:10038000002502F00F03D20601D58A7813430C78BA
:100390004FF00F0E0122E4B1D0F800400F8802FAAE
:1003A00005F63740B74210D14FEA850C0EFA0CF72C
:1003B00024EA070703FA0CF43C43CF78282F00D136
:1003C0004661CF78482F00D106616D1C082DE5D31A
:1003D00004600C88FF2C1ED94468002606F108072B
:1003E00002FA07F50F882F40AF4210D14FEA860C72
:1003F0000EFA0CF724EA070703FA0CF43C43CF7813
:10040000282F00D14561CF78482F00D10561761C97
:10041000082EE3D34460F0BD10B5234800F070F916
:10042000214880682149B0FBF1F021490870002083
:1004300001F098F91F490860012001F093F91E4965
:100440000860022001F08EF91C490860032001F0C9
:1004500089F91B490860042001F084F919490860F2
:1004600000F010FB00F0AAF9082140F2712000F022
:10047000E1F8012000F094F80A2000F091F8002043
:1004800000F08EF808214FF49C7000F0D3F80120A2
:1004900000F086F80A2000F083F8002000F080F8D1
:1004A00000F012F810BD00007000002040420F0064
:1004B0001000002014000020180000201C00002064
:1004C000200000202400002008B50121042000F0B5
:1004D0000BF903208DF8020004208DF803000120A1
:1004E000ADF8000069460248FFF748FF08BD00006C
:1004F0000008014000F01F0201219140024A430917
:1005000042F823107047000080E100E000F01F0275
:100510000121914042094FF0E02303EB8202C2F82F
:1005200000117047F0B50F22C478017801234FF015
:10053000E0253CB3184C2468467804F4E064C4F524
:10054000E064240AC4F10407E2408478BE40144009
:10055000344322018C07E70E21F003040F49BA400F
:1005600066183168FF24BC40A1432240114331602A
:10057000007800F01F018B40400905EB8000C0F8B7
:100580000031F0BD01F01F008340480905EB8000F9
:10059000C0F88031F0BD00000CED00E000E400E0A8
:1005A00001490880704700003C04004030B5034614
:1005B0000C460D480068B0FBF4F0B0FBF3F20121EB
:1005C000B2FBF1F0B0F5803F00D34900B2FBF1F08F
:1005D000B0F5803F00D34900B2FBF1F24D08104660
:1005E00065F31F4030BD0000700000202DE9FE4380
:1005F00007460C4621463846FFF7D8FF0546AEB2FF
:100600004FF4407000EA1528601E80B2ADF8040077
:10061000ADF80060ADF806800020ADF802008DF85E
:1006200008006946024800F00FFA3046BDE8FE8334
:100630000004004070B586B004460D46012102203A
:1006400000F046F81F48B0FBF4F629463046FFF7A5
:10065000CDFF6020ADF804000120ADF806000420B5
:10066000ADF808000020ADF80A00ADF80C00082035
:10067000ADF80E000020ADF81000ADF8120001A991
:10068000114800F0A3F901210F4800F093F901216E
:100690000D4800F084F90121084600F025F80121F9
:1006A000082000F021F803208DF816000120ADF895
:1006B000140018208DF8170005A90448FFF75EFE06
:1006C00006B070BD40420F0000040040000C014025
:1006D000044A0029D16901D0014300E08143D1617E
:1006E0007047000000100240044A0029916901D0BF
:1006F000014300E081439161704700000010024017
:1007000030B521494A68214B12F00C0203D0042A6B
:1007100003D0082A03D0036015E01D4A12E04A689E
:10072000022302F4701203EB92424B6813F4803FF1
:1007300004D04B689B0303D5164B02E0164B00E038
:10074000134B5A4302604A680F23144C03EA1212F7
:100750000368A25CD34043604A68072505EA122279
:10076000A25C23FA02F282604A6805EAD222A25C05
:10077000D340C3604968032202EA9131221F515CD1
:10078000B3FBF1F1016130BD0010024000127A00AC
:10079000001BB700808D5B0000093D009817000822
:1007A00010B5054800F00DFF18B1034800F0F9FE40
:1007B00010BD4FF6FF70FBE72C00002008B50320AA
:1007C0008DF8020001217C20FFF78EFF0320ADF899
:1007D000000010208DF8030069463B48FFF7CEFD6E
:1007E0000420ADF800008DF8030069463648FFF795
:1007F000C5FD0220ADF8000010208DF80300694609
:100800003248FFF7BBFD8020ADF8000010208DF8C6
:10081000030069462D48FFF7B1FD1020ADF8000038
:100820008DF8030069462848FFF7A8FD2020ADF8A1
:10083000000010208DF8030069462348FFF79EFD55
:100840004FF40000214910310860C0101E490861B2
:100850004000086100111D49103108604FF0801000
:100860000860C01018490861400008614013ADF8E5
:10087000000010208DF8030069461548FFF77EFD43
:100880004FF080701249103108602020ADF8000050
:1008900010208DF8030069460D48FFF76FFD4FF4F7
:1008A00000100B49103108601020ADF80000142032
:1008B0008DF8030069460648FFF760FD4FF480108D
:1008C00003491031086008BD0010014000080140D4
:1008D000000C014010B5044600BF0B4800F05AFE62
:1008E0000028FAD02520FFF705FE2146064800F033
:1008F0006EFE012240F22771044800F0D8F925204D
:10090000FFF704FE10BD0000340000200038014055
:1009100010B50446024A0021204600F08DFD10BDAE
:10092000D508000870B505460C4644F48051024ACB
:10093000284600F081FD70BDD508000810B50446BA
:1009400003E014F8010BFFF7C5FF20780028F8D169
:1009500010BD10B500F08CFE10BD10B50121880748
:1009600000F01AF810BD000010B50121014800F098
:1009700013F810BD0004004010B50121044800F038
:100980000BF804480068401C0249086010BD0000D4
:100990000008004008000020C94301827047002978
:1009A000018802D041F0010102E040F2FE32114024
:1009B00001807047002930F8441F02D041F4004103
:1009C00001E0C1F30E0101807047000070B5028C98
:1009D00022F480720284028C8488838B0D8823F039
:1009E00070031D4322F400730E894FF6FF7202EA72
:1009F00006261E434B8802EA03233343CE888687AC
:100A00000F4EB04202D00F4EB04215D123F4006613
:100A10004B8924F4304402EA0323334323F48066F1
:100A20008B8802EA032333438E89C98902EA0616BA
:100A3000264302EA0114344384808583038470BD15
:100A4000002C014000340140028802F08F02028035
:100A5000CA884B881A4303881A4302808A88828591
:100A60000A88028501228282044A904202D0044A06
:100A7000904201D1097A018670470000002C0140A4
:100A8000003401407047000014484068144A12685E
:100A9000811A1248006840F00100104A10601148A5
:100AA000006840F080700F4A10600F480078814263
:100AB00011D30D4A1278B1FBF2F0094A12680A4BC1
:100AC0001B7800FB0322064B1A60084A1268024496
:100AD000064B1A6000BF054800687047001000E030
:100AE0000C000020FCED00E01000002004000020BD
:100AF00008B501210420FFF7F7FD01218803FFF766
:100B0000F3FD03208DF802004FF40070ADF80000F3
:100B100018208DF8030069460748FFF72FFC4FF4B3
:100B20008060ADF8000004208DF80300694602489B
:100B3000FFF724FC08BD00000008014010B540F29A
:100B40002551134800F094F838B1114800F00EF91F
:100B5000C4B221460F4800F03AFD40F227710C481C
:100B600000F086F890B10C4800F02BFD40B10A4827
:100B700000F017FD04462146054800F0FBF805E0AB
:100B8000002240F22771024800F091F810BD0000E9
:100B9000003801402C0000203400002010B540F245
:100BA0002551134800F064F838B1114800F0DEF820
:100BB000C4B221460F4800F00AFD40F227710C48EC
:100BC00000F056F890B10C4800F0FBFC40B10A4828
:100BD00000F0E7FC04462146054800F0CBF805E0AC
:100BE000002240F22771024800F061F810BD0000B9
:100BF000004400403C0000204400002010B540F2BA
:100C00002551134800F034F838B1114800F0AEF81F
:100C1000C4B221460F4800F0DAFC40F227710C48BC
:100C200000F026F890B10C4800F0CBFC40B10A4827
:100C300000F0B7FC04462146054800F09BF805E0AB
:100C4000002240F22771024800F031F810BD000088
:100C5000004800404C0000205400002000298189F9
:100C600002D041F4005101E021F40051818170472C
:100C700030B501F01F0201240025C1F3421304FA2C
:100C800002F2012B0FD0022B0FD0838A4FEA1121E1
:100C90000088134204FA01F400EA040001D000B114
:100CA0000125284630BD8389F0E7038AEEE710B5B9
:100CB000C1F3421301F01F040121A140012B07D011
:100CC000022B07D01430002A026805D00A4304E042
:100CD0000C30F8E71030F6E78A43026010BD0000E0
:100CE00030B50446008A85B00D464CF6FF710840C9
:100CF000E98801432182A1894EF6F3100140A888BA
:100D00002A8910436A890A431043A081A08A4FF6BA
:100D1000FF410840A9890143A1826846FFF7F0FC22
:100D20001148844201D1039800E00298642200EB4C
:100D3000C00101EB001029686FF018058900B0FBB5
:100D4000F1F0B0FBF2F109010B096B4300EB8300FA
:100D5000322303EB0010B0FBF2F000F00F00084369
:100D6000208105B030BD0000003801408088C0F30C
:100D700008007047C1F308018180704770B502F028
:100D80000F0314110025012C02D0022C09D104E01C
:100D90004FF4C0644FF4805505E04FF48064A50023
:100DA00001E0002400BF00BF23B1022B05D0032BBC
:100DB00009D105E04FF4805307E04FF4005304E0FD
:100DC0004FF4405301E0002300BF00BF0160858065
:100DD000C3800481002686810C26468170BD0000F8
:100DE00070B586B004460D46FFF782FE0021174815
:100DF000FFF734FF164800F0E4FB0646314614487E
:100E000000F0B6FB2A46214601A8FFF7B7FF01A96B
:100E10000E48FFF765FF25208DF8140000208DF89F
:100E200015008DF8160001208DF8170005A8FFF7B2
:100E300079FB012240F225510448FFF738FF0121D8
:100E40000248FFF70BFF06B070BD000000380140FC
:100E50002C00002002E008C8121F08C1002AFAD1A5
:100E600070477047002001E001C1121F002AFBD12A
:100E700070470000074A00B5014612690020914200
:100E800007D200F09DF9494200EB810050F8041DA3
:100E9000401A00BD5C000020FFF7ECBF30B500F049
:100EA0008FF9001F0E4900221446CA6008E0CD6881
:100EB0009D4203D203EB82031B1DCB60001F521C1B
:100EC00003685D1C03D0202AF1D30022CC6000F01F
:100ED00077F9CB680A61C01A886090B230BD000013
:100EE0005C00002010B50024FFF7D8FF20B10348B4
:100EF00003C800F04EF90446204610BD64000020EF
:100F000010B5FFF7CBFF48B1FFF7ECFF0449896844
:100F100031F8021C884201D1012010BD002010BD13
:100F20005C00002010B5FFF7B7FF014682684068FB
:100F3000BDE810401231FFF709B910B500F009F80B
:100F4000A0F57F41FF3903D0BDE81040FFF7EABFAD
:100F500010BD30B50546FFF7A1FF04000CD00023FB
:100F600008E098B2FFF798FF8089A84201D198B2B3
:100F700030BD5B1CA342F4D34FF6FF7030BD0000C0
:100F80002DE9F0410D2809D00A2807D000213E4C58
:100F90003E4B2288502A08D211B108E00121F6E721
:100FA0009854521C2280BDE8F0810029FBD0002A11
:100FB000F9D01F7800269E549846344A591C34486C
:100FC000FFF705F985B2242F4DD02A2F02D02B2F01
:100FD00058D126E0D8F80070042D20D300F0EAF8AC
:100FE000B7EB400F1BD200F0EBF8C01B3946606036
:100FF00000F078F827A0FFF7A1FC08216068FFF750
:1010000091FC25A0FFF79AFC08213846FFF78AFCDF
:1010100022A0FFF793FC22A0FFF790FC32E066606D
:1010200030E0606870B32A46184900F07AF81DA0D5
:10103000FFF784FC08216068FFF774FC17A0FFF736
:101040007DFC002000E0401CA842FCD32846FFF7AE
:101050005FFC12A0FFF772FC11A0FFF76FFC606845
:10106000284460600EE010A0FFF768FC082160686B
:10107000FFF758FC09A0FFF761FC09A0FFF75EFC31
:1010800000F014F826808EE75C0000208403002026
:1010900000000020452000002C000000200000007F
:1010A0000D0A0000572000004620000003480021E0
:1010B0000180416002490348FFF7C0B85C0000208E
:1010C000A81700080000002010B50446FFF732F909
:1010D0003420FFF7D1F82046FFF7D4F8BDE81040E0
:1010E000FFF704B92DE9F041840AA402001B471858
:1010F0004FF0FF354FF480560FE028463246214628
:1011000008C91840521EFBD1401C02D02046FFF7F0
:10111000DBFF04F58064A7F58067002FEDDCBDE8F8
:10112000F0812DE9F0414FF47F48174604460D4603
:101130004646FFF7FFF83420FFF79EF80CE015F85D
:10114000011B300A641C40EA01267F1EE00703D120
:101150003146A01EFFF7D2F8002FF0D1E00704D0EF
:1011600048EA1621601EFFF7C9F8BDE8F041FFF715
:10117000BDB8000010B503460C46104606E000BF9F
:1011800013F8012B0146104600F007F8641EF7D251
:1011900010BD41F2AE52FFF7EDBF414081EA0110B0
:1011A000C0B2090A81EA002181EAC00181EA101077
:1011B000704700000148008880027047E0F7FF1F79
:1011C00000B5FFF7F7FF00F1006000BD0246012007
:1011D0000AB1531A980F7047FFF71EF901214FF417
:1011E000E130FFF7FDFD54A0FFF7A8FB53A0FFF788
:1011F000A5FB57A0FFF7A2FB58A0FFF79FFB5BA042
:10120000FFF79CFB5D4909888802FFF781FB4AA034
:10121000FFF794FB5AA0FFF791FB5849091D086896
:101220000821FFF77FFB2020FFF754FB5349886814
:101230000821FFF777FB2020FFF74CFB4F49C868D8
:101240000821FFF76FFB3CA0FFF778FBFFF74AFE92
:1012500007464DA0FFF772FB04213846FFF762FBFB
:1012600035A0FFF76BFBFFF74BFE07464CA0FFF7DF
:1012700065FB3846FFF74CFB2FA0FFF75FFBFFF73E
:101280000DFE06464DA0FFF759FB3046FFF740FB29
:1012900029A0FFF753FB00252EE0A8B2FFF7FCFDC5
:1012A0000446FFF7FBFD06464CA0FFF747FB08216D
:1012B0002046FFF737FB20A0FFF740FB4BA0FFF7CE
:1012C0003DFB60680821FFF72DFB1BA0FFF736FBF5
:1012D0004AA0FFF733FBA0680821FFF723FB16A005
:1012E000FFF72CFB49A0FFF729FBA089FFF710FBB4
:1012F00011A0FFF723FB6D1CB542CED3FFF700FE14
:1013000068B14648006810F0010F08D044A0FFF70C
:1013100015FB6420FEF7A4FF0020FFF70EFEFFF789
:10132000C5FE08E0FFF73CFA0446FF2C02DCE0B201
:10133000FFF726FE00BFF5E70D0A0000426F6F744D
:1013400020466C617368657220544553540D0A0041
:101350004C61747261780D0A00000000456E74756E
:1013600072652047726F75700D0A0000466C6173DC
:10137000682053697A653A2000000000E0F7FF1FFB
:101380004465766963652000426F6F74466C6173D3
:101390006820426C6F636B73204352433A20000015
:1013A000426F6F74466C617368204E6565642042BD
:1013B0006F6F7420466C61673A200000426F6F7453
:1013C000466C617368204E756D626572204F6620B1
:1013D000426C6F636B733A200000000020426C6F18
:1013E000636B20414444523A20000000202020201A
:1013F000202020616464723A200000002020202018
:1014000020202073697A653A2000000020202020E7
:10141000202020747970653A2000000008080140FF
:10142000476F20546F2053746174696320426F6F5B
:1014300074202E2E2E0D0A002DE9F04F0F4647A1E5
:101440000446D1E90005D1E9023185B0C7F3071B95
:10145000CDE900050293CDE9031207F00F0615460A
:1014600017F4405F0BD1002C09DA38044FF02D003F
:1014700002D505F8010B01E0114688476442BBF133
:10148000000F01D14FF0300B17F4405003D0B0F5EE
:10149000805F5CD131E0DFF8D4804FF00A094FF073
:1014A000300A302003E0401CC0B2A4EB0804A04581
:1014B000F9D94AEA000ABAF1300F05D1302803D130
:1014C000B9F1010F00D05846B14506D9B9F1010F65
:1014D00003D04EB9BAF1300F06D0390402D505F861
:1014E000010B01E0049988470A21B8FBF1F8A9F142
:1014F000010010F0FF09D4D129E076B9200E01D007
:1015000008260AE014F47F0F01D0062605E014F443
:101510007F4F01D0042600E00226C6F108004FEA02
:10152000800004FA00F4E8460CE000BF08EB1470F9
:101530003904007802D505F8010B01E004998847C9
:101540004FEA04143000A6F10106F6B2EED13804D9
:1015500001D50020287005B0BDE8F08F303132335E
:1015600034353637383941424344454600CA9A3B00
:1015700010B5034640680C4600280AD0184600F013
:1015800020F8A04200D204461878997820440840F8
:10159000187010BD00B5034600F013F89978081ACA
:1015A00000BD416859B1017842680A44491C017084
:1015B0001178027883781A40027008467047FF203D
:1015C0007047417802788078891A084070474268ED
:1015D000002A09D0427843681344521C42701970A3
:1015E0004178827811404170704700001A48806944
:1015F00040F00400184988610020184908604FF441
:101600009660091D08604FF0FF30144910310860E2
:101610001148806940F008000F4988614FF4EE00DE
:101620000F4908600012091D08606FF443600C49FF
:10163000103108600848806940F010000649886150
:10164000002008490860084848604FF0FF300861F2
:101650000649086070470000001002400008014081
:10166000000C0140001001400000703710140140D0
:1016700010B500BF31203449086000BF00BF4FEAF9
:101680007170324948603248086000BF00BF2F487F
:10169000006810F0020FFAD000BF2C48006810F468
:1016A000003FFAD000BF2948006810F0007FFAD050
:1016B00000BF2648406800F00C000828F9D100BFA0
:1016C00000BF2248C06940F004002049C8610120E1
:1016D0002049088048F69F40091D088000201D49C8
:1016E00028390880091D088001201A491C39088002
:1016F0001948006840F080404FF0E021C1F8000137
:101700001648008840F001001449088000BF4FF0DF
:10171000000000F027F800BF0C48806940F001008D
:101720000A4988610E48406820F0E0600C49486032
:101730000846406840F00070486000BFFFF756FF61
:10174000FFF754FF10BD00000020024000100240CF
:101750007B0001012808004000E100E00008004093
:10176000000001400146012906D0022907D00329C3
:1017700008D004290CD108E04FF47A70704740F289
:10178000DF30FBE74FF47A70F8E74FF47A70F5E753
:101790000020F3E702040608000000000102030431
:1017A0000102030406070809303132333435363775
:1017B00038394142434445464748494A4B4C4D4ECF
:1017C0004F505152535455565758595A6162636499
:1017D00065666768696A6B6C6D6E6F707172737441
:1017E00075767778797A2123000000000C180008BC
:1017F0000000002070000000540E00087C18000853
:101800007000002068070000640E0008000000005F
:1018100000000000000000000000000000000000C8
:1018200000000000000000000000000000000000B8
:10183000000000000000000000007F008400002085
:1018400000007F000401002000007F0084010020D0
:1018500000007F000402002000007F0084020020BE
:1018600000007F00040300200000000000000000D2
:0C1870000000000000000000000000006C
:0400000508000131BD
:00000001FF
