:020000042000DA
:10000000180900201D000020DFF80CD000F00EF8C9
:1000100000480047B5040020180900200148804727
:1000200001480047D301002009000020064C074D7D
:1000300006E0E06840F0010394E8070098471034B8
:10004000AC42F6D3FFF7E4FFF404002014050020CF
:1000500001490860704700000C3C024002480168FA
:1000600041F4805101607047003C024010F4702F51
:100070004FF0780107D001EA5030082806D001EA95
:100080005000203003E001EAD02000E020200221CF
:10009000AFF3008070B50646002529B1012927D0AD
:1000A000022928D04FF4407500F084F808281ED1AA
:1000B000124C206820F440702060206828432060A3
:1000C000206820F0F8002060206846F00201084314
:1000D0002060206840F48030206000F06BF82168D8
:1000E00021F002012160216821F0F801216070BD3A
:1000F0004FF48075D8E74FF40075D5E7103C024007
:100100000B4908200A68D20301D5012070470A680C
:10011000D20601D5052070470A6812F0EF0F01D012
:100120000620704709688907FBD507207047000043
:100130000C3C02400248016841F4006101607047D4
:10014000003C02400248016841F0004101607047F4
:10015000103C024070B50D46064600F02BF808280A
:1001600013D10A4C206820F440702060206840F4CD
:1001700080702060206840F001002060358000F031
:1001800019F8216821F00101216070BD103C024086
:1001900005480068002805DA034804490C38016066
:1001A0000349016070470000103C0240230167458D
:1001B000AB89EFCD08B508208DF80000FFF7A0FF50
:1001C0008DF800009DF800000128F7D09DF8000090
:1001D00008BD704702E008C8121F08C1002AFAD102
:1001E00070477047002001E001C1121F002AFBD1B7
:1001F00070470000074A00B501461269002091428D
:1002000007D200F051F9494200EB810050F8041D7B
:10021000401A00BD00080020FFF7ECBF30B500F029
:1002200043F9001F0E4900221446CA6008E0CD6859
:100230009D4203D203EB82031B1DCB60001F521CA7
:1002400003685D1C03D0082AF1D30022CC6000F0C3
:100250002BF9CB680A61C01A886090B230BD0000EB
:100260000008002010B50024FFF7D8FF20B1034894
:1002700003C800F002F90446204610BD080800201B
:1002800010B5FFF7CBFF48B1FFF7ECFF04498968D1
:1002900031F8021C884201D1012010BD002010BDA0
:1002A0000008002030B50546FFF7B8FF04000CD069
:1002B000002308E098B2FFF7AFFF8089A84201D180
:1002C00098B230BD5B1CA342F4D34FF6FF7030BD33
:1002D00010B500F0E9F88038BDE81040802100F04A
:1002E00071B810B5FFF798FF01464FF000604A68FB
:1002F00082420BD300F0D8F802464868824205D902
:100300008A68BDE81040123100F00EB810BD10B57B
:10031000FFF7C8FFA0F57F41FF3903D0BDE81040CB
:10032000FFF7DFBF10BD00002DE9F04104464FF498
:100330000047380315460E4684420FD310488442C6
:100340000CD2BD420AD9A5F5004206F5004104F5DC
:100350000040FFF7E9FF3A463146E8E7204600F063
:1003600011F800280AD12946204600F02BF82A4629
:1003700031462046BDE8F04100F043B8BDE8F081C9
:100380000080000830B5002306E0C45CCD5CAC42C0
:1003900001D0002030BD5B1C9342F6D3012030BD5C
:1003A00010B50446FFF7F4FEB320FFF751FE2046D8
:1003B000FFF75CFEFFF7C6FEFFF7BCFEBDE810408E
:1003C000FFF74CBE2DE9F041840BA403001B471836
:1003D0004FF0FF354FF480560FE028463246214655
:1003E00008C91840521EFBD1401C02D02046FFF71E
:1003F000D7FF04F58044A7F58047002FEDDCBDE86A
:10040000F0812DE9F0414FF47F48174604460D4630
:100410004646FFF7BDFEB320FFF71AFE0CE015F8C5
:10042000011B300A641C40EA01267F1EE00703D14D
:100430003146A01EFFF78EFE002FF0D1E00704D05A
:1004400048EA1621601EFFF785FEFFF77BFEFFF7E7
:1004500071FEBDE8F041FFF701BE000010B5034694
:100460000C46104606E000BF13F8012B014610466B
:1004700000F007F8641EF7D210BD41F2AE52FFF74C
:10048000EDBF414081EA0110C0B2090A81EA0021B2
:1004900081EAC00181EA101070470000014800881D
:1004A00080027047227AFF1F00B5FFF7F7FF00F1C7
:1004B000006000BDFFF7E4FE38B10120FFF727FF21
:1004C0000220FFF724FFFFF703FF00BFBFF34F8FAA
:1004D0000648006800F4E06005490843001D034930
:1004E0000860BFF34F8F00BF00BFFEE70CED00E0D8
:1004F0000000FA0514050020000800201400000088
:10050000D401002028050020140800200401000068
:10051000E4010020000000000000000000000000D6
:080520000000000000000000D3
:0400000520000009CE
:00000001FF
