:020000040800F2
:1000000058150020F9010008010200080302000849
:1000100005020008070200080902000800000000AD
:100020000000000000000000000000000B020008BB
:100030000D020008000000000F0200081102000875
:10004000130200081302000813020008130200083C
:1000500013020008130200089D0100089D0100081A
:10006000BD0700081302000813020008130200086D
:10007000130200081302000813020008130200080C
:1000800013020008130200081302000813020008FC
:1000900013020008130200081302000813020008EC
:1000A00013020008130200081302000813020008DC
:1000B00013020008130200081302000813020008CC
:1000C00013020008130200081302000813020008BC
:1000D00013020008130200081302000813020008AC
:1000E000130200081302000813020008130200089C
:1000F000130200081302000813020008130200088C
:10010000130200081302000813020008130200087B
:10011000130200081302000813020008130200086B
:10012000130200081302000813020008130200085B
:10013000130200081302000813020008130200084B
:10014000130200081302000813020008130200083B
:10015000130200081302000813020008130200082B
:10016000130200081302000813020008130200081B
:10017000130200081302000813020008130200080B
:100180001302000813020008DFF80CD000F058F842
:10019000004800479D170008581500203FB412483A
:1001A000026912490A80046845F2555302F00302BD
:1001B000022A04BF43800269F8D004604FF4002291
:1001C00082610B494FF003024A610A494FF0C002B5
:1001D0000A6001B500F056FBBDE801404FF008127F
:1001E00082613FBC704700000004024066040020AA
:1001F000003C014080E200E0064880470648004796
:10020000FEE7FEE7FEE7FEE7FEE7FEE7FEE7FEE7C6
:10021000FEE7FEE7D50E00088901000840EA010369
:100220009B0703D009E008C9121F08C0042AFAD2AC
:1002300003E011F8013B00F8013B521EF9D2704770
:10024000064C074D06E0E06840F0010394E8070023
:1002500098471034AC42F6D3FFF79AFF1C220008EF
:100260003C22000870B58D1810F8014B14F0030201
:1002700001D110F8012B231106D110F8013B03E046
:1002800010F8016B01F8016B521EF9D1B3B110F8EF
:10029000012B04F00C048A1A0C2C04D0A2EB84125B
:1002A00003F1020308E010F8014BA2EB0422F7E788
:1002B00012F8014B01F8014B5B1EF9D5A942D3D3CB
:1002C000002070BD10B500220446114600F0BAF9B6
:1002D00000220121204600F0B5F90022022120462B
:1002E00000F0B0F900220321204600F0ABF9002213
:1002F0000421204600F0A6F900220521204600F046
:10030000A1F900220621204600F09CF93F22072196
:10031000204600F097F900220821204600F092F9CB
:1003200000220921204600F08DF900220A212046F2
:1003300000F088F901220B21204600F083F9022207
:100340000C21204600F07EF900220D21204600F00D
:1003500079F9FF220E21204600F074F92046FF2291
:10036000BDE810400F2100F06DB900002DE9F04FFD
:100370009A499B4A09681268914234BF01230023BD
:1003800098494A6A496B8A4234BF4FF0010E4FF0D8
:10039000000E9549954A09681268914234BF4FF0A2
:1003A00001094FF000099249924A09681268914286
:1003B00034BF4FF001084FF000088F498F4A096899
:1003C0001268914234BF012700278D494A6A496B60
:1003D0008A4234BF012600268A498B4ADFF830C2A0
:1003E000096812684901B1FBF2F1884ADCF800C0E3
:1003F000DFF834A2126801F01F015201B2FBFCF2D7
:1004000002F01F04834ADFF810C21268DCF800C053
:10041000D201B2FBFCF295B2804ADFF804C2126846
:10042000DCF800C0D201B2FBFCF21FFA82FC7D4A6C
:10043000B2F802B0AB4506D0DAF800B00BF0010B11
:1004400082F800B055809588654506D0DAF80050EE
:1004500005F001055570A2F804C090F813C00CEB2C
:10046000011C7249614490F80DC091F800110CF024
:1004700001052B431578CCF3C00A4AEA050A13EAB2
:100480000A0304D0837B13F0100F18BF0B46DFF86C
:10049000A0A1DFF8A0B13AF813A03BF813B0CCF359
:1004A000400343EA0E03CCF3001E4EEA05021A4055
:1004B00004D0C27B12F0100F18BF0A465E4B33F80F
:1004C00012E0F24403F1200E1FFA8AFA3EF81220DD
:1004D0005A441FFA82FBCCF3800242EA0902CCF3B1
:1004E0004019DFF840C149EA05052A4004D0027CE2
:1004F00012F0100F18BF0A46504D9CF801C035F895
:100500001210514405F1200A1FFA81F93AF812102D
:1005100059441FFA81FB90F8591001EB041205F1C0
:100520004001114490F8534091F8001104F0010289
:1005300042EA0802C4F3C00848EA0C0812EA0802BA
:1005400005D090F8542012F0100F18BF0A46DFF8BB
:10055000E080DFF8E0E038F812803EF812E0C4F303
:1005600040023A43C4F3001747EA0C073A4005D06B
:1005700090F8552012F0100F18BF0A4633F81230C9
:100580002F4F43449BB237F81220C4F38007C4F3C3
:10059000401472443E4344EA0C0C92B216EA0C0F2B
:1005A00008BF002005D090F8560010F0100F18BFBB
:1005B000084635F810103AF8100019441044C9F5EF
:1005C00000621144CBF500621044C1F30B01C0F38B
:1005D0000B0041EA0040BDE8F08F000024440140D8
:1005E0003444014000400140244801403448014067
:1005F000241C0040341C00402418004034180040E3
:1006000000200040240C00402C0C0040240400403A
:100610002C040040240800402C0800402404014021
:100620002C04014060040020080806501C1E00082D
:100630005C1D00087C1D00089C1D0008DC1D0008D6
:10064000BC1D000840293ABF42541029704770B5BC
:1006500005460B480B4E0C46854204D104F03F0082
:1006600056F8200080470848854218BF70BD04F046
:100670003F0040F0200056F82000BDE870400047E1
:100680006C0400203C1C0008B2040020044A012332
:100690008340106809B1184300E098431060704728
:1006A0000074004030B5084C236840F6FE7282406A
:1006B0009343D1E900252A43D1E902510D432A434E
:1006C00082401A43226030BD0074004070B5044679
:1006D000006889B1421C04BF2068401C31F07041A1
:1006E00008BF70BD30B1227A636803EB8203521CED
:1006F00022721860216070BD20F0704040F201123B
:10070000A0F2011190424AD004DC58B1B0F5807FCC
:1007100045D005E001292BD0A1F55060FF383ED02F
:1007200000202060207A50B1207AF8B1207A401E53
:1007300020726068217A50F82100206016E020685D
:10074000002804BF207A002810D1E06801F092F957
:100750002060206810F0004F08D02568E06801F0A4
:1007600080F918B1E068294601F0B9F9206870BD38
:100770000D4C4FF08060A0610C48FFF7F7FD0C496D
:10078000086008680B4AC0F30B00106008680A494B
:10079000C0F30B4008604FF00420A06170BD2068DA
:1007A000401C206070BD0000000002406604002074
:1007B000F80400200874004014740040042000F085
:1007C00023F80D494FF4807008600C48018A11F03D
:1007D000040F04D100BF018A11F0040FFAD0BFF357
:1007E0004F8F07480168074A01F4E0611143016037
:1007F000BFF34F8FFEE7000080E200E00000024000
:100800000CED00E00400FA050149086070470000A3
:10081000143C014030B51A498379026853B30B6820
:1008200093430B600A1D13680468A34313600279A5
:100830000A441368046823431360114A083213689A
:100840000468A3431360131D1C680568AC431C6057
:100850004479102C05D021440A68006802430A60DC
:1008600030BD1168046821431160196800680143B4
:10087000196030BD0079084401689143016030BDC2
:10088000003C014070B5304C2379B4F800C0C3EB94
:10089000C30000EB800004EB4002B2F84A0000F015
:1008A0000F01C0F307154FEA1C200CF0030CBCF13C
:1008B000010F20D0BCF1020F3FD0BCF1030F3CD19F
:1008C000A2F84A0000F00F0100090F2808D10E29F4
:1008D00008BF012003D00F2908BF002000D1A0804D
:1008E0002079C0EBC00000EB800004EB400008441E
:1008F0008079608021E04FF0FF0CA4F802C0DFF89F
:100900004CC015B1012D0BD017E05518A87141EA64
:10091000431000F03F005CF820008047A8790BE00E
:100920005518A87501F1100040EA431000F03F008F
:100930005CF820008047A87D6080A078044951F8C9
:1009400020000449086070BD660400203C1C0008BB
:10095000600000201804024005490028086802D001
:1009600040F4806001E020F480600860704700007F
:10097000003C024005490028086802D040F400709D
:1009800001E020F40070086070470000003C024065
:1009900005490028086802D040F4807001E020F486
:1009A0008070086070470000003C024001490870F8
:1009B00070470000003C02404B07DB0E9A40C9081C
:1009C00010B500EB8100016A0F249C40A143016235
:1009D000016A1143016210BD10B5064800F0D8F855
:1009E000044800680449B0FBF1F00449088000F0B5
:1009F000B7F910BD4805002040420F000C0500204B
:100A000070B504460D46C06801F02BF8002808BFF9
:100A100070BDE0682946BDE8704001F060B8000094
:100A200070B50F21C478027801234FF0E026E4B1BD
:100A3000124C246804F4E064C4F5E064C4F30724B1
:100A4000C4F10405E1404478AC4085780D4025436D
:100A50000B4C29011155007800F01F018B40400913
:100A600006EB8000C0F8003170BD02F01F0083402B
:100A7000500906EB8000C0F8803170BD0CED00E03D
:100A800000E400E0044A0029116801D0014300E0BD
:100A9000814311607047000030380240044A002949
:100AA000116801D0014300E08143116070470000EC
:100AB00034380240044A0029116801D0014300E0A3
:100AC000814311607047000040380240044A002909
:100AD000116801D0014300E08143116070470000BC
:100AE0004438024038B500F035F8012000F0B6F87F
:100AF00000F0F4F80446012C2AD1072002236E22CC
:100B000004210090080500F0CBF8012000F0C2F8A5
:100B100000BF392000F07EF80028FAD00520FFF74A
:100B200045FF0120FFF734FF0120FFF723FF0120DD
:100B3000FFF712FF002000F087F84FF4A05000F0FC
:100B400095F84FF4805000F09BF8022000F0BCF8BC
:100B500038BD00000B48016841F001010160094AFD
:100B60000021083211600268074B1A400260031D21
:100B7000064A1A60026822F48022026001480C30A2
:100B80000160704700380240FFFFF6FE103000247D
:100B900030B51D4A11681D4B11F00C0103D004291A
:100BA00001D0082901D0036015E01749091F0C681E
:100BB000C4F380550C6804F03F04B3FBF4F30C68F5
:100BC0000968C4F388146343C1F30141491C490017
:100BD000B3FBF1F1016011680F2303EA11110C4B13
:100BE0005C5C0168E14041601468072505EA9424D3
:100BF0001C5D21FA04F48460126805EA52329A5CA2
:100C0000D140C16030BD0000083802400024F4002B
:100C1000FC04002002460020510901290BD00229C2
:100C20000CD00849096802F01F02012393400B42CF
:100C300000D00120704703497439F3E70149091FC7
:100C4000F0E7000074380240034A116821F0F00117
:100C50000143116070470000083802400249002239
:100C60000A7008707047000002380240034A116899
:100C700021F4E05101431160704700000838024040
:100C800003490A6822F4604242EAC00008607047E3
:100C900008380240014908667047000000004742DA
:100CA00041EA82115A0810B5054B029C03EB02423F
:100CB0001143014341EA04600249086010BD00008D
:100CC0000000FFFF04380240034A116821F00301CD
:100CD00001431160704700000838024018B5002039
:100CE0004FF4A06400903120FFF794FF0099491C55
:100CF0000091A14201D00028F5D03120FFF78AFFF2
:100D0000002800D0012018BD05490028086802D03D
:100D100040F0040001E020F004000860704700008B
:100D20000008065010B501214020FFF7B7FE012052
:100D3000FFF7EAFF10BD000010B58A0721F0030499
:100D40000649130F21440F220C689A4094430C600B
:100D50000A68984002430A6010BD0000083801404C
:100D600010B500BF012340F201320321574800F0C3
:100D700099FC00BF00BF012340F202320921544810
:100D800000F090FC00BF0124224609215048FFF7E3
:100D900013FE00BF00BF012340F201320A214C487C
:100DA00000F080FC00BF00BF012340F203320421A9
:100DB000474800F077FC00BF00BF012340F2033238
:100DC0000521434800F06EFC00BF00BF0023102245
:100DD00019463E4800F066FC00BF00BF0023102209
:100DE00001213A4800F05EFC00BF00BF002322034F
:100DF0000221364800F056FC00BF00BF002322034A
:100E00000421324800F04EFC00BF00BF0023220343
:100E100005212E4800F046FC00BF00BF002322033E
:100E200006212A4800F03EFC00BF00BF0023220339
:100E30000721264800F036FC00BF00BF0323102224
:100E40000821224800F02EFC00BF00BF032310221F
:100E500009211E4800F026FC00BF00BF032310221A
:100E60000A211A4800F01EFC00BF00BF0323102215
:100E70000B21164800F016FC00BF00BF0323102210
:100E80000C21124800F00EFC00BF00BF032310220B
:100E90000D210E4800F006FC00BF00BF0323102206
:100EA0000E210A4800F0FEFB00BF00BF0323102202
:100EB0000F21064800F0F6FB00BF00BF0023102200
:100EC0000221034800F0EEFB00BF10BD0004024009
:100ED0000000024010B5FFF705FE10BD10B50A88EE
:100EE0004B88CC881A438B8823431A430B891A43B7
:100EF0004B8989891A430A43A0F8442010BD002178
:100F0000018041808180C180018141818181704760
:100F10000029018802D041F0010101E021F0010126
:100F20000180704730B5028C22F001020284028CED
:100F30008388048B22F0020224F073050C882C4372
:100F40008D8915434A882A430C4DA84202D00C4D86
:100F5000A8420DD122F00805CA8923F440732A4320
:100F600022F004058A882A430D8A1D434B8A2B43AD
:100F70008380048389684163028430BD000001409E
:100F800000040140028B22F008020A4302837047EA
:100F900070B5028C22F010020284028C8488038BCC
:100FA0000D8823F4E6464FF6FF7303EA0525354323
:100FB0008E8922F0200203EA061616434A8803EAC5
:100FC00002123243104EB04202D0104EB04215D140
:100FD00022F08006CA8924F4406403EA02123243F4
:100FE00022F040068A8803EA021232430E8A03EA9C
:100FF000860626434C8A03EA8404344384800583AE
:1010000089688163028470BD0000014000040140D2
:10101000028B4FF6FF7322F4006203EA01211143B1
:101020000183704770B5028C22F480720284028CB6
:101030008488838B0D8823F073031D4322F400738F
:101040008E894FF6FF7202EA06261E434B8802EA9B
:1010500003233343104EB04202D0104EB04215D19C
:1010600023F40066CB8924F4405402EA032333437B
:1010700023F480668B8802EA032333430E8A02EA54
:10108000061626434C8A02EA04143443848085837E
:101090008968C163038470BD000001400004014001
:1010A000828B22F008020A438283704770B5028C5B
:1010B00022F480520284048C8288838B0D8823F46E
:1010C000E6464FF6FF7303EA0525354324F4005640
:1010D0008C8903EA043434434E8803EA06362643F7
:1010E000084CA04202D0084CA04205D122F4804412
:1010F0000A8A03EA82122243828085838968016416
:10110000068470BD0000014000040140828B4FF650
:10111000FF7322F4006203EA0121114381837047C7
:10112000028922F070020A4302817047028922F08C
:101130008002028102890A4302817047828822F07C
:101140007002828082880A4382807047028922F07E
:101150000702028102890A430281704730B5028882
:10116000164B174C98420DD0A0420BD0B0F1804FD7
:1011700008D0144DA84205D0134DA84202D0134DFB
:10118000A84203D122F070054A882A43104DA84294
:1011900006D0104DA84203D022F440750A892A4394
:1011A00002804A68C2620A880285984201D0A04241
:1011B00001D1897A01860121818230BD0000014080
:1011C000000401400004004000080040000C004002
:1011D00000100040001400404FF0FF31416000213A
:1011E0000180018141808172704702E008C8121FAE
:1011F00008C1002AFAD170477047002001E001C100
:10120000121F002AFBD1704710B5012184B0480796
:10121000FFF750FC00200290009001906946039077
:10122000FFF740FA69461020FFF73CFA0121002041
:10123000FFF72CFA01211020FFF728FA244C4FF475
:101240007A7322462349002000F038F94FF47A736C
:1012500022462149002000F031F94FF47A732246EA
:101260001E49002000F02AF94FF47A7322111C491C
:10127000002000F023F94FF47A73A21119490020DD
:1012800000F01CF94FF47A7322461749002000F051
:1012900015F94FF47A7322461449002000F00EF934
:1012A0004FF47A7322461249002000F007F94FF4F8
:1012B0007A7322110F49002000F000F9A21104B046
:1012C0004FF47A73BDE810400B49002000F0F6B8E7
:1012D0003FAB010000440140004001400048014094
:1012E000000C004000080040001C004000180040B6
:1012F00000200040000400400004014010B501211E
:1013000084B08803FFF7E2FB00210120FFF714FD02
:1013100001210846FFF710FD00208DF804008DF82C
:1013200009008DF80A00012008248DF805408DF889
:1013300006008DF80B0000906846FFF76BFA062058
:101340008DF8080002A8FFF76BFB022000906846AA
:10135000FFF760FA07208DF8080002A8FFF760FB8E
:101360000C208DF80500042000906846FFF752FA23
:101370008DF8084002A8FFF753FB04B010BD000031
:1013800001464C4B10B50020CA1A994275D027DC93
:10139000494BA1EB030299425AD010DCB1F1804FC6
:1013A00048D012F500614CD0B1F5806F18BF10BD68
:1013B00001210420FFF77EFB40F2044010BDB2F58E
:1013C000806F4CD0B2F5006F50D0B2F5406F18BFAF
:1013D00010BD01214020FFF76DFB4FF4037010BDDD
:1013E000B2F5923F4AD010DCB2F5806F5BD0B2F517
:1013F000644F18D0B2F5684F18BF10BD012102200C
:10140000FFF764FB4FF4816010BDB2F5943F3CD010
:10141000B2F5963F18BF10BD01218804FFF756FBB7
:1014200040F20B1010BD01210846FFF74FFB40F2C0
:10143000014010BD01210846FFF73CFB40F202408D
:1014400010BD01210220FFF735FB40F2034010BD23
:1014500001210820FFF72EFB40F2054010BD0121BD
:101460001020FFF727FB40F2064010BD012120208D
:10147000FFF720FB40F2074010BD0DE001210804FA
:10148000FFF724FB40F2092010BD01214804FFF7BB
:101490001DFB4FF4857010BD01218020FFF70AFB72
:1014A00040F20D1010BD01210802FFF703FB4FF4BD
:1014B000877010BD001C0040000C00402DE9F04773
:1014C0005FEA00093B48984600F10C0413460D46BC
:1014D000D0E9001294E8D00488B0D0F808C0C06900
:1014E000CDF808C0CDE906A00597CDE90012CDE9F9
:1014F00003462CD059003522484600F05FF8C7B2A9
:1015000001222D49284600F059F8C6B200243DF8C2
:1015100016100C22604202EB800021FA00F000F06D
:101520000F00B8423DD100212846FFF7F1FC3021E1
:101530004846FFF703FE80214846FFF7F7FD6CB1F0
:10154000012C10D0022C13D0032C16D019E04246E7
:101550001946284600F032F8C6B226E00021284697
:10156000FFF7DEFD0DE010212846FFF7D9FD08E06A
:1015700020212846FFF7D4FD03E030212846FFF75D
:10158000CFFD05212846FFF7E1FD002068624FF6F8
:10159000FF70E862C5F8388001212846FFF7B8FCE3
:1015A00003E0601CC4B2042CB4D308B03046BDE8DC
:1015B000F08700003C1D0008A0860100F0B591B046
:1015C00016460C460746FFF7DBFE050064D00CA864
:1015D000FFF7DEFA0D98B0FBF4F405A8FFF7FCFD69
:1015E000701EADF814000026601E0690ADF81C6059
:1015F000ADF816608DF81E6005A93846FFF7AEFD00
:1016000000213846FFF792FD6020ADF80000012070
:10161000ADF80200322022496043A1FB00104009CE
:101620000290C5F30320ADF80C6001281DD00228FC
:1016300013D0032809D004281FD169463846FFF784
:1016400035FD08213846FFF761FD69463846FFF74A
:10165000E9FC08213846FFF723FD69463846FFF7C5
:1016600097FC08213846FFF7D3FC69463846FFF758
:1016700059FC08213846FFF785FC08A8FFF73FFC16
:101680004FF48040ADF82C0008A93846FFF726FC3F
:1016900001213846FFF73CFC11B02846F0BD0000A0
:1016A0001F85EB512DE9F047044680051F4616467D
:1016B0000D46800D12D1A012A0F5801080380828A8
:1016C0000CD2DFE800F00407282B2E31343701213B
:1016D000084601E001210220FFF7D4F906F00F00CF
:1016E000310901F00F060909D4F8008001F00F0C50
:1016F0000A09690003238B4028EA030800FA01F96C
:1017000049EA0808C4F800804FF00108012818BF12
:10171000022828D111E001210420DDE70121082061
:10172000DAE701211020D7E701212020D4E70121A9
:101730004020D1E701218020CEE7D4F808900CFAB0
:1017400001FC29EA03094CEA090CC4F808C0D4F8E2
:1017500004C008FA05F9AE402CEA090CB6B246EA14
:101760000C0CC4F804C0D4F80CC002FA01F12CEA45
:1017700003031943E160012804D017F0020F08BFEA
:10178000BDE8F08707F00100A84045F0100108FA15
:1017900001F10843A061BDE8F0870000FFF71CF9E4
:1017A00072B6FFF7BFFAFFF72FFD00F045FA0E48BB
:1017B000FEF788FD0C484630FEF784FDFFF79EFDDE
:1017C00062B60A490A48FFF71BF90A490A48FFF7B7
:1017D00017F907E000210848FEF778FF00210448C8
:1017E000FEF774FFF6E700006C040020000F008095
:1017F0001000002000010080340000200648C0884E
:10180000C0F30B00401E80B210F4004F18BF002040
:101810000249086070470000660400202844014027
:1018200006480089C0F30B00401E80B210F4004F40
:1018300018BF00200249886270470000660400203B
:101840000040014006484089C0F30B00401E80B2B2
:1018500010F4004F18BF00200249086070470000D4
:10186000660400202848014006480168064A031D16
:10187000127B02F01F021A80044B01221A800160C1
:10188000704700002408004066040020140800404F
:10189000094A11680948B0F81100C0F30B00401E56
:1018A00010F0004F18BF0020054B1880054B012099
:1018B0001880116070470000240C0040660400206E
:1018C000280C0040140C00400149002008607047BB
:1018D000240C0040044805490068897F48430449B6
:1018E000000A0860704700002C4401406604002094
:1018F000344401400348044AC16AD27F5143090A73
:1019000041637047004001406604002004480549D7
:10191000006891F8201048430349000A08607047A6
:101920002C48014066040020344801400648B0F8C5
:101930004C00C0F30B00401E80B210F4004F18BFE3
:10194000002002490860704766040020281C0040FF
:101950000648B0F84E00C0F30B00401E80B210F4F1
:10196000004F18BF0020024908607047660400203D
:10197000281800400648B0F85000C0F30B00401E85
:1019800080B210F4004F18BF0020024988627047EF
:10199000660400200020004006480168064A031D36
:1019A00092F8522002F01F021A80044B01221A8082
:1019B00001607047240401406604002014040140C3
:1019C000094A11680948B0F85700C0F30B00401EDF
:1019D00010F0004F18BF0020054B1880054B012068
:1019E0001880116070470000240400406604002045
:1019F000280400401404004001490020086070479A
:101A00002404004004480549006891F864104843E4
:101A10000349000A086070472C1C0040660400203F
:101A2000341C004004480549006891F8651048439B
:101A30000349000A086070472C1800406604002023
:101A4000341800400448054AC16A92F866205143A0
:101A5000090A41637047000000200040660400202E
:101A6000704741880288891A8288C9B280881140EB
:101A7000401A70472DE9F84300210546009180681F
:101A8000E8460424002827D0A88800F0FF09288809
:101A900000EA090768882988401AA988C0B2084066
:101AA000042898BF5FEA000415D000BFA9EB070027
:101AB000401C86B2A64288BF2646A8683246C11995
:101AC0004046FEF7ABFBB81900EA0907A01B040467
:101AD000240CB044EAD12F800098BDE8F88313B5F8
:101AE000042201A900F002F802B010BD2DE9F04374
:101AF0000446806883B0174688460E46154600287F
:101B000040D0A088002D00F0FF093BD0608800EA9B
:101B100009008DF804009DF80400A9EB0000401CAA
:101B2000ADF80000BDF80000A84288BFADF8005035
:101B300061882088081AC1B2A0880840A188081AC4
:101B4000BDF800108842F3D3A0689DF80410BDF8DA
:101B5000002008443146FEF761FB9DF80400BDF803
:101B60000010084400EA09008DF804009DF80410F4
:101B70006180BDF800000644BDF80000281A050485
:101B80002D0CC3D1E068002804BF03B0BDE8F0838A
:101B9000E06841880288891A8288C9B28088114029
:101BA000401A80B2874288BF0746002F40D0E468C1
:101BB0003E46A06800281CBFA088C5B238D0608807
:101BC00028408DF804009DF80400281A401CADF848
:101BD0000000BDF80000B04288BFADF8006060882A
:101BE0002188401AA188C0B20840A188081ABDF80F
:101BF00000108842F3D3A0689DF80410BDF80020BF
:101C000008444146FEF70AFB9DF80400BDF80010A9
:101C1000084428408DF804009DF804006080BDF859
:101C200000008044BDF80000301A0604360CC6D10E
:101C300003B03846BDE8F08370470000FD17000888
:101C4000FD17000821180008211800084518000891
:101C50004518000869180008611A0008611A000890
:101C6000611A0008611A000891180008911800080C
:101C7000C9180008611A0008611A0008611A0008F2
:101C8000611A0008611A0008611A0008611A000848
:101C9000611A0008611A0008611A0008D5180008C6
:101CA000F51800080D190008611A0008611A0008EB
:101CB000611A0008611A0008611A00082D1900084D
:101CC0002D1900085119000851190008751900084C
:101CD0007519000899190008611A0008611A0008AE
:101CE000611A0008611A0008C1190008C11900082A
:101CF000F9190008611A0008611A0008611A000841
:101D0000611A0008611A0008611A0008611A0008C7
:101D1000611A0008611A0008611A0008051A000813
:101D2000251A0008451A0008611A0008611A0008FF
:101D3000611A0008611A0008611A00080000345294
:101D40003418541238124823000000004512AB2307
:101D500000000000DE45000000000000000001005F
:101D600002000300050007000B000F001600200012
:101D7000260040004D008000B4000001000000007B
:101D800000000100020002000400060008000C0030
:101D90000F0019001E00330048006600000001001B
:101DA00002000300050007000B000F0016002000D2
:101DB000260040004D008000B4000001000001003A
:101DC00002000300050007000B000F0016002000B2
:101DD000260040004D008000B4000001000000001B
:101DE00000000100020002000400060008000C00D0
:101DF0000F0019001E0033004800660000000100BB
:101E000002000300050007000B000F001600200071
:101E1000260040004D008000B40000010F0F0F0F9E
:101E2000000000000F0F0F0F000000000E0E0E0E3E
:101E3000010101010E0E0E0E010101010D0D0D0D2E
:101E4000020202020D0D0D0D020202020C0C0C0C1E
:101E5000030303030C0C0C0C030303030B0B0B0B0E
:101E6000040404040B0B0B0B040404040A0A0A0AFE
:101E7000050505050A0A0A0A0505050509090909EE
:101E800006060606090909090606060608080808DE
:101E900007070707080808080707070707070707CE
:101EA00008080808070707070808080806060606BE
:101EB00009090909060606060909090905050505AE
:101EC0000A0A0A0A050505050A0A0A0A040404049E
:101ED0000B0B0B0B040404040B0B0B0B030303038E
:101EE0000C0C0C0C030303030C0C0C0C020202027E
:101EF0000D0D0D0D020202020D0D0D0D010101016E
:101F00000E0E0E0E010101010E0E0E0E000000005D
:101F10000F0F0F0F000000000F0F0F0F0000000049
:101F2000000000000F00000F000F0F000000000075
:101F3000000000000E00010F010F0E000000000065
:101F4000000000000D00020F020F0D000000000055
:101F5000000000000C00030F030F0C000000000045
:101F6000000000000B00040F040F0B000000000035
:101F7000000000000A00050F050F0A000000000025
:101F8000000000000900060F060F09000000000015
:101F9000000000000800070F070F08000000000005
:101FA000000000000700080F080F070000000000F5
:101FB000000000000600090F090F060000000000E5
:101FC0000000000005000A0F0A0F050000000000D5
:101FD0000000000004000B0F0B0F040000000000C5
:101FE0000000000003000C0F0C0F030000000000B5
:101FF0000000000002000D0F0D0F020000000000A5
:102000000000000001000E0F0E0F01000000000094
:102010000000000000000F0F0F0F00000000000084
:10202000000000000F000F0F000F00000000000074
:10203000000000000E000E0F010F01000000000064
:10204000000000000D000D0F020F02000000000054
:10205000000000000C000C0F030F03000000000044
:10206000000000000B000B0F040F04000000000034
:10207000000000000A000A0F050F05000000000024
:10208000000000000900090F060F06000000000014
:10209000000000000800080F070F07000000000004
:1020A000000000000700070F080F080000000000F4
:1020B000000000000600060F090F090000000000E4
:1020C000000000000500050F0A0F0A0000000000D4
:1020D000000000000400040F0B0F0B0000000000C4
:1020E000000000000300030F0C0F0C0000000000B4
:1020F000000000000200020F0D0F0D0000000000A4
:10210000000000000100010F0E0F0E000000000093
:10211000000000000000000F0F0F0F009CFB1FD2FB
:102120004D07EA6B18351BD61CD4DCB51FCFC6CAC9
:102130002D1CD5D6210FE32C7F7F2AFE9C7F225FAA
:102140004705E6AD42E30CE8670BE50EE8AB9E3AC7
:1021500065A6F1492231A9F10405EBA713389507CB
:1021600072E2E6B117DEE90C440EE9FF2D1DD7B986
:10217000427BF58BF7FAB63CB75AF7DE14E4B28827
:1021800006747F753579D4217F5356FB99A15A2F58
:102190007F29244A973F11FFF1A6EDF101F57A342A
:1021A000203EF2A2F4FAFBF20351FDF37F75A65430
:1021B00034153B12A494441FF48E4F5CB0E0163AE1
:1021C000B9DA0DE8BE36BC3910B0EBE3B3E36C729C
:1021D000351D31EA1876DA1D268EBDDC1D1C213036
:1021E000392BCB763ACA2E25ACE20FE9AC8F3916E3
:1021F000AEE73F70E2193B0A0BE50C45AE8DAE0130
:10220000504BED7F7FA8EF64F81F33C6CE3424090E
:1022100092D6203A19084D034BA7FD323C22000804
:1022200000000020280500006402000820260008A5
:102230002805002030100000FA11000812000112D9
:10224000070450064C00002000011328050C32043E
:102250000B53204818212492582452382412242445
:1022600092543C011101100EFF000100FE0002001B
:10227000FD000300FC34100AFB000500FA00060014
:10228000F9551062F8000800F7000900F6000A008E
:10229000F5000B00F4000C00F3000D00F2000E003E
:1022A000F1000F00F0001000EF001100EE0012002E
:1022B000ED001300EC001400EB001500EA0016001E
:1022C000E9001700E8001800E7001900E6001A000E
:1022D000E5001B00E4001C00E3001D00E2001E00FE
:1022E000E1001F00E0A6100EDF002100DE0022004A
:1022F000DD002300DCB1149EDB002500DA0026009F
:10230000D9002700D8002800D7002900D6002A00CD
:10231000D5002B00D4002C00D3002D00D2002E00BD
:10232000D1002F00D0003000CF003100CE003200AD
:10233000CD003300CC003400CB003500CA0036009D
:10234000C9003700C8003800C7003900C6003A008D
:10235000C5003B00C4003C00C3003D00C2003E007D
:10236000C1003F00C0004000BF004100BE0042006D
:10237000BD004300BC004400BB004500BA0046005D
:10238000B9004700B8004800B7004900B6004A004D
:10239000B5004B00B489142EB3004D00B2004E00BE
:1023A000B1004F00B0005000AF005100AE0052002D
:1023B000AD005300AC005400AB005500AA0056001D
:1023C000A9005700A895109EA7005900A6005A0022
:1023D000A5005B00A4005C00A3005D00A2005E00FD
:1023E000A1005F00A00060009F0061009E006200ED
:1023F0009D0063009C0064009B0065009A006600DD
:1024000099006700980068009700690096006A00CC
:1024100095006B0094006C0093006D0092006E00BC
:1024200091006F00900070008F0071008E007200AC
:102430008D0073008C0074008B0075008A0076009C
:1024400089007700880078008700790086007A008C
:1024500085007B0084007C0083007D0082007E007C
:1024600081007F008002127F0A127E12127D1A12F2
:102470007C22127B2A127A3212793A12784212772F
:102480004A12765212755A12746212736A1272727A
:1024900012717A127082126F8A126E92126D9A12F3
:1024A0006CA2126BAA126AB21269BA1268C21267DF
:1024B000CA1266D21265DA1264E21263EA1262F29A
:1024C0001261FA166002165F0A165E12165D1A167F
:1024D0005C22165B2A165A3216593A16584216577B
:1024E0004A16565216555A16546216536A165272A6
:1024F00016517A165082164F8A164E92164D9A161B
:102500004CA2164BAA164AB21649BA1648C216472A
:10251000CA1646D21645DA1644E21643EA1642F2C5
:102520001641FA1A40021A3F0A1A3E121A3D1A1AA6
:102530003C221A3B2A1A3A321A393A1A38421A37C6
:102540004A1A36521A355A1A34621A336A1A3272D1
:102550001A317A1A30821A2F8A1A2E921A2D9A1A42
:102560002CA21A2BAA1A2AB21A29BA1A28C21A2776
:10257000CA1A26D21A25DA1A24E21A23EA1A22F2F1
:102580001A21FA1E2002031E1F0A031E1E12031E1A
:102590001D1A031E1C22031E1B2A031E1A32031EB1
:1025A000193A031E1842031E174A031E1652031E31
:1025B000155A031E1462031E136A031E1272031EB1
:1025C000117A031E1082031E0F8A031E0E92031E31
:1025D0000D9A031E0CA2031E0BAA031E0AB2031EB1
:1025E00009BA031E08C2031E07CA031E06D2031E31
:1025F00005DA031E04E2031E03EA031E02F2031EB1
:1026000001FA036C04000101050401940120050195
:102610000203040400051A060708098C00000000E4
:040000050800018965
:00000001FF
