:020000040800F2
:10000000D0690020C5010008CD010008CF0100081B
:10001000D1010008D3010008D5010008000000004C
:10002000000000000000000000000000D7010008F0
:10003000D901000800000000DB010008E108000809
:10004000DF010008DF010008DF010008DF01000810
:10005000DF010008DF010008DF010008DF01000800
:10006000A10D0008DF010008DF010008DF01000822
:10007000DF010008DF010008DF010008DF010008E0
:10008000DF010008DF010008DF010008DF010008D0
:10009000DF010008DF010008DF010008ED0D0008A6
:1000A000DF010008DF010008DF010008DF010008B0
:1000B000DF01000879800120B10A0020DF0100087B
:1000C000DF010008DF010008DF010008DF01000890
:1000D000DF010008E9250008DF010008DF01000852
:1000E000310D0008DF010008DF010008DF01000812
:1000F000DF010008DF010008DF010008DF01000860
:10010000DF010008DF010008DF010008DF0100084F
:10011000DF010008DF010008DF010008DF0100083F
:10012000DF010008DF010008DF010008DF0100082F
:10013000DF010008DF010008DF010008DF0100081F
:10014000DF010008DF010008DF010008DF0100080F
:10015000DF010008DF010008DF010008DF010008FF
:10016000DF010008DF010008DF010008DF010008EF
:10017000DF010008DF010008DF010008DF010008DF
:10018000DF010008DF010008DFF80CD000F02CF8D8
:100190000048004769570008D0690020D0F800D017
:1001A0004068004772B6034691F800A083F800A0AB
:1001B00001F1010103F10103521EF5D2D0F800D084
:1001C000406800470648804706480047FEE7FEE7CC
:1001D000FEE7FEE7FEE7FEE7FEE7FEE7FEE7FEE7F7
:1001E000C11F000889010008064C074D06E0E068C1
:1001F00040F0010394E8070098471034AC42F6D36E
:10020000FFF7C6FFA87C0008087D000800BF00BFFC
:1002100000BF00BF704700F080014FF0805242EAFB
:100220004113FF4910B40B604FF004230B604FF0F3
:10023000806CC1F800C000F0400442EA84140C60F5
:100240000B60C1F800C000F0200442EAC4140C6046
:100250000B60C1F800C000F0100442EA04240C60F6
:100260000B60C1F800C000F0080442EA44240C60AE
:100270000B60C1F800C000F0040442EA84240C6062
:100280000B60C1F800C000F0020442EAC4240C6014
:100290000B60C1F800C000F0010042EA00300860C5
:1002A0000B60C1F800C0DF485A018261D2080A60C1
:1002B0008103816110BC7047DB49E8280B46D1F807
:1002C000722293F8683212D0E92817D0EB2806BFC3
:1002D000D64882427047BFF34F8FD5480168D54A50
:1002E00001F4E06111430160BFF34F8FFEE743F07B
:1002F000020081F86802A1F86E227047CE4882425F
:1003000018BF704743F0010081F86802AA2081F805
:1003100069027047C94810B50068C94C4FF4002104
:1003200080F003002160C74A4FF6E7711180BE4993
:10033000088000F0F7FA4FF00810206010BD2DE99A
:10034000F84304460068002635460078202805D189
:100350002068401C206000782028F9D04FF0000869
:100360006F46216811F8010B21603A281CBF202834
:10037000002813D0A0F13001092905D8C8B206EB36
:10038000860100EB4106ECE7032DEAD200F0CFFA3C
:100390007855681CC5B207F80580E2E765B10C2501
:1003A000A94F0024694657F8240000F0C5FA30B17F
:1003B000601C84B2AC42F5D33046BDE8F883661CBD
:1003C000FAE7F8B5A14800906846FFF7B8FF42F297
:1003D000107100FB01F500246846FFF7B0FF6421AF
:1003E0004843451944EB04066846FFF7A8FF451942
:1003F00066416846FFF7A3FF9549484345196641A2
:100400006846FFF79CFF9349484345196641684693
:10041000FFF795FF9049914BA1FB002149096FF02F
:100420001802514300EB8100A0FB031C04FB03C333
:10043000022200FB0232481942EB0601F8BD2DE909
:10044000F0410446002020700F46204600F079FA63
:10045000834D0219804E6888A6FB003149096FF070
:100460001803594300EB8100022105F04DFE1FB136
:100470007CA1204600F06AFA204600F062FA0219D8
:10048000A8884AF2D73800FB0880800DA6FB00310F
:1004900049096FF01803594300EB8100022105F070
:1004A00033FE1FB16FA1204600F050FA204600F045
:1004B00048FA0219A888A6FB003149096FF0180311
:1004C000594300EB8100022105F01EFE27B166A111
:1004D000204600F03BFA03E064A1204600F036FA23
:1004E000204600F02EFA021968884AF2D73100FB44
:1004F0000180800DA6FB003149096FF018035943B4
:1005000000EB8100022105F0FFFD1FB157A120463D
:1005100000F01CFA204600F014FA02192888A6FB05
:10052000003149096FF01803594300EB81000221A3
:1005300005F0EAFD27B14EA1204600F007FA03E0DE
:100540004CA1204600F002FA204600F0FAF9021908
:1005500028884AF2D73100FB0180800DA6FB0031CC
:10056000BDE8F04149096FF01803594300EB8100E1
:10057000022105F0C9BD70B50E460446012184B0C4
:10058000880301F025F83C4D012C02D0022C09D043
:1005900010E00A21002001F0EFF94FF4806068605C
:1005A000282006E00721022001F0E6F9802068609B
:1005B000172028700A21002001F0DEF90024102005
:1005C0008DF804408DF809408DF80A408DF805003B
:1005D000002E19BF01208DF806008DF8064000207E
:1005E0008DF80B0068680090684600F03DFC2878A4
:1005F0008DF8080002A800F0FFFD95F90000002822
:10060000BABF00F00F001D491D494454002E04BF1D
:1006100004B070BD1B490098086004B070BD0000B4
:10062000180802400000024012240020EFBEADDE98
:100630000CED00E00400FA0555AA417810040240D0
:10064000180402401004004058230020A09101200B
:1006500000E1F50540420F001F85EB5100E40B540B
:100660009A9101203A000000200000002E000000B6
:100670002E323000323000005023002014ED00E014
:1006800000E400E0103C014070B5984C05466078ED
:10069000FF281CBF0021FFF76EFF65702846BDE8EC
:1006A0007040012167E72DE9F04301218DB08803F7
:1006B00000F08EFF00248DF824408DF801400826BC
:1006C00001258DF802408DF825608DF826508DF8B3
:1006D00003500221204601F04FF904204FF00C088E
:1006E00008908DF8258008A800F0BEFB8DF800600A
:1006F000684600F081FD0121022000F039FF022050
:100700008DF82C008DF82F408DF82D000320784FA8
:100710000A900AA9384600F0DAFC02220021384685
:1007200000F026FD02220121384600F021FD0121C2
:10073000022000F035FF04A801F090FE6D4F38460E
:1007400004F054FD4FF47A71B0FBF1F0401EADF8A7
:10075000100048000590ADF81840ADF8124004A90B
:10076000384601F03DFEDFF8909199F8000000282E
:1007700018BF0220ADF80600ADF80850ADF80A40E9
:10078000ADF80C40ADF8046001A9384601F085FCD5
:10079000ADF8048001A9384601F07FFC01224FF436
:1007A000C051384601F071FC544941F234200860D0
:1007B00001221821384601F0C6FC99F8000020B14A
:1007C000AFF2AF411D2004F09DFF1D208DF8000009
:1007D0008DF801408DF802508DF80350684600F006
:1007E0000BFD474804704748079007A8FFF7A7FD8F
:1007F00042F2107100FB01F607A8FFF7A0FD64218B
:100800004843861944EB040707A8FFF798FD8619AB
:10081000674107A8FFF793FD3B494843861944EB1E
:10082000070807A8FFF78BFD38494843871944EBB1
:10083000080607A8FFF783FD3549364BA1FB0021C9
:1008400049096FF01802514300EB8100A0FB031C23
:1008500004FB03C3022200FB0232C81942EB06016B
:1008600007460E46284A002300F075F842F210723F
:10087000002300F070F842F21070DFF89C8010182E
:1008800042F21072A8F800004FF0000338463146DB
:1008900000F061F8164642F21072002300F05BF897
:1008A00042F210701018A8F8020042F210703018CE
:1008B000A8F804004FF0010108F10600FFF7BFFDA2
:1008C00000211648FFF7BBFD4FF0E0204561144AB8
:1008D000F02111708461072101610DB0BDE8F08342
:1008E0004FF0E021062008617047000050230020EF
:1008F0000004024000040040B02300202404004013
:100900001DE400E0A091012000E1F50540420F0048
:100910001F85EB5100E40B549A91012000960120B1
:1009200023ED00E048F6ED2CC2F2010C604740F2E6
:10093000630CC2F2000C604740F2DD0CC2F2000C06
:10094000604740F2CF0CC2F2000C604740F2B70C97
:10095000C2F2000C604740F2010CC2F2000C60478A
:1009600048F2153CC2F2010C604740F26F0CC2F233
:10097000000C604740F2854CC2F2000C604740F624
:10098000E17CC2F2000C604740F2472CC2F2000C3E
:10099000604740F2FD4CC2F2000C604740F2094C47
:1009A000C2F2000C604740F23B2CC2F2000C6047E0
:1009B00040F2F90CC2F2000C604740F22B3CC2F24C
:1009C000000C604740F26F0CC2F2000C604740F22E
:1009D000AD4CC2F2000C604740F2D54CC2F2000CA4
:1009E000604740F2234CC2F2000C604740F2A10C79
:1009F000C2F2000C604740F2A10CC2F2000C60474A
:100A000040F2930CC2F2000C604740F2554CC2F227
:100A1000000C604740F6110CC2F2000C604740F633
:100A2000413CC2F2000C604740F6197CC2F2000C57
:100A3000604741F6B55CC2F2000C604710B502B9E0
:100A40000268531C01D103685A1C21F0704139B16E
:100A50002AB1037A5C1C0472446844F823200160C4
:100A600010BD0000044A01238340106809B11843F7
:100A700000E098431060704700740040044A9314EB
:100A80008340106809B1184300E098431060704734
:100A90000074004030B5084C236840F6FE72824076
:100AA0009343D1E900252A43D1E902510D432A435A
:100AB00082401A43226030BD00740040074A9042D1
:100AC00001D2074801E005481038064A8B0001EAC8
:100AD000020101D5C1607047816070471064024017
:100AE000006002407D0F7D0F0029016802D041F0B7
:100AF000010101E021F001010160704710B50C0611
:100B000001F01E0304D54AB1446944F080044461F5
:100B100080290CD042B10168194307E0426922F0F4
:100B200080024261802902D001689943016010BDB2
:100B300030B50368124ACC6813400A682243D1E9F1
:100B400005452C432243CC6922430C6A22434C6A5C
:100B500022438C6A22434C6B22438C6B22431A4300
:100B60000260426922F00703D1E90B2422431A43B1
:100B700042610A6942604A6882608968C16030BD2A
:100B80003F801CF02DE9F04782B0044601F070FC74
:100B900007191F4CDFF86880DFF868901A4B1B4D6F
:100BA000A4F10C06A4F1100AD8F800005968B0FBB3
:100BB000F9F02268D3F800C0891A4CF0010CC3F890
:100BC00000C0D5F800C04CF0807CC5F800C0814260
:100BD00007D3B1FBF0F101FB00202060306808442E
:100BE0003060DAF804000097019001A9684604F02B
:100BF000ADFD002801D100BFD6E702B0BDE8F08707
:100C00008464002040420F00001000E0FCED00E092
:100C1000E42300202DE9F04F82B0A0F1010B002861
:100C200037D0224DDFF87480DFF874901D4C1E4ED3
:100C3000A5F10C07A5F1100A01F01AFC00F57A7372
:100C4000D8F800006168B0FBF9F02A68D4F800C059
:100C5000891A4CF0010CC4F800C0D6F800C04CF062
:100C6000807CC6F800C0814207D3B1FBF0F101FBE4
:100C700000202860386808443860DAF804000093DF
:100C8000019001A9684604F061FD28B1BBF1010B98
:100C9000D2D202B0BDE8F08F00BFD1E7846400205B
:100CA00040420F00001000E0FCED00E0E4230020D3
:100CB00070B504460D462DB1002229462046FFF7A7
:100CC000BDFE70BD206820F0704140F20112881A0C
:100CD00091421CD004DC61B1B1F5807F06D112E0F5
:100CE000012818D0A0F55060FF3815D000202060F2
:100CF00000BF207A18B1204600F0C2FD02E0204675
:100D000000F066FA11E02068401C20600DE02068C9
:100D1000401C206009E008E005F02EFB05F040FBD8
:100D200005F036FB05F014FB00BF00BF00BFC8E7AD
:100D300010B5174C4FF400202060401200F08EF8E0
:100D40001449888800EB400202EBC00001EBC002AE
:100D5000B1F87012107D21F40041102902D0112940
:100D600007D00EE00C4920F08000098AC1F38021F1
:100D700005E00A4920F080000988C1F3C01140EA6B
:100D8000C1101075FFF7ECFD4FF00810206010BD8A
:100D90001804024012240020000002401008024003
:100DA000042000F05BF80D494FF4807008600C4897
:100DB000018A11F0040F04D100BF018A11F0040F61
:100DC000FAD0BFF34F8F07480168074A01F4E0618A
:100DD00011430160BFF34F8FFEE7000080E200E0A7
:100DE000000002400CED00E00400FA0510B5174CBD
:100DF0004FF400202060802000F030F814498888EB
:100E000000EB400202EBC00001EBC002B1F870122F
:100E1000107D21F40041102902D0112907D00EE0E5
:100E20000C4920F08000098AC1F3802105E00A49BD
:100E300020F080000988C1F3C01140EAC11010758C
:100E4000FFF78EFD4FF00810206010BD180402401F
:100E500012240020000002401008024001490860EE
:100E600070470000143C014030B51A49837902688C
:100E700053B30B6893430B600A1D13680468A343C4
:100E8000136002790A441368046823431360114A0B
:100E9000083213680468A3431360131D1C680568B7
:100EA000AC431C604479102C05D021440A680068CA
:100EB00002430A6030BD116804682143116019685B
:100EC00000680143196030BD00790844016891430E
:100ED000016030BD003C01400149086070470000DE
:100EE0000C3C024005490028086802D040F48060AC
:100EF00001E020F48060086070470000003C024080
:100F00000248016841F4805101607047003C024092
:100F10007FB504466946204602F049FD0546022198
:100F2000284600F001F87FBD70B50646002529B1BE
:100F3000012927D0022928D04FF4407500F0B8F8D5
:100F400008281ED1124C206820F4407020602068D0
:100F500028432060206820F0F8002060206846F0D8
:100F6000020108432060206840F48030206000F0D7
:100F70009FF8216821F002012160216821F0F80129
:100F8000216070BD4FF48075D8E74FF40075D5E748
:100F9000103C02400B4908200A68D20301D5012009
:100FA00070470A68D20601D5052070470A6812F01A
:100FB000EF0F01D00620704709688907FBD507208D
:100FC000704700000C3C024005490028086802D028
:100FD00040F4007001E020F40070086070470000E9
:100FE000003C02400248016841F400610160704722
:100FF000003C02400248016841F000410160704736
:10100000103C024005480068C00705D00348044969
:101010000C3801600349016070470000143C024035
:101020003B2A19087F6E5D4C05490028086802D0EC
:1010300040F4807001E020F4807008607047000088
:10104000003C024070B50D46064600F031F8082815
:1010500013D10A4C206820F440702060206840F4CE
:1010600080702060206840F001002060358000F032
:101070001FF8216821F00101216070BD103C024081
:101080000149087070470000003C024005480068B4
:10109000002805DA034804490C380160034901605F
:1010A00070470000103C024023016745AB89EFCD3B
:1010B00008B508208DF80000FFF76CFF8DF80000E0
:1010C0009DF800000128F7D09DF8000008BDF0B59C
:1010D0000023012403270D6804FA03F2154095420A
:1010E00042D1D0F800C05E0007FA06F52CEA050CE4
:1010F000C0F800C091F804C0D0F800E00CFA06FC7B
:101100004CEA0E0CC0F800C091F804C0BCF1010F0D
:1011100002D0BCF1020F1FD1D0F808C02CEA050C98
:10112000C0F808C091F805C0D0F808E00CFA06FC39
:101130004CEA0E0CC0F808C0D0F804C02CEA020C2F
:10114000C0F804C0426891F806C00CFA03FC1FFA0C
:101150008CFC42EA0C024260C268AA43C260CA79AF
:10116000C568B2402A43C2605B1C102BB3D3F0BDEC
:101170004B07DB0E9A40C90810B500EB8100016AED
:101180000F249C40A1430162016A1143016210BD1A
:1011900010B5064800F08AFA044800680449B0FB1C
:1011A000F1F00449088000F0FBFB10BD84640020CE
:1011B00040420F00D423002070B504460D46E0687D
:1011C00004F0BEFF18B1E068294605F019F870BDBB
:1011D00010B50446206868B9207A58B9E06804F070
:1011E000C6FF2060206810F0004F03D02168204621
:1011F000FFF7E2FF206810BD70B50F21C4780278B8
:1012000001234FF0E026E4B1124C246804F4E064BA
:10121000C4F5E064C4F30724C4F10405E140447854
:10122000AC4085780D4025430B4C290111550078C1
:1012300000F01F018B40400906EB8000C0F8003130
:1012400070BD02F01F008340500906EB8000C0F81B
:10125000803170BD0CED00E000E400E02DE9FF4FAF
:101260002DED108BB9B005461C46C022B34908A825
:10127000FFF77BFB4B994A9800EB010BD5F88400F4
:10128000C08B0A2864D1204604EBD0714A104FF479
:10129000F053A3EB8B118A1A5699A2EB810100EE51
:1012A000101AB8EEC00A05F1900181EDE50A084672
:1012B00090EDE50AF7EE000AB4EEE00AF1EE10FA5E
:1012C00003D2B7EE000A80EDE50A05F1900090ED3B
:1012D000E50ADFED9B0AB4EEE00AF1EE10FA03DD59
:1012E0009FED970A80EDE50A05F1900090EDE50A83
:1012F000DFED940A30EEC00ADFED930A80EE201A8B
:1013000011EE106A3046FFF735FB41EC190BB0EED9
:10131000491AF0EE691A9FED8D0BFFF730FB8DED4A
:10132000060B9DED060B53EC102B9FED8A0B51EC39
:10133000100BFFF729FB41EC100BB0EE40AAF0EECA
:1013400060AA51EC1A0BFFF724FBC5F82804EBE068
:10135000ABF10C0B4FEAE47104EB1171039409112A
:101360000BD4A146E11704EB11710911A046E21755
:1013700004EB1272A1EB22110AE02746E11704EBFD
:10138000117109112646E21704EB127201EB2211CA
:101390000846FFF703FB41EC180B0C209BFBF0F019
:1013A00080B205900C219BFBF1F001FB10B081B2E3
:1013B00004912046E11704EB11710A11049902EB24
:1013C000C1010FFA81FABAF1000F01DA4FF0000AF9
:1013D000BAF1600F01D34FF05F0A0122059902FABA
:1013E00001F0FFF7DBFA41EC1A0B08A931F81A00FB
:1013F000FFF7D4FA41EC100BB0EE40EAF0EE60EAF1
:1014000053EC182B51EC1E0BFFF7BEFA41EC100BFE
:101410008DED000B53EC182B9FED500B51EC100B86
:10142000FFF7C1FA41EC100BB0EE40EAF0EE60EAD3
:1014300008A931F81A00FFF7B1FA41EC100BB0EE31
:1014400040FAF0EE60FA53EC1E2B51EC1F0BFFF745
:101450009BFA41EC100BB0EE40DAF0EE60DA9DED55
:10146000000B53EC102B51EC1D0BFFF7A1FA41ECD4
:10147000100BB0EE40CAF0EE60CA9FED3A0B53EC91
:10148000102B51EC1C0BFFF77FFA41EC100B8DED8C
:10149000020B53EC1A2B9DED020B51EC100BFFF7D6
:1014A0008CFA41EC100BB0EE40BAF0EE60BA51ECA1
:1014B0001B0BFFF76EFAC5F8240405F19000D0ED80
:1014C000E50A5698400000EE100AB8EEC00A30EE69
:1014D000C00A05F1900080EDE50A90EDE50AF7EE0F
:1014E000000AB4EEE00AF1EE10FA03D2B7EE000AF9
:1014F00080EDE50A05F1900090EDE50ADFED100AB8
:10150000B4EEE00AF1EE10FA03DD9FED0D0A80ED76
:10151000E50A05F1900090EDE50ADFED140A80EE92
:10152000801A80EDE61A00BF05F1900090EDE60A02
:1015300039B0BDEC108BBDE8FF8F0000D06400080F
:1015400000FF7F470000904500004044000000007D
:1015500000000040000000008055C0400000000076
:101560000000F03F000000000000304090775A4B30
:10157000044A0029116801D0014300E08143116051
:101580007047000030380240044A0029116801D039
:10159000014300E08143116070470000343802408D
:1015A000044A0029116801D0014300E08143116021
:1015B0007047000040380240044A0029116801D0F9
:1015C000014300E081431160704700002038024071
:1015D000044A0029116801D0014300E081431160F1
:1015E0007047000044380240044A0029116801D0C5
:1015F000014300E08143116070470000243802403D
:1016000038B500F035F8012000F0B6F800F0F4F835
:101610000446012C2AD1072002236E2204210090C7
:10162000080500F0CBF8012000F0C2F800BF392017
:1016300000F07EF80028FAD00520FFF721FD0120F8
:10164000FFF7F2FC0120FFF7BFFC0120FFF74AFC87
:10165000002000F087F84FF4805000F095F84FF428
:10166000805000F09BF8022000F0BCF838BD00006C
:101670000B48016841F001010160094A002108326C
:1016800011600268074B1A400260031D064A1A6087
:10169000026822F48022026001480C300160704729
:1016A00000380240FFFFF6FE1030002430B51D4A1E
:1016B00011681D4B11F00C0103D0042901D0082939
:1016C00001D0036015E01749091F0C68C4F3805569
:1016D0000C6804F03F04B3FBF4F30C680968C4F32E
:1016E00088146343C1F30141491C4900B3FBF1F184
:1016F000016011680F2303EA11110C4B5C5C016857
:10170000E14041601468072505EA94241C5D21FA34
:1017100004F48460126805EA52329A5CD140C160D8
:1017200030BD0000083802400024F4009C23002053
:1017300002460020510901290BD002290CD008498A
:10174000096802F01F02012393400B4200D00120E0
:10175000704703497439F3E70149091FF0E70000B6
:1017600074380240034A116821F0F001014311600E
:101770007047000008380240024900220A700870D1
:101780007047000002380240034A116821F4E0511A
:1017900001431160704700000838024003490A689D
:1017A00022F4604242EAC0000860704708380240F4
:1017B00001490866704700000000474241EA821173
:1017C0005A0810B5054B029C03EB0242114301433A
:1017D00041EA04600249086010BD00000000FFFFFC
:1017E00004380240034A116821F0030101431160EB
:1017F000704700000838024018B500204FF4A0647C
:1018000000903120FFF794FF0099491C0091A142FC
:1018100001D00028F5D03120FFF78AFF002800D042
:10182000012018BD05490028086802D040F00400D6
:1018300001E020F004000860704700000008065036
:1018400010B501214020FFF79FFE0120FFF7EAFFBE
:1018500010BD000010B5064804F0BAFC002804BF13
:101860004FF6FF7010BD0248BDE8104004F070BC98
:10187000B4230020014804F0ABBC0000B4230020D6
:101880000146087A38B1087A401E087248680A7A18
:1018900050F822000860086870470029018802D0CB
:1018A00041F0400101E021F0400101807047002A31
:1018B000828801D00A4300E08A438280704700009A
:1018C000114910B588420AD1841401212046FFF73E
:1018D0008BFE2046BDE810400021FFF785BE0B4976
:1018E000884202D10121041404E0094988420AD146
:1018F0000121C4132046FFF75FFE2046BDE81040DB
:101900000021FFF759BE10BD0030014000380040F3
:10191000003C004030B502884C8802F441530A88EC
:10192000CD8822438C882C4322430C8922434C8946
:1019300022438C892243CC8922431A430280828B22
:1019400022F400628283098A018230BDA1F57E42C1
:101950000188FF3A02D041F4807101E021F48071E6
:10196000018070470029818802D041F0040101E024
:1019700021F004018180704710B58A0721F003042B
:101980000649130F21440F220C689A4094430C60BF
:101990000A68984002430A6010BD00000838014000
:1019A00010B500BF012341F211020321584803F092
:1019B0002DFE00BF00BF00234FF480520221544887
:1019C00003F024FE00BF00F05DF900BF012340F2E8
:1019D000033204214F4803F019FE00BF00BF01236A
:1019E00040F2033205214B4803F010FE00BF00BF58
:1019F000002310221946464803F008FE00BF00BF2E
:101A0000002310220121424803F000FE00BF00BF66
:101A100000234FF4805202213D4803F0F7FD00BF40
:101A200000BF00234FF480520421394803F0EEFD3B
:101A300000BF00BF00234FF480520521344803F05B
:101A4000E5FD00BF00BF00234FF48052062130485F
:101A500003F0DCFD00BF00BF00234FF480520721DC
:101A60002B4803F0D3FD00BF00BF03231022082141
:101A7000274803F0CBFD00BF00BF0323102209213C
:101A8000234803F0C3FD00BF00BF032310220A2137
:101A90001F4803F0BBFD00BF00BF032310220B2132
:101AA0001B4803F0B3FD00BF00BF032310220C212D
:101AB000174803F0ABFD00BF00BF032310220D2128
:101AC000134803F0A3FD00BF00BF032310220E2123
:101AD0000F4803F09BFD00BF00BF032310220F211E
:101AE0000B4803F093FD00BF00BF0023102202212A
:101AF000084803F08BFD00BF0520FFF78BF8044872
:101B000010300078C0F380000349087010BD000059
:101B10000004024000000240B02300202DE9F047FD
:101B2000DFF898A005000C4628D0002C08BFBDE8BF
:101B3000F087234F4FF020084FF0E029B888264661
:101B4000B04238BFBE881E4804F0FAFAB042FAD359
:101B5000C9F88481B2B22946194804F058FB012221
:101B600040F22771504600F0AFFDC9F80481B0B2D1
:101B700015FA86F5241AE1D1BDE8F087200C08BFDC
:101B80008CB207D088B200F039F8BDE8F0470420E5
:101B900000F0D2BC0A4804F01BFB0028FAD1402117
:101BA000504600F06BFD0028F4D0052000F0C4FC86
:101BB0002046BDE8F04700F021B8000000100140C9
:101BC000C423002001B501216846FFF7A7FF08BD27
:101BD000014A002104F0BEB9C51B000810B5024837
:101BE00004F0AEFA80B210BDC423002041F480514D
:101BF000014A04F0AFB90000C51B0008F8B51A4D42
:101C000004461A4804F0E4FA0028FAD14021284694
:101C100000F034FD0028F4D0002C08BFF8BD0220ED
:101C200000F08AFC322C38BFFF2615D28DF80060F8
:101C300001216846FFF772FF601E0404240CF5D1F1
:101C40000A4804F0C5FA0028FAD14021284600F0DD
:101C500015FD0028F4D002E02046FEF793FFBDE812
:101C6000F840032000F068BC00100140C4230020AD
:101C700010B50446FEF765FE01462046BDE810405B
:101C8000FFF74CBF00B595B00121C803FFF788FCF2
:101C900001214805FFF76CFC00BF012340F202322E
:101CA0000A21714803F0B2FC00BF00BF012340F2DB
:101CB00012320B216C4803F0A9FC00BF00BF0123C6
:101CC00040F202320C21684803F0A0FC00BF00BFC4
:101CD000012340F202320F21644803F097FC00BF59
:101CE00006220A216048FFF743FA06220B215E48CC
:101CF000FFF73EFA06220C215B48FFF739FA06226D
:101D00000F215A48FFF734FA0020119012901390D7
:101D10004FF400500E9000200F905548079000207F
:101D200014904FF400600D9080000E9000200B90F6
:101D30004FF40030109040120F9000200690402089
:101D400009904C48089001200A9000200C90002136
:101D50004948FEF7C9FE00BF4748006810F0010F70
:101D6000FAD106A94448FEF7E3FE00200690099048
:101D70004248089001200A9080020C9000213E48C1
:101D8000A838FEF7B1FE00BF3B48B838006910F034
:101D9000010FF9D106A93848A838FEF7C9FE38491D
:101DA0003548A838FEF78AFE36493348FEF786FEE6
:101DB00001213148A838FEF797FE01212E48FEF791
:101DC00093FE2B480C38FFF77BFD4FF44040ADF8F5
:101DD00004004FF48270ADF806004FF40060ADF8D7
:101DE00008000220ADF80A000020ADF80C004FF406
:101DF0000070ADF80E000020ADF81000ADF8120034
:101E00000720ADF8140001A919480C38FFF782FD2E
:101E1000012117480C38FFF7A5FD15480838008840
:101E200040F01000124908390880891510480C3814
:101E3000FFF78CFD01210E480C38FFF72EFD012223
:101E400011460B480C38FFF732FD012202210848E9
:101E50000C38FFF72CFD012210210748A838FEF7A7
:101E60004DFE15B000BD0000000802400000024019
:101E70000C3C0040AC230020B8600240AE230020A0
:101E80003D008010400F002030B587B004461C2272
:101E900016A16846FEF769FDA069FEF752FD0546EA
:101EA0002A466846A169FEF78DFD6846FFF7E0FE09
:101EB00008212068FFF79AFE13A0FFF7D9FE08213A
:101EC0006068FFF793FE11A0FFF7D2FE0821A0681B
:101ED000FFF78CFE0CA0FFF7CBFE0821E068FFF7B0
:101EE00085FE0BA0FFF7C4FE07B030BD2E2E2E2EB0
:101EF0002E2E2E2E2E2E2E2E2E2E2E2E2E2E2E2E02
:101F00002E2E2E2E2E2000002E000000200000007D
:101F10000D0A000010B519A0FFF7AAFE18A0FFF7E0
:101F2000A7FE1CA0FFF7A4FE1EA0FFF7A1FE2149FB
:101F300009888802FFF74CFE10A0FFF799FE1EA04B
:101F4000FFF796FE1B49123908680821FFF74EFE7D
:101F50002020FFF737FE17490E3908680821FFF7E0
:101F600045FE2020FFF72EFE12490A390868082195
:101F7000FFF73CFE01A0FFF77BFE10BD0D0A00003D
:101F8000426F6F7420466C6173686572202E2E2E2E
:101F90000D0A0000456E747572652047726F75708A
:101FA0000D0A0000466C6173682053697A653A2017
:101FB00000000000227AFF1F4465766963652000F7
:101FC00010B50448006840F4700002490860FFF74B
:101FD00017FB10BD88ED00E070B5048C24F00104FF
:101FE0000484058B048C4FF6FF7606EA0313134333
:101FF00025F0F3052B4324F00A020A4342F00101C5
:102000000383018470BDF0B5048C24F010040484B3
:10201000078B068C4FF6FF7404EA011527F473470B
:1020200004EA0331394304EA02220A4326F0A001FC
:10203000294341F0100102830184F0BD10B50A88E4
:102040004B88CC881A438B8823431A430B891A4345
:102050004B8989891A430A43A0F8442010BD002106
:10206000018041808180C1800181418181817047EF
:10207000C943018270470029018802D041F0010163
:1020800001E021F0010101807047002A828901D01E
:102090000A4300E08A43828170472DE9F0410D46F2
:1020A0000E884988AA882B89044616B3042E28D0A6
:1020B000082E268C4FF6FF702BD026F480562684EF
:1020C000A78B268C00EA022200EA013127F473472D
:1020D0003A4300EA0330104326F420420A4342F414
:1020E0008051A0832184E9882046BDE8F04100F0BA
:1020F0006BB9FFF771FFE9882046BDE8F04100F0B9
:1021000047B9FFF780FFE9882046BDE8F04100F0BD
:1021100047B926F480762684A78B268C00EA012115
:1021200000EA0310104327F0F307384326F4206237
:102130000A4342F48071A0832184E9882046BDE8E7
:10214000F04100F039B9002A828901D00A4300E049
:102150008A4382817047000030B5028C22F0010270
:102160000284028C8388048B22F0020224F073051F
:102170000C882C438D8915434A882A430C4DA8426C
:1021800002D00C4DA8420DD122F00805CA8923F4D3
:1021900040732A4322F004058A882A430D8A1D438E
:1021A0004B8A2B438380048389684163028430BD5A
:1021B0000000014000040140028B22F008020A43A3
:1021C0000283704770B5028C22F010020284028CE8
:1021D0008488038B0D8823F4E6464FF6FF7303EAE9
:1021E000052535438E8922F0200203EA06161643A0
:1021F0004A8803EA02123243104EB04202D0104E17
:10220000B04215D122F08006CA8924F4406403EA62
:102210000212324322F040068A8803EA0212324355
:102220000E8A03EA860626434C8A03EA8404344372
:102230008480058389688163028470BD0000014049
:1022400000040140028B4FF6FF7322F4006203EAA0
:10225000012111430183704770B5028C22F4807212
:102260000284028C8488838B0D8823F073031D43C2
:1022700022F400738E894FF6FF7202EA06261E438F
:102280004B8802EA03233343104EB04202D0104E73
:10229000B04215D123F40066CB8924F4405402EAFD
:1022A0000323334323F480668B8802EA03233343FA
:1022B0000E8A02EA061626434C8A02EA04143443C4
:1022C000848085838968C163038470BD00000140F8
:1022D00000040140828B22F008020A438283704787
:1022E00070B5028C22F480520284048C8288838B25
:1022F0000D8823F4E6464FF6FF7303EA05253543C0
:1023000024F400568C8903EA043434434E8803EAEB
:1023100006362643084CA04202D0084CA04205D104
:1023200022F480440A8A03EA82122243828085834F
:1023300089680164068470BD00000140000401400A
:10234000828B4FF6FF7322F4006203EA01211143EE
:1023500081837047028922F070020A43028170472C
:10236000028922F08002028102890A4302817047B9
:10237000828822F07002828082880A4382807047BD
:10238000028922F00702028102890A430281704712
:10239000028B22F00C020283028B0A4302837047F5
:1023A000028B22F440620283028B4FF6FF7303EA32
:1023B00001210A4302837047828B22F00C02828340
:1023C000828B0A4382837047828B22F4406282832D
:1023D000828B4FF6FF7303EA01210A438283704721
:1023E00030B50288164B174C98420DD0A0420BD046
:1023F000B0F1804F08D0144DA84205D0134DA8422B
:1024000002D0134DA84203D122F070054A882A4316
:10241000104DA84206D0104DA84203D022F44075BA
:102420000A892A4302804A68C2620A880285984261
:1024300001D0A04201D1897A01860121818230BD7B
:10244000000001400004014000040040000800407A
:10245000000C004000100040001400404FF0FF311D
:10246000416000210180018141808172704700003C
:10247000124810B400681249124BB0FBF1F05968D1
:10248000114A1C68D2F800C0A1EB0C0144F0010411
:102490001C600E4B1C6844F080741C60A2F10C039D
:1024A000814207D3B1FBF0F101FB00C01060186856
:1024B000084418600648406810BC704784640020D7
:1024C00040420F00001000E0E4230020FCED00E09B
:1024D000D4230020134810B400684FF47A71B0FB85
:1024E000F1F0114B5968114A1C68D2F800C0A1EBF9
:1024F0000C0144F001041C600D4B1C6844F0807416
:102500001C60A2F10C03814207D3B1FBF0F101FB87
:1025100000C010601868084418600648C06810BC05
:102520007047000084640020001000E0EC230020CD
:10253000FCED00E0D423002010B52A4C042828BF6D
:1025400010BDDFE800F0021F3D4601211020FFF71B
:102550003FF8072209212046FEF70AFE07220A213A
:102560002046FEF705FE012340F2013209212046F4
:1025700003F04CF8204601231022BDE810400A2148
:1025800003F044B801211020FFF722F807220921A7
:102590002046FEF7EDFD07220A212046FEF7E8FD62
:1025A000012341F202320921204603F02FF8204690
:1025B0000123BDE8104040F202320A2103F026B8A0
:1025C00020460123BDE8104040F20132092103F00A
:1025D0001DB820460123BDE8104041F20232092116
:1025E00003F014B80000024038B51C4C40F22551ED
:1025F000204600F04AF898B1204600F0D9F88DF84E
:102600000000174803F09CFD20B1012269461448E0
:1026100003F0FDFD012240F22771204600F054F83E
:1026200040F22771204600F030F8002808BF38BD7E
:102630000C4803F0CDFD40B10A4803F089FD014686
:102640002046BDE8384000F0B7B82046BDE8384025
:10265000002240F2277100F037B80000001001405E
:10266000B4230020C42300200029818902D041F432
:10267000005101E021F400518181704702460020A1
:1026800012880A4200D00120704730B501F01F02C5
:1026900001240025C1F3421304FA02F2012B0FD0EA
:1026A000022B0FD0838A4FEA11210088134204FACB
:1026B00001F400EA040001D000B10125284630BD34
:1026C0008389F0E7038AEEE710B5C1F3421301F006
:1026D0001F040121A140012B07D0022B07D0143089
:1026E000002A026805D00A4304E00C30F8E71030F5
:1026F000F6E78A43026010BD7FB50446008A0D46A6
:1027000020F44051E88808432082A08941F20C61FE
:102710008843A9882A8911436A8902431143A18108
:10272000A08A20F44071A8890843A0826846FEF779
:10273000BDFF1D48844202D01C48844201D1039849
:1027400000E00298A1890904002900EBC00101EB17
:102750000010296802DA4FEA410101E04FEA8101E5
:10276000B0FBF1F26420B2FBF0F14FEA01114FEA45
:1027700011136FF018056B4302EB8302A3891D044C
:102780004FF0320306D503EBC202B2FBF0F000F0CB
:10279000070005E003EB0212B2FBF0F000F00F00BF
:1027A000084320817FBD000000100140001401405B
:1027B0008088C0F308007047C1F30801818070472A
:1027C00070B5054686B00C460120FFF7B5FE2D4ECC
:1027D00000213046FFF748FF2B4803F0F9FC014683
:1027E000294803F09BFC2109002204F00F00012975
:1027F00008BF4FF4C06142D0022914BF00214FF43A
:1028000080613CD0002808BF4FF4805009D00228D6
:1028100008BF4FF4005004D0032814BF00204FF429
:1028200040500095ADF80420ADF806000020ADF84A
:102830000810ADF80C000C20ADF80A0069463046CF
:10284000FFF75AFF25208DF81000FF208DF81100AA
:102850008DF8120001208DF8130004A8FEF7CCFCBF
:102860000A49F0200870012240F225513046FFF756
:102870002BFF01213046FFF7F7FE06B070BD4FF485
:102880008052BFE700100140B423002025E400E09F
:1028900070B5044600680D46002660B1FFF71AFEC9
:1028A00021680A1A0BD5206852192844206006F1C5
:1028B0000106F8D403E0FFF70DFE284420603046FF
:1028C00070BD0146D1F88400008C401E82B2002009
:1028D00007E001F259431B5C0BB1531E9AB2431C33
:1028E00098B2D1F884301B8C8342F2DC12B90123F8
:1028F00081F8583491F85804704700002DE9F04FE2
:102900002DED068B81B00446B0EE40AA4FF480391D
:102910004FF0400A4FF0FF0BD4F85414491CC4F890
:102920005414D4F85014491EC4F85014D4F8500468
:10293000012877DAD4F8841001F59271D4F84404B0
:1029400000EB800001EB40000189D4F82C048142A7
:1029500031D8D4F83C14491CC4F83C14D4F8841081
:10296000098CD4F83C04884204D3D4F88400418C08
:10297000C4F83C14D4F83C14C4F840142046FFF7C3
:10298000A0FF012104F25940D4F840248154D4F826
:102990002C04000C000402D10021C4F82C14D4F83B
:1029A00084302433D4F83C04195CB4F82C0482B28B
:1029B000204601F079FA204601F0A6F90020AFE0A8
:1029C00000EB800204F5C7511144C9780E2904D0E8
:1029D0000F2928D0172974D13FE000EB800204F5BD
:1029E000C7511144C9780A0100EB800304F5C751AF
:1029F0001944097942EA2111CAB200EB800304F5B7
:102A0000C7511944CA7000EB800204F5C751114444
:102A1000097901F00F0200EB800304F5C751194456
:102A20000A714EE089E000EB800204F5C7511144C1
:102A30000979202908DA00EB800204F5C751114416
:102A40000A79C4F84C2407E000EB800204F5C75172
:102A500011440A79C4F8482433E000EB800204F5FD
:102A6000C7511144097911F0F00102D0102910D199
:102A700000E016E000EB800204F5C7511144C9786C
:102A8000491CCAB200EB800304F5C7511944CA704F
:102A900007E0002200EB800304F5C7511944CA7017
:102AA00000BF00BF00EB800204F5C7511144097953
:102AB00001F00F0200EB800304F5C75119440A71BD
:102AC00000BF00BF012204F50E6101EBC0110A67CF
:102AD00000EB800204F5C7511144C978ED291DD1DE
:102AE00000EB800204F5C7511144097901F00F028F
:102AF00004F50E6101EBC0110A6704F50E6101EBEC
:102B0000C011096F51B104F50E6101EBC0110A6FDC
:102B1000521C04F50E6101EBC0110A67411C88B21A
:102B2000D4F88410098B81423FF74AAFD4F84C1493
:102B3000C4F850140021C4F854140025F1E3002116
:102B400004F50E6000EBC51080F8251004F50E604A
:102B500000EBC510016F491E04F50E6000EBC510B7
:102B60000167002104F50E6000EBC510C16704F594
:102B70000E6000EBC510006F002867D105EB8501E2
:102B800004F5C7500844407800286CD005EB850256
:102B900004F5C75010444078C0EBC00000EB400083
:102BA000D4F880100844017C04F50E6000EBC510D9
:102BB000016205EB850104F5C7500844C07803287D
:102BC00000D14FE005EB850104F5C750405CE0B350
:102BD000002104F50E6000EBC510416505EB850290
:102BE00004F5C75010444078C0EBC00000EB400033
:102BF000D4F88010084490F9111004F50E6000EB31
:102C0000C510C16505EB850204F5C7501044407836
:102C1000C0EBC00000EB4000D4F88010084490F9ED
:102C2000141004F50E6000EBC510016505EB85017D
:102C300004F5C7500844417804F50E6000EBC51058
:102C400080F8241005EB850101E00AE094E004F52A
:102C5000C7500844417804F50E6000EBC51080F8B9
:102C6000251000BF17E005EB850104F5C750405C57
:102C700088B1002104F50E6000EBC510416504F534
:102C80000E6000EBC51090F8241004F50E6000EB08
:102C9000C51080F8251005EB850104F5C750405C90
:102CA000E8B305EB850104F5C7500844C078032854
:102CB0003AD1002104F50E6000EBC510816505EBEB
:102CC000850104F5C750415C04F50E6000EBC510AA
:102CD000017204F50E6000EBC51090F82400C0EB03
:102CE000C00000EB4000D4F88010084490F91110A7
:102CF00004F50E6000EBC510416604F50E6000EBB4
:102D0000C51090F82400C0EBC00000EB4000D4F8E0
:102D10008010084490F9141004F50E6000E00FE0F4
:102D200000EBC51001660AE005EB850104F5C7500C
:102D3000415C04F50E6000EBC510017000BF00BFE0
:102D400005EB850104F5C75008448078102813DB93
:102D500005EB850104F5C7500844807850280BDC4A
:102D600005EB850104F5C75008448178103904F556
:102D70000E6000EBC5100162002104F50E6000EB4F
:102D8000C510416005EB850104F5C7500844C078C3
:102D90000C2879D008DC46D2DFE800F015465E7BCF
:102DA0004545454545FEFDFCE6286ED006DC0D2870
:102DB0006CD0E1286BD0E22835D151E2EA2867D007
:102DC000EB28F9D1AEE20321D4F8540490FBF1F2E0
:102DD00001FB120020B1012809D0022822D113E002
:102DE000002104F50E6000EBC51041601AE005EB10
:102DF000850104F5C75008440079011104F50E60FF
:102E000000EBC51041600DE005EB850104F5C750EE
:102E10000844007900F00F0104F50E6000EBC510C6
:102E2000416000BF00BF95E204F50E6000EBC510E5
:102E3000006F80B104F50E6000EBC51005EB850254
:102E4000416D04F5C75010440079014404F50E604B
:102E500000EBC51041657DE204F50E6000EBC51086
:102E6000006F80B104F50E6000EBC51005EB850224
:102E7000416D04F5C75010440079091A04F50E603D
:102E800000EBC510416565E241E101E29EE1CFE161
:102E90002FE204F50E6000EBC510006F00287CD017
:102EA000D4F83804082801D14FF000084FF000088A
:102EB00004F50E6000EBC510806D009004F50E6007
:102EC00000EBC510436E04F50E6000EBC510026EFA
:102ED00004F50E6000EBC510017A2046FEF7BEF93E
:102EE00004F1900090EDE50A10EE101A0846FDF787
:102EF00041FD41EC100B04F50E6000EBC51080EDB8
:102F0000040B04F1900090EDE60A10EE101A08464A
:102F1000FDF730FD41EC100B04F50E6000EBC51021
:102F200080ED060B04F50E6000EBC51090ED062B4E
:102F3000B0EE420AF0EE620A04F50E6000EBC51036
:102F400090ED122BB0EE421AF0EE621A53EC102BF9
:102F500051EC110BFDF73BFD50D204F50E6000EB78
:102F6000C51005EB8502416D04F5C750104400798A
:102F7000014404F50E6000EBC510416504F50E60D8
:102F800000EBC510406D009004F50E6000EBC5101D
:102F9000C36D03E0FBE0C6E0A7E0A5E004F50E602A
:102FA00000EBC510026D04F50E6000EBC510017852
:102FB0002046FEF753F904F1900090EDE60A10EE7A
:102FC000101A0846FDF7D6FC41EC100BB0EE408A13
:102FD000F0EE608A04F50E6000EBC51090ED061B64
:102FE000B0EE410AF0EE610A53EC102B51EC180BD5
:102FF000FDF7F2FC4DD24FF001084AE004F50E60F7
:1030000000EBC51005EB8502416D04F5C750104477
:103010000079091A04F50E6000EBC510416504F54E
:103020000E6000EBC510406D009004F50E6000EBE3
:10303000C510C36D04F50E6000EBC510026D04F5FC
:103040000E6000EBC51001782046FEF707F904F189
:10305000900090EDE60A10EE101A0846FDF78AFC83
:1030600041EC100BB0EE408AF0EE608A04F50E6081
:1030700000EBC51090ED061BB0EE410AF0EE610AC0
:1030800053EC102B51EC180BFDF7A1FC01D24FF0C3
:103090000108B8F1010F27D104F50E6000EBC5104F
:1030A000017A04F50E6000EBC510017004F50E60A6
:1030B00000EBC510016E04F50E6000EBC510016554
:1030C00004F50E6000EBC510416E04F50E6000EBD8
:1030D000C510C16504F50E6000EBC510816D04F5E7
:1030E0000E6000EBC510416534E105EB850104F588
:1030F000C750405C50B105EB850104F5C75008444A
:10310000017904F50E6000EBC510C16722E105EB03
:10311000850104F5C7500844017904F50E6000EB01
:10312000C510016216E104F50E6000EBC510006FDA
:1031300060B305EB850104F5C7500844007910F031
:10314000F00F12D004F50E6000EBC51005EB850200
:10315000016A04F5C7501044007901EB201104F511
:103160000E6000EBC510016210E004F50E6000EB8C
:10317000C51005EB8502016A04F5C75010440079BB
:10318000091A04F50E6000EBC5100162E2E004F5D7
:103190000E6000EBC510006FB8B94FF00061C4F8C5
:1031A0002C1405EB850104F5C75008440179C4F8D7
:1031B0003C14D4F88410098CD4F83C04884204D31D
:1031C000D4F88400418CC4F83C14C3E004F50E60CC
:1031D00000EBC510006F50BB05EB850104F5C7502F
:1031E0000844007900F00F0105EB850204F5C75093
:1031F00010440079001100EB800041EA4001C4F85E
:103200002C14D4F82C0440F00061C4F82C14D4F829
:103210004014C4F83C14D4F88410098CD4F83C044D
:10322000884204D3D4F88400418CC4F83C1491E063
:1032300004F50E6000EBC510006F80B904F50E6058
:1032400000EBC51005EB8502416D04F5C750104435
:103250000079014404F50E6000EBC510416579E08A
:1032600004F50E6000EBC510006F80B904F50E6028
:1032700000EBC51005EB8502416D04F5C750104405
:103280000079091A04F50E6000EBC510416561E094
:1032900004F50E6000EBC510006F28BB05EB85013F
:1032A00004F5C7500844007920B9D4F83814C4F89C
:1032B00030141DE005EB850204F5C7501044007979
:1032C000D4F83414814210D2D4F8300440F00061B4
:1032D000C4F82C14D4F83414491CC4F83414D4F8A9
:1032E0004014491EC4F83C1402E00021C4F8341410
:1032F00030E004F50E6000EBC510006F80B904F5F6
:103300000E6000EBC51005EB8502016A04F5C7509D
:1033100010440079014404F50E6000EBC510016211
:1033200018E030E204F50E6000EBC510006F80B9C4
:1033300004F50E6000EBC51005EB8502016A04F58B
:10334000C75010440079091A04F50E6000EBC5104F
:10335000016200BF00BF04F50E6000EBC510006AFB
:10336000402805DD402104F50E6000EBC510016228
:1033700004F50E6000EBC510006A002805DA002194
:1033800004F50E6000EBC510016204F50E6000EB61
:10339000C510406D009004F50E6000EBC51090F86C
:1033A00000C004F50E6000EBC51000796044C1B2A6
:1033B00004F50E6000EBC510C36D04F50E6000EB64
:1033C000C510026D2046FDF749FF04F1900090ED15
:1033D000E50A10EE101A0846FDF7CCFA41EC100B86
:1033E00004F50E6000EBC51080ED100B04F19000A9
:1033F00090EDE60A10EE101A0846FDF7BBFA41EC14
:10340000100B04F50E6000EBC51080ED120B04F1FB
:10341000900090EDE50A10EE101A0846FDF7AAFAA2
:1034200041EC100B04F50E6000EBC51080ED0C0BA9
:1034300004F1900090EDE60A10EE101A0846FDF730
:1034400099FA41EC100B04F50E6000EBC51080ED0D
:103450000E0B04F50E6000EBC51090F8207004F51B
:103460000E6000EBC51090F826A04FEA192000FB73
:103470000AF094F85915484300FB07F6B00B00FB1F
:103480000BF6360B04F50E6000EBC510A0F8746067
:1034900004F50E6000EBC51090F8741004F50E6092
:1034A00000EBC51080F8761004F50E6000EBC51037
:1034B00090F8741004F50E6000EBC51080F87710DA
:1034C000D4F88400C08B01287ED035B1012D53D0B3
:1034D000022D7AD0032D4ED1EFE004F50E6101EB01
:1034E000C511B1F87400FDF759FA41EC100BB0EEBC
:1034F000409AF0EE609A9FEDAA0B53EC102B51EC22
:10350000190BFDF741FA41EC100BB0EE408AF0EEDA
:10351000608A51EC180BFDF764FAC1B204F50E6035
:1035200000EBC51080F8761004F50E6101EBC511B3
:10353000B1F87400FDF732FA41EC100BB0EE409A8E
:10354000F0EE609A9FED980B53EC102B51EC190B99
:10355000FDF71AFA41EC100BB0EE408AF0EE608AEB
:1035600051EC180BFDF73DFAC1B204F50E6000EB0B
:10357000C51080F87710EFE004F50E6101EBC5117E
:10358000B1F87400FDF70AFA41EC100BB0EE409A66
:10359000F0EE609A9FED820B53EC102B51EC190B5F
:1035A000FDF7F2F941EC100BB0EE408AF0EE608AC4
:1035B00051EC180BFDF715FAC1B204F50E6000EBE3
:1035C000C51080F8761001E0C7E027E004F50E6131
:1035D00001EBC511B1F87400FDF7E0F941EC100BF7
:1035E000B0EE409AF0EE609A9FED710B53EC102B09
:1035F00051EC190BFDF7C8F941EC100BB0EE408A05
:10360000F0EE608A51EC180BFDF7EBF9C1B204F54E
:103610000E6000EBC51080F877109DE004F50E6198
:1036200001EBC511B1F87400FDF7B8F941EC100BCE
:10363000B0EE409AF0EE609A9FED5D0B53EC102BCC
:1036400051EC190BFDF7A0F941EC100BB0EE408ADC
:10365000F0EE608A51EC180BFDF7C3F9C1B204F526
:103660000E6000EBC51080F8761004F50E6101EBDA
:10367000C511B1F87400FDF791F941EC100BB0EEF3
:10368000409AF0EE609A9FED460B53EC102B51ECF4
:10369000190BFDF779F941EC100BB0EE408AF0EE12
:1036A000608A51EC180BFDF79CF9C1B204F50E606D
:1036B00000EBC51080F877104EE004F50E6101EBC9
:1036C000C511B1F87400FDF769F941EC100BB0EECB
:1036D000409AF0EE609A9FED340B53EC102B51ECB6
:1036E000190BFDF751F941EC100BB0EE408AF0EEEA
:1036F000608A51EC180BFDF774F9C1B204F50E6045
:1037000000EBC51080F8761004F50E6101EBC511D1
:10371000B1F87400FDF742F941EC100BB0EE409A9D
:10372000F0EE609A9FED1E0B53EC102B51EC190B31
:10373000FDF72AF941EC100BB0EE408AF0EE608AFA
:1037400051EC180BFDF74DF9C1B204F50E6000EB1A
:10375000C51080F8771000BF00BF04F50E6000EBC5
:10376000C51090F8761004F50E6000EBC51090F8C7
:10377000770041EA002104F50E6000EBC510A0F8C7
:103780007810681C85B2D4F88400008BA8423FF7FB
:10379000D6A994F8580401B0BDEC068BBDE8F08FB3
:1037A000000000000000F03F9A9999999999D93F3B
:1037B000CDCCCCCCCCCCEC3F02E008C8121F08C169
:1037C000002AFAD170477047002001E001C1121FA2
:1037D000002AFBD17047000030B50246002307489D
:1037E0000068824208D201F009FF511C042505FB44
:1037F00011031C681B1B00BF184630BD9823002016
:1038000010B504462046FFF7E7FF10BD10B501F0E4
:10381000F5FE041F00220020114908600AE010484C
:103820000068984204D2501C03EB80000C490860E9
:10383000241F521C2368581C01D0082AEFD3581C9F
:1038400003D0002006490860002201F0D7FE044999
:103850000968401A034908600348026090B210BD2D
:1038600094230020902300209823002070B500248A
:10387000FFF7CCFF054635B10448016804480068ED
:1038800001F09CFE0446204670BD000094230020F9
:103890009023002070B5FFF7B9FF04465CB1FFF735
:1038A000E5FF05460548006830F8026CB54201D1D5
:1038B000012070BD00BF0020FBE700009023002026
:1038C00070B505462846FFF79BFF0446A26860686E
:1038D00004F11201FCF766FC70BD70B50546284680
:1038E00000F009F80446A4F57F40FF3802D02046D6
:1038F000FFF7E6FF70BDF0B50546FFF787FF064608
:103900006EB1002409E0A0B2FFF77AFF0746B8893C
:10391000A84201D1A0B2F0BD641CB442F3D34FF66B
:10392000FF70F8E770B5802501F068FEA0F1800413
:103930008021204600F012F870BD10B50446FDF756
:10394000A5FBB320FDF7C8FA2046FDF7E1FAFDF725
:1039500051FBFDF747FBFDF7D3FA10BD2DE9F0470A
:1039600005460E46AC0BA403281B87191BE04FF03D
:10397000FF384FF48059A24607E0DAF8000000EA69
:1039800008080AF1040AA9F10109B9F1000FF4D1FC
:1039900018F1010002D02046FFF7CFFF04F5804464
:1039A000A7F5804700BF002FE1DCBDE8F08770B5C8
:1039B000024600234FF4804412F4702F03D1782084
:1039C00000EAD2230EE0782000EA5233082B06D01A
:1039D00000EA530000F120034FF4003402E01833F2
:1039E0004FF480340A60D808C8608C6001F0FCFD98
:1039F000C2F31305661EB54328444860184670BDDF
:103A00002DE9F047074688461546002D2DD03C4647
:103A1000C1464FF47F46FDF739FBB320FDF75CFA52
:103A20000FE0301299F8001040EA0126641C09F1F9
:103A300001096D1E14F0010F03D1A01E3146FDF7E0
:103A400001FB002DEDD114F0010F07D04FF47F40A2
:103A500040EA2626601E3146FDF7F4FAFDF7CAFA61
:103A6000FDF7C0FAFDF74CFA00BFBDE8F0872DE97D
:103A7000FC4105460E4617461C46002003463A46C2
:103A80003146CDE90004284600F002F8BDE8FC818B
:103A90002DE9FF4F87B0074614469846DDE9149A92
:103AA00004EB09052648808C002843D014222549C0
:103AB00002A8FCF75AFF03970495ADF814A0CDF8BF
:103AC00016501F48868C05F1120BD0F82600A0EB8B
:103AD0000B001B49C1F8260001F090FD243800EBD3
:103AE00086001749D1F82610401A0190144901EBBD
:103AF0008601019808601249D1F82600122202A915
:103B0000FFF77EFF0E49D1F8261001F11200224680
:103B10000899FFF775FF0A49D1F8261012310819E4
:103B20004A464146FFF76CFF0548808C401E044919
:103B3000888400BF024890F824000BB0BDE8F08FE5
:103B400059620020647C000838B505E0AA230022F1
:103B500011461046FFF78BFF1348808C0028F5D1E3
:103B600001F04CFDA0F124040F48D0F82600251ADE
:103B70000D49D1F82600294601F020FD0090BDF83E
:103B800000202421084801F003FD00900649D1F8E7
:103B90002610881E02226946FFF732FF24220249BE
:103BA0002046FFF72DFF38BD5962002010B5FFF702
:103BB000B9FE2A210748FCF719FF01F01FFD243840
:103BC0000449C1F826004FF0FF30086008208884BF
:103BD00010BD0000596200202DE9F04704464FF067
:103BE0000008B4F8440485B2B4F82C0487B2B4F8E1
:103BF0008800A8427CDDD4F8840000F5927005EBC3
:103C0000850100EB41000089B84275DD3C48D0F8E1
:103C10002064A02100F5C750FCF7EDFE002048E02D
:103C2000D4F8842002F5927205EB850302EB43027F
:103C3000D2F800C03246761C1CF8021011F0800F3A
:103C400015D1D4F8843003F5927305EB850C03EBA2
:103C50004C031B689A5900EB800C2A4B0CF803109C
:103C600000EB800C6344C3F80120361D1FE00022E6
:103C70001BE011F0010F15D0D4F884C00CF5927C34
:103C800005EB85090CEB490CDCF800A0B446761C6A
:103C90001AF80C3000EB8009DFF868C0CC440CF84F
:103CA000023000BF4910531C9AB2052AE1DB411CC7
:103CB00088B21349D1F88410098B8142B0DC1048D6
:103CC000C0F82064C4F83874D4F82C14491CC4F823
:103CD0002C14D4F8840000F5927005EB850100EBFC
:103CE00041000189D4F82C04814202D1022001E074
:103CF00002E00120804600BF4046BDE8F08700009A
:103D000008270020E83F00207FB505462846FFF73A
:103D100063FF06461449D1F838040221FDF766FF17
:103D200012A0FDF7A5FF00240FE014B110A0FDF7CD
:103D30009FFF04EB84020F495018694600F01EF8FB
:103D40006846FDF795FF601C84B20748D0F88400F0
:103D5000008BA042E9DC05A0FDF78AFF06A0FDF775
:103D600087FF304604B070BD082700207C000000AB
:103D700020000000E83F00200D0A0000F0B591B0DF
:103D800005460C46282232A107A8FCF7EEFD28784C
:103D900000282CD0287861281ADA1C2236A168461F
:103DA000FCF7E3FD2878401E0C2190FBF1F087B270
:103DB0002878401E90FBF1F201FB120086B26846A3
:103DC00000EB46000088208007F13000A07013E06F
:103DD0002878612805D12FA0018821808078A070E3
:103DE0000AE02DA0018821808078A07004E02BA03B
:103DF000018821808078A070E41C687830B16878F0
:103E0000224648F2020102F0A1F802E024A0008854
:103E10002080A41CA87830B1A878224648F202017C
:103E200002F094F802E01FA000882080A41CE8782B
:103E300007A9085C04F8010B2879224648F2020120
:103E400002F084F8A41C0020207011B0F0BD000026
:103E500030313233343536373839414243444546C0
:103E60004748494A4B4C4D4E4F505152535455566A
:103E70005758595A00000000432D4323442D442332
:103E8000452D462D4623472D4723412D4123422DC5
:103E900000000000205820003F3F3F002D2D2D0046
:103EA0002E2E00002D2D000070B504460D4616463E
:103EB000B4F88800A84225DDC4F84454D4F884003E
:103EC00000F5927005EB850100EB41000089B042DE
:103ED0000ADCD4F8840000F5927005EB850100EB54
:103EE00041000089401E86B20021C4F82014C4F8A5
:103EF0002C1402E02046FFF76FFE3000A6F101010E
:103F00008EB2F7D170BD2DE9F04104460D4617463B
:103F1000D4F88400008CA84204DCD4F88400008C1F
:103F2000401E85B2D4F884002430465D31463A46BE
:103F30002046FFF7B9FFBDE8F08170B504460E4694
:103F400043F6F00104F19000FCF755FDC4F8186445
:103F5000D4F88400818BC4F84814D4F88400418BD1
:103F6000C4F84C14D4F884102431D4F83C04095C0F
:103F7000C4F8441400252EE0402104F50E6000EB47
:103F8000C510016204F50E6000EBC51080F8261024
:103F9000302104F50E6000EBC5100170C5EBC502C1
:103FA00004F1900000EB8200D4F880104161002100
:103FB000C5EBC50304F1900202EB830251609160EE
:103FC000C5EBC50204F1900101EB8200002100F075
:103FD0000EFB681C85B2202DCEDBB4F8400481B204
:103FE00000222046FFF78FFF012104F25940D4F848
:103FF00040248154402184F859154FF0FF31C4F812
:104000005414FF21D4F88400028C04F259408154E6
:1040100070BD00002DE9F05F04464FF0000A204615
:1040200000F0EAF80646B6F5807F5AD94FF4002032
:104030002D490860C6124EE0D4F81C0410B9204681
:1040400000F054F83546D4F81004C0F50067BD42BE
:1040500000D93D46D4F81C04A84201D2D4F81C541F
:104060004FF0040905FB09F104F1900241F6F00C50
:104070006244D4F8103402EB8300FCF7BCFC4FF030
:10408000000818E0D4F88420138B04F1900241F664
:10409000F00B5A44D4F810C402EB8C01C8EBC80CE6
:1040A00004F1900202EB8C002A4600F0C1F908F1FD
:1040B00001001FFA80F8D4F88400008B4045E1DC51
:1040C0002946204600F0C6F8761BD4F81C04411B94
:1040D000C4F81C1400BF002EAED14FF008100249E6
:1040E00008605046BDE8F09F180402402DE9F041F9
:1040F000044604F19000D0EDE20AF8EE600AB0EE5A
:10410000600A2046FEF7FAFB0746D4F81804C0EB15
:1041100000108100D4F8480400EB4000C000B1FB5F
:10412000F0F1C4F81C14002546E004F50E6000EB25
:10413000C51090F825607EB104F50E6000EBC51047
:10414000C06F0302C5EBC50204F1900000EB8201D1
:104150003246204600F038F804F50E6202EBC51234
:10416000D4F8181492ED0E1BB0EE410AF0EE610A7D
:10417000C5EBC50304F1900202EB830000F000F9E7
:1041800004F50E6000EBC51090F87610C5EBC50283
:1041900004F1900000EB8200017604F50E6000EB64
:1041A000C51090F87710C5EBC50204F1900000EB44
:1041B00082004176681C85B2D4F88400008BA84246
:1041C000B3DC3846BDE8F0812DE9F04104460D46E8
:1041D00016461F46B4F88A00B0420BDDC6EBC60196
:1041E00001EB4101D4F88000084468613946284653
:1041F00000F0FDF9BDE8F08110B50446204600F05E
:1042000020F8C0F500630BB1581E10BD0020FCE77C
:1042100030B501460020D1F81424D1F8103493426F
:104220000ED01346521C01F1900441F6F0052C44C7
:1042300054F82300B2F5006F00D10022C1F8142415
:1042400030BD0146B1F81024B1F81404101AC0F3BF
:104250000A007047B0F810240A44C2F30A03C0F8F9
:10426000103470472DE9FF410446666806F13007B7
:1042700000253946012001F043FD80B2ADF804006D
:10428000BDF8040001F04AFB1830CDF806002068A4
:1042900000904AF6AA20ADF80A00C0430390A07C23
:1042A00020B1012805D0022804D000BFE068A0603A
:1042B00000BF00BF00BF00BF0025BDF804001023F1
:1042C0006A46294601F0DEFD1035BDF804000823DA
:1042D0000022294601F0C2FBA06808300544BDF861
:1042E000040008230022294601F0B8FBE0680830EA
:1042F000A168401A0544BDF804000823002229469D
:1043000001F0ACFB60680830E168401A0544BDF874
:10431000040008230022294601F0A0FBBDF8040098
:1043200001F0FCFA04B0BDE8F0812DE9F04104464B
:104330000D469046FF2215212046FCF761FB656083
:104340000020A060E56040202074002060740120FF
:10435000A0748020E074002020752046FFF782FFC3
:1043600007462760002605E042463146204600F019
:1043700016F9761CAE42F7D33846BDE8F08100004E
:104380002DE9F0412DED088B0446B0EE408AF0EEA9
:10439000608A0D469FED220B53EC102B51EC180B4D
:1043A000FCF7F2FA41EC100BB0EE409AF0EE609A96
:1043B00051EC190BFCF715FB20602846FCF7EEFAD0
:1043C00041EC100BB0EE40AAF0EE60AA9FED160B88
:1043D00053EC102B51EC180BFCF7D6FA41EC100BF8
:1043E000B0EE40BAF0EE60BA53EC1A2B51EC1B0B56
:1043F000FCF7E3FA41EC100BB0EE409AF0EE609A55
:1044000051EC190BFCF701FB06460F46380240EA57
:1044100016603102C4E90110BDEC088BBDE8F081E3
:10442000000000000000704000000000000070412B
:104430002DE9FF4F84B00C46164641694FF4807356
:10444000079A93FBF2F9027E02FB09F2120A039229
:10445000427E02FB09F2120A0292CA688B68D51AE0
:104460008A6802F10807CA7C802A06DACA7C5200F0
:10447000029B5A43120A029207E0CA7CC2F1FF0271
:104480005200039B5A43120A039205B9012580E0AA
:10449000D0E901BAD0E9038318EB0B0843EB0A0318
:1044A000C0E9038302690B68D3F8063013F802C031
:1044B000BCF1000F4ED10023B0F80AA01AF4004F4F
:1044C00002D04FF0FF3A01E04FF0010AD046B8F1B8
:1044D000000F06DBBA4204D20832C8F1000A0FFA14
:1044E0008AF8D31B002B02DAC3F1000A03E0B3FB06
:1044F000F5FA05FB1A3A5346B8F1000F09DB91F8BB
:1045000012A0BAF1020F0DD1A5F1010AAAEB030323
:1045100008E091F812A0BAF1020F03D0A5F1010A48
:10452000AAEB030391F812A0BAF1020F09D14FF0E0
:10453000000ED0E901BADBF1000B6EEB0A0AC0E90C
:1045400001BAFA180261D1F800A0DAF806A01AF848
:1045500002C000BF4FFA8CF3DDF80C8003FB08F3B8
:104560001BB201934FFA8CF3DDF8088003FB08F3CC
:104570001BB20093B4F80080009B43441BB223801D
:10458000B4F80280019B43441BB26380241D761E55
:1045900000BF002E7FF47CAF08B0BDE8F08F2DE99E
:1045A000F74304460D464FF018086068A8421CD92E
:1045B000206887882E469DF8080080F080000290D1
:1045C0009DF8080008B901200290A068A84200D810
:1045D0000836E068A84200D8083606F11801012321
:1045E00002AA384601F04EFC00BFBDE8FE83024639
:1045F00053695B688B4201D90B4602E053695B68E3
:104600005B1E184653699B688B4200D8083053697B
:10461000DB688B4200D808300023C2E903307047C2
:104620002DE9F04104460669808B002700EB40012C
:104630002848DFF8A48004F12A05006800EB810215
:1046400039465068F6B9D2F808C043460022ECFB60
:104650000832A3691209A3F88A20A269C2F880006F
:10466000A0698022C0F88C101520208510212846D2
:10467000FFF75BFE28608088FDF7AAFA17A0FDF718
:10468000F7FA012714490020E6FB08100009A0EB07
:10469000C00000EB4000801908BF012717D0142884
:1046A00015D1A1692868B1F88A10C1F10101C1EBE7
:1046B000C10101EB4101084428602846FFF7D2FD03
:1046C00028608088FDF784FA05A0FDF7D1FA384606
:1046D000BDE8F081E0220020C3300CC33A000000A6
:1046E0002E000000002070472DE9F001254B828B41
:1046F00001691B6802EB420203EB82028369546882
:104700004FF0000CB1F5927F11D2FF22A3F8882060
:10471000002904BF8069C0F884402ED002291CD033
:1047200004292AD1418D41F40041418525E0164DEF
:10473000A1F59272A5FB0276F7087E4206EB86068B
:1047400002EB4606B3F88880D0F82A20BFB247456E
:1047500013D216B1042E03D00FE04FF0010C0CE081
:10476000B1F5947F06D1A2F59271A5FB0151C9085C
:10477000A3F888101119C0F82A10BDE8F0016046AE
:1047800070470000E0220020CDCCCCCC10B5044610
:10479000006801F0BDFC606801F0BAFC00202081D7
:1047A000606110BD0181002141817047006801F006
:1047B0000FBD70B504460D46406801F0C1FC000411
:1047C000000C08BF70BD29466068BDE8704001F06C
:1047D00005BD10B5406801F0B3FC80B210BD406962
:1047E0007047426911434161704700002DE9F0476D
:1047F0004169044611F0010F08BFBDE8F087208928
:104800000026D8B1DFF8148401281ED00325022821
:1048100031D004F12A0710284DD0112800F0E5808E
:10482000202800F0E880212800F07C81302818BF83
:1048300021F0010000F0E98100F0E6BA608900286B
:1048400008BFF7A040F0E58111E06089002840F042
:10485000E081A8F89262F3A0FDF70AFA206801F05F
:1048600057FC606801F054FC2681F1A06661FDF7F9
:10487000FFF900F003B9608960B1012808BF022088
:1048800011D0022804BF6581BDE8F08703280DD050
:1048900000F0BFB9A8F89262E7A0FDF7E9F901F0CE
:1048A00093F86089401C6081BDE8F087E0A0FDF7C7
:1048B000DFF900F0E3B8608928B1012822D002288E
:1048C00040D000F0A6B9DFA0FDF7D2F90120E168E1
:1048D00001F016FAA169C0B20870A083FDF778F95B
:1048E000DAA0FDF7C5F9E068FDF772F9CFA0FDF792
:1048F000BFF9D7482685C4E908606089401C6081FB
:10490000BDE8F087606801F063FC38B1C7A0FDF72F
:10491000AFF96089401C6081BDE8F087258D55B1F5
:10492000A08B2B4604F12A02216A01F0ABFA206A1F
:10493000411921622685D4E9030181420CBFC5A03B
:10494000C6A094E7606801F043FC5FEA000844D029
:104950000025606801F03CFC18B1606801F0F8FBCC
:104960000546A8F10100636A1FFA80F8E3B100224E
:104970001146204698470004000C15D0B4F828A032
:10498000A146BAF1000F0FD0B9F81C00534609F147
:104990002A02D9F8201001F075FAD9F82000504405
:1049A000C9F82000A9F82860208D421C2285C55531
:1049B0002069411C2161238D2046202B0AD1054608
:1049C000016A808B05F12A0201F05CFA286A203026
:1049D00028622E85B8F1000FBAD16089401E60812F
:1049E000606920F0010000F00FBA668121F001003B
:1049F0006061BDE8F087608928B1012824D00228D1
:104A000044D000F006B998A0FDF732F9E06800F153
:104A10001501012001F074F9A169C0B24870A083AA
:104A2000FDF7D6F889A0FDF723F9E068FDF7D0F887
:104A30007EA0FDF71DF98E482685C4E908606089CF
:104A4000401C6081BDE8F087606801F0C1FB002870
:104A50007FF45CAF258D55B1A08B2B4604F12A0263
:104A6000216A01F00FFA206A411921622685D4E9F2
:104A7000030181420CBF7FA081A0F8E683A0FDF76F
:104A8000F7F8606920F0010000F0BEB9606801F03D
:104A90009FFB5FEA0008A0D00025606801F098FB4A
:104AA00018B1606801F054FB0546A8F10100636A83
:104AB0001FFA80F8E3B1002211462046984700040F
:104AC000000C15D0B4F828A0A146BAF1000F0FD001
:104AD000B9F81C00534609F12A02D9F8201001F058
:104AE000D1F9D9F820005044C9F82000A9F828606D
:104AF000208D421C2285C5552069411C2161238DD2
:104B00002046202B0AD10546016A808B05F12A0236
:104B100001F0B8F9286A203028622E85B8F1000F1C
:104B2000BAD15AE7608920B1012813D0022825D0D4
:104B30006FE057A0FDF79CF8E068FDF749F83BA04F
:104B4000FDF796F82685266266626089401C6081C2
:104B5000BDE8F087606801F03BFB00287FF4D6AE2B
:104B6000D4E90301814204D14BA0FDF781F800BFD5
:104B700084E74CA0FDF77CF800BF7FE7606801F098
:104B800027FB06003FF429AF0027606801F020FBF7
:104B900018B1606801F0DCFA0746701E86B2A069A1
:104BA00068B3B0F88A50D0F88C10002D18BFD0F838
:104BB00080201ED06D1EC5EBC50000EB40001044E8
:104BC00000680068814212D3B1EB000804BF284698
:104BD000FCF7FEFFA069C5EBC50101EB4101D0F870
:104BE00080003A4608444146FFF7D9FC01E0002D19
:104BF000E0D1A069D0F88C10491CC0F88C10206955
:104C0000401C2061002EBFD1E7E6608928B1012851
:104C10007DD0668121F00100F6E049E012240020F9
:104C20004E4F5000434C454152202E2E2E00000086
:104C300020444F4E450000004552415345202E2E42
:104C40002E000000584D5354202E00003A00000062
:104C5000E9460008545220446F6E650054522045C6
:104C600072726F720000000058494E48202E0000FA
:104C700021460008494E4820446F6E650000000040
:104C8000494E48204572726F720000000D0A000004
:104C900058494E53202E0000494E5320446F6E65F4
:104CA00000000000494E53204572726F72000000F0
:104CB0004DF69A015648FFF740F956A0FCF7D8FF89
:104CC000AFF23800FCF7D4FF56A0FCF7D1FF504EEE
:104CD000D6F88400001DFCF7CBFFAFF25000FCF7C4
:104CE000C7FF55A0FCF7C4FFD6F88400008BFCF783
:104CF0006FFFAFF26800FCF7BBFF54A0FCF7B8FFF2
:104D0000B6F88800FCF764FFAFF2800000E073E0C3
:104D1000FCF7AEFF52A0FCF7ABFFB6F88A00FCF739
:104D200057FFAFF29800FCF7A3FF52A0FCF7A0FFDB
:104D3000D6F88400808BFCF74BFFAFF2B000FCF795
:104D400097FF51A0FCF794FFD6F88400408BFCF746
:104D50003FFFAFF2C800FCF78BFF50A0FCF788FFC5
:104D6000D6F88400C08B012814BF51A052A0FCF7D4
:104D70007FFFAFF2E800FCF77BFF51A0FCF778FF64
:104D8000D6F88400008CFCF723FFAFF20010FCF78C
:104D90006FFF50A0FCF76CFFD6F88400408CFCF746
:104DA00017FFAFF21810FCF763FF4FA0FCF760FF8E
:104DB000D6F884000025008C002814D904E0002DCA
:104DC0001CBF4EA0FCF754FF05F12400D6F8841058
:104DD000085C0221FCF70AFF681C85B2D6F8840043
:104DE000008CA842EBD8AFF25C10FCF741FF608961
:104DF000401C6081BDE8F0870548FFF70BF9A8F873
:104E00009252606920F001006061BDE8F087000007
:104E100008270020506C6179657220496E69743AE8
:104E200000000000204E616D65202E2E2E2E2E2EAD
:104E30002E2E2E2000000000204368616E6E656CEF
:104E400073202E2E2E2E2E20000000002050617484
:104E50007465726E73202E2E2E2E2E200000000000
:104E600020496E737472756D656E7473202E2E20DA
:104E7000000000002042504D202E2E2E2E2E2E2ED1
:104E80002E2E2E200000000020544D50202E2E2EBD
:104E90002E2E2E2E2E2E2E20000000002046726573
:104EA000715461626C65202E2E2E2E2000000000B1
:104EB000416D6967610000004C696E6561720000B8
:104EC000205061744C656E202E2E2E2E2E2E2E20FC
:104ED0000000000020506174526573202E2E2E2E8B
:104EE0002E2E2E2000000000205061744F72646549
:104EF00072202E2E2E2E2E20000000002C000000EE
:104F00007CB54FF08054E0880619A56829A0FCF70D
:104F1000AFFE2C49B1F86E02FCF75AFE2AA0FCF74E
:104F2000A7FE2846FCF754FE28A0FCF7A1FE64204B
:104F3000FBF770FEFEF73AFE0120224981F8690274
:104F4000084690F8680220F0010081F868024FF4EA
:104F5000FA70FBF75FFE1EA0FCF78AFE00234FF4F9
:104F6000A5621C496000FEF782FD19A0FCF780FED7
:104F700001234FF41A721849D806FEF778FD14A0E1
:104F8000FCF776FE0220334682031449CDE9005037
:104F90008006FEF77DFD0EA0FCF76AFEFEF7D4FD4D
:104FA0000FA0FCF765FE6420FBF734FEFEF772FCF1
:104FB00000BF7CBD466C617368696E672053697A77
:104FC000653A20001224002028000000292000005B
:104FD0002E00000090650008B86A0008206D0008E7
:104FE000204F4B0D0A00000070B5434994B00220D9
:104FF0000870424D800305F10A06288030806880E1
:105000007080A880B080E880F08001218003FCF7E8
:10501000C7FA00242C20CDE91004129410A92046D0
:105020001394FBF737FD10A91020FBF733FD012186
:105030000020FBF723FD01211020FBF71FFD0121BC
:105040000020FBF70FFD01211020FBF70BFD0121D4
:105050004805FCF78DFA04200490C002CDE90C400D
:1050600008900B94C010069080100E940990C00018
:1050700007904020059403900A944FF060600090E0
:105080001F48CDE901051F4D69462846FBF750FD35
:1050900001212846FBF728FD1B48CDE901061B4DE1
:1050A00069462846FBF744FD01212846FBF71CFD15
:1050B000174D002301224DF69A01284600F0CCF945
:1050C000012211462846FDF73EF820212846FDF72B
:1050D0004FF91E208DF83C008DF83D4001208DF8E1
:1050E0003E008DF83F000FA8FCF786F80949F02034
:1050F000087014B070BD0000FC23002098660020EA
:105100000C7400408860024018740040A0600240A7
:10511000000800401EE400E038B5FFF765FF294DA8
:1051200001244FF47A732A4627490020009400F0A6
:105130001BF94FF47A732A4624490020009400F0AA
:1051400013F94FF47A732A4621490020009400F0A5
:105150000BF94FF47A736A111E490020009400F095
:1051600003F94FF47A736A101B490020009400F091
:10517000FBF84FF47A732A4618490020009400F097
:10518000F3F84FF47A732A4615490020009400F092
:10519000EBF84FF47A732A46D9060020009400F009
:1051A000E3F84FF47A736A110E490020009400F07E
:1051B000DBF84FF47A736A100B490020009400F07A
:1051C000D3F838BD34B101000000014000040140B3
:1051D0000040014000100040001C0040004401401D
:1051E00000480140000C00400020004010B584B091
:1051F00000F01CF804466846FCF758FA04F00F006B
:105200000F280FD2DFE800F00E0A08080808080887
:105210000A0A0A0A08080800029800E0039804B085
:10522000400010BD04B0002010BD000001464C4BF2
:1052300010B50020CA1A994275D027DC494BA1EB62
:10524000030299425AD010DCB1F1804F48D012F5D8
:1052500000614CD0B1F5806F18BF10BD0121042052
:10526000FCF79EF940F2044010BDB2F5806F4CD0BF
:10527000B2F5006F50D0B2F5406F18BF10BD0121DC
:105280004020FCF78DF94FF4037010BDB2F5923F4A
:105290004AD010DCB2F5806F5BD0B2F5644F18D005
:1052A000B2F5684F18BF10BD01210220FCF790F93C
:1052B0004FF4816010BDB2F5943F3CD0B2F5963FFB
:1052C00018BF10BD01218804FCF782F940F20B10D1
:1052D00010BD01210846FCF77BF940F2014010BDEA
:1052E00001210846FCF75CF940F2024010BD0121A3
:1052F0000220FCF755F940F2034010BD01210820BF
:10530000FCF74EF940F2054010BD01211020FCF7DA
:1053100047F940F2064010BD01212020FCF740F97A
:1053200040F2074010BD0DE001210804FCF750F9E0
:1053300040F2092010BD01214804FCF749F94FF45F
:10534000857010BD01218020FCF72AF940F20D1074
:1053500010BD01210802FCF723F94FF4877010BD3E
:10536000001C0040000C00402DE9F0475FEA0009F6
:105370003748984694460D4690E8DE0488B0C069E8
:10538000CDE906A08DE8DE002FD04FEA4C010123C5
:105390003522484600F060F8C7B201231A462D496D
:1053A000284600F059F8C6B200243DF816100C2229
:1053B000604202EB800021FA00F000F00F00B842DA
:1053C0003ED100212846FCF756FE30214846FCF726
:1053D000CFFF80214846FCF7C3FF74B1012C11D0E8
:1053E000022C14D0032C17D01AE001234246614648
:1053F000284600F031F8C6B226E000212846FCF726
:10540000A9FF0DE010212846FCF7A4FF08E02021A9
:105410002846FCF79FFF03E030212846FCF79AFF5F
:1054200005212846FCF7ACFF002068624FF6FF70AC
:10543000E862C5F8388001212846FCF71CFE03E02D
:10544000601CC4B2042CB3D308B03046BDE8F0876A
:10545000007C0008A08601002DE9F04391B01C46B5
:1054600017460D468046FFF7E1FE060018BF40468E
:105470007ED0FFF7DBFE81460CA8FCF717F909F098
:105480000F000F280ED2DFE800F00D0A0808080808
:1054900008080A0A0A0A080808000E9800E00F988F
:1054A000400000E00020B0FBF5F505A8FCF7D6FFB2
:1054B000781E0027ADF81400ADF81C700695ADF805
:1054C00016708DF81E7005A94046FCF789FF002173
:1054D0004046FCF745FF6020ADF800000120ADF824
:1054E0000200322029496843A1FB001040090290C4
:1054F000C6F30320ADF80C70012826D0022819D07D
:1055000003280CD004282BD114F0080F03D06946CF
:105510004046FCF7E5FE08214046FCF711FF14F079
:10552000040F03D069464046FCF796FE082140462A
:10553000FCF7D0FE14F0020F03D069464046FCF79A
:1055400041FE08214046FCF77DFE14F0010F03D018
:1055500069464046FCF700FE08214046FCF72CFE59
:1055600008A8FCF77CFD4FF48040ADF82C0000E06B
:1055700007E008A94046FCF761FD01214046FCF721
:105580007AFD11B03046BDE8F08300001F85EB5175
:1055900003461046491E38BF704700BF13F8012B61
:1055A000424082EA0210120AC0B282EA002282EA73
:1055B000C00282EA1010491EF0D27047024641F242
:1055C000AE50491E38BF704712F8013B434083EA92
:1055D00003101B0AC0B283EA002383EAC00383EAF4
:1055E0001010491EF0D270474FF000607047000065
:1055F0000148008880027047227AFF1F00B5FFF73C
:10560000F3FF0146FFF7F4FF084400BD2DE9F04722
:10561000044680051F4616460D46800D12D1A01285
:10562000A0F58010803808280CD2DFE800F00407CD
:10563000282B2E3134370121084601E001210220B8
:10564000FBF796FF06F00F00310901F00F0609097C
:10565000D4F8008001F00F0C0A09690003238B4085
:1056600028EA030800FA01F949EA0808C4F80080AA
:105670004FF00108012818BF022828D111E00121AC
:105680000420DDE701210820DAE701211020D7E717
:1056900001212020D4E701214020D1E701218020F1
:1056A000CEE7D4F808900CFA01FC29EA03094CEA89
:1056B000090CC4F808C0D4F804C008FA05F9AE40D3
:1056C0002CEA090CB6B246EA0C0CC4F804C0D4F8B3
:1056D0000CC002FA01F12CEA03031943E16001282E
:1056E00004D017F0020F08BFBDE8F08707F00100F3
:1056F000A84045F0100108FA01F10843A061BDE897
:10570000F08700001030024AC0B242F82010704703
:1057100000920120DFF82CC00949ACF1040080227E
:105720004B68436051F8083F40F8083F521EF7D1DC
:1057300072B60548C0F800C0BFF34F8F62B670471D
:10574000FCFFFF070092012008ED00E00246012067
:105750001268002A08BF70470968511A11F0604F9B
:1057600008BF00207047000010B5FEF793F818B18D
:105770000020FEF7B2F800BFFFF7CCFFFBF708FDF3
:1057800001214FF4E130FDF71BF8FCF7C3FBFBF7F9
:1057900039FC4021032000F0A3F972B6FBF73AF977
:1057A000FCF74EF8FFF7B8FC0648FBF738F9054858
:1057B0005830FBF734F9FAF776FF62B6FBF734F9A5
:1057C000002010BD1824002010B502464FF0FF3015
:1057D000042A24D2124B03EB4213DB688B421ED304
:1057E0000F4B03EB421398680D4B03EB4213DB683E
:1057F0005B1A0B4C04EB4214E360094B03EB4213BE
:105800009B680B44064C04EB4214A360044B03EB6F
:1058100042131B690B44024C04EB4214236110BD7C
:105820008860002030B501466FF00203002010E0D0
:105830000A4D05EB40152A68084D05EB40156D68CB
:1058400015446C1E8A4202D8A14200D80346421C6D
:1058500090B20428ECDB184630BD000088600020C0
:1058600030B56FF0010500F04FF800B3002418E0E8
:1058700004EB44010F480068001D00EB8100008923
:1058800068B94FF40041204600F084F825460948E5
:1058900000680088401C07490968088006E0601C11
:1058A00084B2044800684088A042E1DC00BF28467A
:1058B00030BD0000E0220020124909680988F9B1D2
:1058C00010490968498881421AD900EB40020D4904
:1058D0000968091D01EB8201098989B100EB4002C9
:1058E00008490968091D01EB820100220A604A602B
:1058F0008A60044909680988491E024A12681180B1
:1059000070470000E02200200348006840880249F8
:1059100009680988401A7047E022002001466FF0AC
:1059200001000B4A126852888A420FDD01EB4103E5
:10593000074A1268121D02EB8302128932B101EB91
:105940004103034A1268121D52F8230070470000F9
:10595000E022002070B5044604EB44008000051DE1
:1059600029460B480068FBF746F809480068448060
:1059700000200AE04FF0FF3200EB400304490968C1
:10598000091D41F82320411C88B2A042F2DB70BD02
:10599000E022002010B50B4A12685288824210D9CA
:1059A00000EB4003074A1268121D02EB83021289C2
:1059B0000A4300EB4004034B1B681B1D03EB8403ED
:1059C0001A8110BDE022002010B5002304E0184623
:1059D000FFF772FF581C83B21E4800684088984247
:1059E000F5DC00F0D7F9002431E01B4800EB44104F
:1059F000007D10F0010F28D0174800EB4410C0685C
:105A0000154901EB441109690844134901EB44119C
:105A1000C860114800EB441080680F4901EB441145
:105A20000969401A0C4901EB4411886000200A49B9
:105A300001EB44110861084A02EB4412D168064A9E
:105A400002EB44129068FDF789FF601C84B2042CBD
:105A5000CBDB10BDE0220020886000202DE9FF4153
:105A600007460E4690461C46424610216846FAF705
:105A7000C7FF0CE01025A54200D9A5B22B466A4607
:105A80003146384600F0FEF92E44641B00BF002C5E
:105A9000F0D1BDE8FF81000070B502464FF0FF3441
:105AA0006508002015E00D4B03EB40139B8A134261
:105AB0000DD00A4E06EB4016F3689D4206D9994276
:105AC00004D8064E06EB4016F568044600BF431C9A
:105AD00098B20428E7DB204670BD000088600020F3
