:020000040800F2
:1000000058170020F9010008010200080302000847
:1000100005020008070200080902000800000000AD
:100020000000000000000000000000000B020008BB
:100030000D020008000000000F0200081102000875
:10004000130200081302000813020008130200083C
:1000500013020008130200089D0100089D0100081A
:10006000130200081302000813020008130200081C
:10007000130200081302000813020008130200080C
:1000800013020008130200081302000813020008FC
:1000900013020008130200081302000813020008EC
:1000A00013020008130200081302000813020008DC
:1000B00013020008130200081302000813020008CC
:1000C00013020008130200081302000813020008BC
:1000D00013020008130200081302000813020008AC
:1000E000130200081302000813020008130200089C
:1000F000130200081302000813020008130200088C
:10010000130200081302000813020008130200087B
:10011000130200081302000813020008130200086B
:10012000130200081302000813020008130200085B
:10013000130200081302000813020008130200084B
:10014000130200081302000813020008130200083B
:10015000130200081302000813020008130200082B
:10016000130200081302000813020008130200081B
:10017000130200081302000813020008130200080B
:100180001302000813020008DFF80CD000F058F842
:1001900000480047A5170008581700203FB4124830
:1001A0004FF400228261026910490A80046845F216
:1001B000555302F00302022A04BF43800269F8D0BB
:1001C00004600B494FF003024A610A494FF0C00234
:1001D0000A6001B500F090FBBDE801404FF0081245
:1001E00082613FBC704700000004024060000020B4
:1001F000003C014080E200E0064880470648004796
:10020000FEE7FEE7FEE7FEE7FEE7FEE7FEE7FEE7C6
:10021000FEE7FEE7F10E00088901000840EA01034D
:100220009B0703D009E008C9121F08C0042AFAD2AC
:1002300003E011F8013B00F8013B521EF9D2704770
:10024000064C074D06E0E06840F0010394E8070023
:1002500098471034AC42F6D3FFF79AFFB81E000857
:10026000D81E000870B58D1810F8014B14F0030269
:1002700001D110F8012B231106D110F8013B03E046
:1002800010F8016B01F8016B521EF9D1B3B110F8EF
:10029000012B04F00C048A1A0C2C04D0A2EB84125B
:1002A00003F1020308E010F8014BA2EB0422F7E788
:1002B00012F8014B01F8014B5B1EF9D5A942D3D3CB
:1002C000002070BD2DE9F0410027754E04460770EF
:1002D000B04203D13946002000F068FB714DAC42BA
:1002E00003D13946012000F061FB00200127607036
:1002F000B44202D1394600F059FBAC4203D1394631
:10030000012000F053FB00200227A070B44202D16C
:10031000394600F04BFBAC4203D13946012000F0D6
:1003200045FB00200327E070B44202D1394600F0BB
:100330003DFBAC4203D13946012000F037FB0020E1
:1003400004272071B44202D1394600F02FFBAC42A1
:1003500003D13946012000F029FB002005276071F8
:10036000B44202D1394600F021FBAC4203D13946F8
:10037000012000F01BFB00200627A071B44202D12F
:10038000394600F013FBAC4203D13946012000F09E
:100390000DFB3F200727E071B44203D1394600200E
:1003A00000F004FBAC4203D13946012000F0FEFA14
:1003B000002008272072B44202D1394600F0F6FA34
:1003C000AC4203D13946012000F0F0FA00200927A1
:1003D0006072B44202D1394600F0E8FAAC4203D16F
:1003E0003946012000F0E2FA00200A27A072B44248
:1003F00002D1394600F0DAFAAC4203D13946012085
:1004000000F0D4FA01200B27E072B44203D1394640
:10041000002000F0CBFAAC4203D13946012000F0B5
:10042000C5FA02200C272073B44203D139460020BC
:1004300000F0BCFAAC4203D13946012000F0B6FA14
:1004400000200D276073B44202D1394600F0AEFAA5
:10045000AC4203D13946012000F0A8FAFF200E2754
:10046000A073B44203D13946002000F09FFAAC4299
:1004700003D13946012000F099FAFF200F27E073DD
:10048000B44203D13946002000F090FAAC4218BFC4
:10049000BDE8F0813946BDE8F041012000F086BAA0
:1004A00066000020AC0000202DE9F84F9249934AE5
:1004B00009681268914234BF0122002290494B6AB8
:1004C000496B8B4234BF4FF0010E4FF0000E8D4947
:1004D0008D4B09681B68994234BF4FF001094FF0FA
:1004E00000098A498A4B09681B68994234BF4FF05A
:1004F00001084FF000088749874B09681B6899423B
:1005000034BF01210021009184494B6A496B8B4221
:1005100034BF012700278249DFF80CC2844C4B6AA4
:10052000C96A5B01B3FBF1F17E4BDCF800C02468C3
:100530001B68814D5B01B3FBFCF303F01F0C7B4B8D
:100540002D6801F01F011B68DB02B3FBF4F39CB2C2
:10055000784B1B68DB02B3FBF5F39EB2774B53FA83
:1005600084F595F800A3C4F302252AFA05F490F85F
:1005700013A004F001040AEB01111944437B91F824
:10058000001103F0010A4AEA0202C3F3C00A4AEA70
:10059000040A12EA0A0204D0827B12F0100F18BF7C
:1005A0000A46DFF89CA1DFF89CB13AF812A03BF8AC
:1005B00012B0C3F3400242EA0E02C3F3001E4EEA39
:1005C000040E12EA0E0204D0C27B12F0100F18BF04
:1005D0000A46DFF874E13EF812E0F244DFF86CE11D
:1005E0001FFA8AFA3EF812205A441FFA82FBC3F31C
:1005F0008002C3F3401342EA090223431A4004D0A5
:10060000027C12F0100F18BF0A46514B03F120096B
:1006100033F8121051448CB239F8121059441FFAB1
:1006200081FA03F1400151FA86F292F80023EA4080
:1006300002F0010590F8592002EB0C1290F853C01B
:1006400011440CF00102CCF3C00691F8001142EA0B
:1006500008022E43324005D090F8542012F0100FBB
:1006600018BF0A46364EDFF8DC80CCF3400B36F874
:10067000126038F81280009A4BEA0202CCF3001B99
:100680004BEA050B12EA0B0205D090F8552012F048
:10069000100F18BF0A46DFF8B0B03BF812B03EF8B2
:1006A00012205E444244CCF38008CCF3401C48EA5C
:1006B00007074CEA050CB6B292B217EA0C0F08BF56
:1006C000002005D090F8560010F0100F18BF084613
:1006D00033F8101039F8100031441044C4F50062AA
:1006E0001144CAF500621044C1F30B01C0F30B00C2
:1006F00041EA0040BDE8F88F244401403444014001
:10070000004001402448014034480140241C00407E
:10071000341C0040241800403418004000200040E1
:1007200000000140240400402C0400402408004044
:100730002C080040240401402C040140961A0008B3
:10074000D6190008F6190008161A0008361A00080B
:10075000561A0008044A01238340106809B118435F
:1007600000E09843106070470074004030B5084CBA
:10077000236840F6FE7282409343D1E900252A4364
:10078000D1E902510D432A4382401A43226030BD11
:100790000074004070B50446006889B1421C04BF73
:1007A0002068401C31F0704108BF70BD30B1227A22
:1007B000636803EB8203521C22721860216070BDD3
:1007C00020F0704040F20112A0F2011190424DD091
:1007D00004DC58B1B0F5807F48D005E001292BD06A
:1007E000A1F55060FF3841D000202060207A50B140
:1007F000207AF8B1207A401E20726068217A50F881
:100800002100206016E02068002804BF207A00281C
:1008100010D1E06800F0FCFF2060206810F0004F6D
:1008200008D02568E06800F0E9FF18B1E0682946C3
:1008300001F023F8206870BD0E4C4FF08060A0617D
:100840000D48FFF731FE0D49086008680C4AC0F3F7
:100850000B00106008680B49C0F30B4008600320D0
:10086000111F08604FF00420A06170BD2068401C7B
:10087000206070BD0000024060000020F8060020EB
:10088000087400401474004030B51A498379026836
:1008900053B30B6893430B600A1D13680468A343AA
:1008A000136002790A441368046823431360114AF1
:1008B000083213680468A3431360131D1C6805689D
:1008C000AC431C604479102C05D021440A680068B0
:1008D00002430A6030BD1168046821431160196841
:1008E00000680143196030BD0079084401689143F4
:1008F000016030BD003C0140284830B402790588D1
:10090000C2EBC20101EB810100EB410CBCF84A10C3
:1009100001F00F03C1F30714290A05F00305012DA7
:100920001DD0022D31D0032D2FD1ACF84A1001F08B
:100930000F0209090F2908D10E2A08BF012103D08F
:100940000F2A08BF002100D181800179C1EBC101CC
:1009500001EB810100EB41011144897914E0FF258D
:10096000458094B99C448CF8061003EB02110C4AA4
:1009700002EB01114B680A891B6892B209689BB2AD
:100980001A400A609CF8061041808078054951F8A9
:1009900020000549086030BC70470000600000205E
:1009A000F4040020F40000201804024001EB0010C1
:1009B000054901EB001042680189126889B200689C
:1009C00092B2114001607047F404002005490028EC
:1009D000086802D040F4806001E020F48060086084
:1009E00070470000003C024005490028086802D01A
:1009F00040F4007001E020F40070086070470000CF
:100A0000003C024005490028086802D040F480708C
:100A100001E020F48070086070470000003C024054
:100A20000149087070470000003C02404B07DB0E94
:100A30009A40C90810B500EB8100016A0F249C4060
:100A4000A1430162016A1143016210BD10B506485D
:100A500000F0CCF8044800680449B0FBF1F0044908
:100A6000088000F093F910BD4807002040420F00B5
:100A70000C07002070B504460D46C06800F0BEFEAD
:100A8000002808BF70BDE0682946BDE8704000F04E
:100A9000F4BE000070B50F21C478027801234FF036
:100AA000E026E4B1124C246804F4E064C4F5E06488
:100AB000C4F30724C4F10405E1404478AC408578D0
:100AC0000D4025430B4C29011155007800F01F0102
:100AD0008B40400906EB8000C0F8003170BD02F089
:100AE0001F008340500906EB8000C0F8803170BDC4
:100AF0000CED00E000E400E0044A0029116801D098
:100B0000014300E08143116070470000303802402B
:100B1000044A0029116801D0014300E081431160BB
:100B20007047000040380240044A0029116801D093
:100B3000014300E0814311607047000044380240E7
:100B400038B500F035F8012000F0B6F800F0F4F800
:100B50000446012C2AD1072002236E220421009092
:100B6000080500F0CBF8012000F0C2F800BF3920E2
:100B700000F07EF80028FAD00520FFF751FF012091
:100B8000FFF740FF0120FFF72FFF0120FFF71EFFB7
:100B9000802000F087F84FF4A05000F095F84FF453
:100BA000805000F09BF8022000F0BCF838BD000037
:100BB0000B48016841F001010160094A0021083237
:100BC00011600268074B1A400260031D064A1A6052
:100BD000026822F48022026001480C3001607047F4
:100BE00000380240FFFFF6FE1030002430B51D4AE9
:100BF00011681D4B11F00C0103D0042901D0082904
:100C000001D0036015E01749091F0C68C4F3805533
:100C10000C6804F03F04B3FBF4F30C680968C4F3F8
:100C200088146343C1F30141491C4900B3FBF1F14E
:100C3000016011680F2303EA11110C4B5C5C016821
:100C4000E14041601468072505EA94241C5D21FAFF
:100C500004F48460126805EA52329A5CD140C160A3
:100C600030BD0000083802400024F400FC060020DB
:100C700002460020510901290BD002290CD0084955
:100C8000096802F01F02012393400B4200D00120AB
:100C9000704703497439F3E70149091FF0E7000081
:100CA00074380240034A116821F0F00101431160D9
:100CB0007047000008380240024900220A7008709C
:100CC0007047000002380240034A116821F4E051E5
:100CD00001431160704700000838024003490A6868
:100CE00022F4604242EAC0000860704708380240BF
:100CF00001490866704700000000474241EA82113E
:100D00005A0810B5054B029C03EB02421143014304
:100D100041EA04600249086010BD00000000FFFFC6
:100D200004380240034A116821F0030101431160B5
:100D3000704700000838024018B500204FF4A06446
:100D400000903120FFF794FF0099491C0091A142C7
:100D500001D00028F5D03120FFF78AFF002800D00D
:100D6000012018BD10B58A0721F003040649130FAE
:100D700021440F220C689A4094430C600A68984002
:100D800002430A6010BD00000838014010B500BFE2
:100D9000012340F201320321534800F087FC00BFD9
:100DA00000BF012340F202320921504800F07EFCCE
:100DB00000BF0124224609214C48FFF737FE00BF3F
:100DC00000BF012340F201320A21484800F06EFCC6
:100DD00000BF00BF012340F203320421434800F06A
:100DE00065FC00BF00BF012340F2033205213F48EC
:100DF00000F05CFC00BF00BF0023102219463A48F7
:100E000000F054FC00BF00BF00231022012136482F
:100E100000F04CFC00BF00BF002322030221324837
:100E200000F044FC00BF00BF0023220304212E4831
:100E300000F03CFC00BF00BF0023220305212A482C
:100E400000F034FC00BF00BF002322030621264827
:100E500000F02CFC00BF00BF002322030721224822
:100E600000F024FC00BF00BF0323102208211E480D
:100E700000F01CFC00BF00BF0323102209211A4808
:100E800000F014FC00BF00BF032310220A21164803
:100E900000F00CFC00BF00BF032310220B211248FE
:100EA00000F004FC00BF00BF032310220C210E48F9
:100EB00000F0FCFB00BF00BF032310220D210A48F5
:100EC00000F0F4FB00BF00BF032310220E210648F0
:100ED00000F0ECFB00BF00BF032310220F210248EB
:100EE00000F0E4FB00BF10BD00040240000002401F
:100EF00010B5FFF725FE10BD10B50A884B88CC88C9
:100F00001A438B8823431A430B891A434B898989D7
:100F10001A430A43A0F8442010BD002101804180FB
:100F20008180C180018141818181704700290188D0
:100F300002D041F0010101E021F001010180704780
:100F400030B5028C22F001020284028C8388048B6B
:100F500022F0020224F073050C882C438D8915437E
:100F60004A882A430C4DA84202D00C4DA8420DD10C
:100F700022F00805CA8923F440732A4322F00405AD
:100F80008A882A430D8A1D434B8A2B43838004831E
:100F900089684163028430BD0000014000040140C3
:100FA000028B22F008020A430283704770B5028C5C
:100FB00022F010020284028C8488038B0D8823F4B3
:100FC000E6464FF6FF7303EA052535438E8922F086
:100FD000200203EA061616434A8803EA0212324345
:100FE000104EB04202D0104EB04215D122F0800611
:100FF000CA8924F4406403EA0212324322F0400614
:101000008A8803EA021232430E8A03EA86062643DE
:101010004C8A03EA840434438480058389688163AD
:10102000028470BD0000014000040140028B4FF6B5
:10103000FF7322F4006203EA012111430183704728
:1010400070B5028C22F480720284028C8488838BB7
:101050000D8823F073031D4322F400738E894FF62D
:10106000FF7202EA06261E434B8802EA032333433B
:10107000104EB04202D0104EB04215D123F400669B
:10108000CB8924F4405402EA0323334323F48066DB
:101090008B8802EA032333430E8A02EA06162643AC
:1010A0004C8A02EA04143443848085838968C163CE
:1010B000038470BD0000014000040140828B22F0D7
:1010C00008020A438283704770B5028C22F4805272
:1010D0000284048C8288838B0D8823F4E6464FF6C5
:1010E000FF7303EA0525354324F400568C8903EA8F
:1010F000043434434E8803EA06362643084CA042A3
:1011000002D0084CA04205D122F480440A8A03EAA6
:10111000821222438280858389680164068470BDBF
:101120000000014000040140828B4FF6FF7322F45F
:10113000006203EA0121114381837047028922F092
:1011400070020A4302817047028922F08002028104
:1011500002890A4302817047828822F070028280ED
:1011600082880A4382807047028922F00702028146
:1011700002890A430281704730B50288164B174C2A
:1011800098420DD0A0420BD0B0F1804F08D0144D42
:10119000A84205D0134DA84202D0134DA84203D156
:1011A00022F070054A882A43104DA84206D0104DFF
:1011B000A84203D022F440750A892A4302804A6873
:1011C000C2620A880285984201D0A04201D1897A80
:1011D00001860121818230BD0000014000040140F0
:1011E0000004004000080040000C004000100040D7
:1011F000001400404FF0FF31416000210180018167
:1012000041808172704702E008C8121F08C1002A9D
:10121000FAD170477047002001E001C1121F002A77
:10122000FBD1704710B5012184B04807FFF770FC6F
:1012300000203C21CDE90010029069460390FFF7A1
:1012400095FA69461020FFF791FA01210020FFF777
:1012500081FA01211020FFF77DFA264C4FF47A73B2
:1012600022462549002000F02DF94FF47A732246DA
:101270002249002000F026F94FF47A7322462049D3
:10128000002000F01FF94FF47A7341F674321D49C3
:10129000002000F017F94FF47A7362111A49002008
:1012A00000F010F94FF47A7322461849002000F03C
:1012B00009F94FF47A7322461549002000F002F92B
:1012C0004FF47A7322461349002000F0FBF84FF4E4
:1012D0007A7341F674321049002000F0F3F862117D
:1012E00004B04FF47A73BDE810400C49002000F0C0
:1012F000E9B800007E560300004401400040014070
:10130000004801400000014000080040001C00406F
:10131000001800400020004000040040000401408C
:1013200000B5012183B08803FFF7FEFB00210120F7
:10133000FFF718FD01210846FFF714FD00208DF886
:1013400009008DF804008DF80A0008208DF80500CA
:1013500001208DF806008DF80B0000906846FFF71D
:1013600093FA06208DF8080002A8FFF793FB0220ED
:1013700000906846FFF788FA07208DF8080002A859
:10138000FFF788FB03B000BD01464C4B10B50020B1
:10139000CA1A994275D027DC494BA1EB0302994246
:1013A0005AD010DCB1F1804F48D012F500614CD01A
:1013B000B1F5806F18BF10BD01210420FFF7A8FB15
:1013C00040F2044010BDB2F5806F4CD0B2F5006F12
:1013D00050D0B2F5406F18BF10BD01214020FFF77B
:1013E00097FB4FF4037010BDB2F5923F4AD010DC6A
:1013F000B2F5806F5BD0B2F5644F18D0B2F5684F8C
:1014000018BF10BD01210220FFF78EFB4FF4816051
:1014100010BDB2F5943F3CD0B2F5963F18BF10BD59
:1014200001218804FFF780FB40F20B1010BD012161
:101430000846FFF779FB40F2014010BD0121084644
:10144000FFF766FB40F2024010BD01210220FFF7CA
:101450005FFB40F2034010BD01210820FFF758FB5D
:1014600040F2054010BD01211020FFF751FB40F272
:10147000064010BD01212020FFF74AFB40F2074043
:1014800010BD0DE001210804FFF74EFB40F20920DA
:1014900010BD01214804FFF747FB4FF4857010BDD4
:1014A00001218020FFF734FB40F20D1010BD012117
:1014B0000802FFF72DFB4FF4877010BD001C0040A1
:1014C000000C00402DE9F0475FEA00093B489846D0
:1014D00000F10C0413460D46D0E9001294E8D00444
:1014E00088B0D0F808C0C069CDF808C0CDE906A022
:1014F0000597CDE90012CDE903462CD059003522DD
:10150000484600F05FF8C7B201222D49284600F096
:1015100059F8C6B200243DF816100C22604202EBC6
:10152000800021FA00F000F00F00B8423DD1002108
:101530002846FFF7FBFC30214846FFF70DFE8021CF
:101540004846FFF701FE6CB1012C10D0022C13D0DD
:10155000032C16D019E042461946284600F032F80E
:10156000C6B226E000212846FFF7E8FD0DE0102175
:101570002846FFF7E3FD08E020212846FFF7DEFDBF
:1015800003E030212846FFF7D9FD05212846FFF763
:10159000EBFD0020686240F6FF70E862C5F8388015
:1015A00001212846FFF7C2FC03E0601CC4B2042CF2
:1015B000B4D308B03046BDE8F0870000981E00089C
:1015C000A0860100F0B591B016460C460746FFF71D
:1015D000DBFE050064D00CA8FFF708FB0D98B0FBFC
:1015E000F4F405A8FFF706FE701EADF814000026FF
:1015F000601E0690ADF81C60ADF816608DF81E6098
:1016000005A93846FFF7B8FD00213846FFF79CFDD5
:101610006020ADF800000120ADF802003220224920
:101620006043A1FB001040090290C5F30320ADF810
:101630000C6001281DD0022813D0032809D00428EB
:101640001FD169463846FFF73FFD08213846FFF7AE
:101650006BFD69463846FFF7F3FC08213846FFF773
:101660002DFD69463846FFF7A1FC08213846FFF7F3
:10167000DDFC69463846FFF763FC08213846FFF772
:101680008FFC08A8FFF749FC4FF48040ADF82C0010
:1016900008A93846FFF730FC01213846FFF746FC21
:1016A00011B02846F0BD00001F85EB512DE9F04731
:1016B000044680051F4616460D46800D12D1A01225
:1016C000A0F58010803808280CD2DFE800F004076D
:1016D000282B2E3134370121084601E00121022058
:1016E000FFF70AFA06F00F00310901F00F060909A9
:1016F000D4F8008001F00F0C0A09690003238B4025
:1017000028EA030800FA01F949EA0808C4F8008049
:101710004FF00108012818BF022828D111E001214B
:101720000420DDE701210820DAE701211020D7E7B6
:1017300001212020D4E701214020D1E70121802090
:10174000CEE7D4F808900CFA01FC29EA03094CEA28
:10175000090CC4F808C0D4F804C008FA05F9AE4072
:101760002CEA090CB6B246EA0C0CC4F804C0D4F852
:101770000CC002FA01F12CEA03031943E1600128CD
:1017800004D017F0020F08BFBDE8F08707F0010092
:10179000A84045F0100108FA01F10843A061BDE836
:1017A000F0870000FFF752F9FFF7BAFDFFF73AFDA7
:1017B00000F010F90C48FEF785FD0B484630FEF7A7
:1017C00081FD0A490A48FFF755F90A490A48FFF717
:1017D00051F907E000210848FEF7DCFF002104482A
:1017E000FEF7D8FFF6E7000066000020000F00803B
:1017F0001000002000010080340000204188028891
:10180000891A8288C9B280881140401A7047000046
:101810002DE9F8430021054600918068E84604243C
:10182000002827D0A88800F0FF09288800EA0907C7
:1018300068882988401AA988C0B20840042898BF3F
:101840005FEA000415D000BFA9EB0700401C86B278
:10185000A64288BF2646A8683246C1194046FEF710
:10186000DDFCB81900EA0907A01B0404240CB044ED
:10187000EAD12F800098BDE8F88313B5042201A9AE
:1018800000F002F802B010BD2DE9F0430446806874
:1018900083B0174688460E461546002840D0A088DB
:1018A000002D00F0FF093BD0608800EA09008DF8A8
:1018B00004009DF80400A9EB0000401CADF80000F6
:1018C000BDF80000A84288BFADF8005061882088AC
:1018D000081AC1B2A0880840A188081ABDF80010F3
:1018E0008842F3D3A0689DF80410BDF80020084496
:1018F0003146FEF793FC9DF80400BDF80010084443
:1019000000EA09008DF804009DF804106180BDF81C
:1019100000000644BDF80000281A05042D0CC3D1B0
:10192000E068002804BF03B0BDE8F083E0684188A8
:101930000288891A8288C9B280881140401A80B210
:10194000874288BF0746002F40D0E4683E46A06823
:1019500000281CBFA088C5B238D0608828408DF808
:1019600004009DF80400281A401CADF80000BDF8E2
:101970000000B04288BFADF8006060882188401A3E
:10198000A188C0B20840A188081ABDF8001088429A
:10199000F3D3A0689DF80410BDF800200844414628
:1019A000FEF73CFC9DF80400BDF8001008442840F8
:1019B0008DF804009DF804006080BDF800008044AC
:1019C000BDF80000301A0604360CC6D103B0384604
:1019D000BDE8F0837047000001000200030005002D
:1019E00007000B000F0016002000260040004D00ED
:1019F0008000B400000100000000000001000200AF
:101A000002000400060008000C000F0019001E0070
:101A100033004800660000000100020003000500DA
:101A200007000B000F0016002000260040004D00AC
:101A30008000B40000010000010002000300050066
:101A400007000B000F0016002000260040004D008C
:101A50008000B4000001000000000000010002004E
:101A600002000400060008000C000F0019001E0010
:101A7000330048006600000001000200030005007A
:101A800007000B000F0016002000260040004D004C
:101A90008000B40000010F0F0F0F000000000F0FB7
:101AA0000F0F000000000E0E0E0E010101010E0EC0
:101AB0000E0E010101010D0D0D0D020202020D0DB0
:101AC0000D0D020202020C0C0C0C030303030C0CA0
:101AD0000C0C030303030B0B0B0B040404040B0B90
:101AE0000B0B040404040A0A0A0A050505050A0A80
:101AF0000A0A050505050909090906060606090970
:101B0000090906060606080808080707070708085F
:101B1000080807070707070707070808080807074F
:101B2000070708080808060606060909090906063F
:101B3000060609090909050505050A0A0A0A05052F
:101B400005050A0A0A0A040404040B0B0B0B04041F
:101B500004040B0B0B0B030303030C0C0C0C03030F
:101B600003030C0C0C0C020202020D0D0D0D0202FF
:101B700002020D0D0D0D010101010E0E0E0E0101EF
:101B800001010E0E0E0E000000000F0F0F0F0000DF
:101B900000000F0F0F0F00000000000000000F00FA
:101BA000000F000F0F0000000000000000000E00FA
:101BB000010F010F0E0000000000000000000D00EA
:101BC000020F020F0D0000000000000000000C00DA
:101BD000030F030F0C0000000000000000000B00CA
:101BE000040F040F0B0000000000000000000A00BA
:101BF000050F050F0A0000000000000000000900AA
:101C0000060F060F09000000000000000000080099
:101C1000070F070F08000000000000000000070089
:101C2000080F080F07000000000000000000060079
:101C3000090F090F06000000000000000000050069
:101C40000A0F0A0F05000000000000000000040059
:101C50000B0F0B0F04000000000000000000030049
:101C60000C0F0C0F03000000000000000000020039
:101C70000D0F0D0F02000000000000000000010029
:101C80000E0F0E0F01000000000000000000000019
:101C90000F0F0F0F000000000000000000000F00F9
:101CA0000F0F000F000000000000000000000E00F9
:101CB0000E0F010F010000000000000000000D00E9
:101CC0000D0F020F020000000000000000000C00D9
:101CD0000C0F030F030000000000000000000B00C9
:101CE0000B0F040F040000000000000000000A00B9
:101CF0000A0F050F050000000000000000000900A9
:101D0000090F060F06000000000000000000080098
:101D1000080F070F07000000000000000000070088
:101D2000070F080F08000000000000000000060078
:101D3000060F090F09000000000000000000050068
:101D4000050F0A0F0A000000000000000000040058
:101D5000040F0B0F0B000000000000000000030048
:101D6000030F0C0F0C000000000000000000020038
:101D7000020F0D0F0D000000000000000000010028
:101D8000010F0E0F0E000000000000000000000018
:101D9000000F0F0F0F009CFB1FD24D07EA6B183589
:101DA0001BD61CD4DCB51FCFC6CA2D1CD5D6210F1F
:101DB000E32C7F7F2AFE9C7F225F4705E6AD42E34E
:101DC0000CE8670BE50EE8AB9E3A65A6F1492231B7
:101DD000A9F10405EBA71338950772E2E6B117DE07
:101DE000E90C440EE9FF2D1DD7B9427BF58BF7FABC
:101DF000B63CB75AF7DE14E4B28806747F753579BD
:101E0000D4217F5356FB99A15A2F7F29244A973F0B
:101E100011FFF1A6EDF101F57A34203EF2A2F4FAB9
:101E2000FBF20351FDF37F75A65434153B12A494C5
:101E3000441FF48E4F5CB0E0163AB9DA0DE8BE36B6
:101E4000BC3910B0EBE3B3E36C72351D31EA1876A0
:101E5000DA1D268EBDDC1D1C2130392BCB763ACA0B
:101E60002E25ACE20FE9AC8F3916AEE73F70E219D0
:101E70003B0A0BE50C45AE8DAE01504BED7F7FA8C4
:101E8000EF64F81F33C6CE34240992D6203A1908DD
:101E90004D034BA7FD320000000034523418541299
:101EA00038124823000000004512AB230000000058
:101EB000DE45000000000000D81E000800000020E1
:101EC00028070000640200083423000828070020C7
:101ED000301000001612000812000112070450060C
:101EE0004C00002000011328070C32040B5320483B
:101EF00018212492582452382412242492543C014C
:101F000010010391FF0001100EFF000100FE00020E
:101F100000FD000300FCC8100AFB000500FA0006E3
:101F200000F9E91462F8000800F7000900F6000A59
:101F300000F5000B00F4000C00F3000D00F2000EA1
:101F400000F1000F00F0001000EF001100EE001291
:101F500000ED001300EC001400EB001500EA001681
:101F600000E9001700E8001800E7001900E6001A71
:101F700000E5001B00E4001C00E3001D00E2001E61
:101F800000E1001F00E03A140EDF002100DE002215
:101F900000DD002300DC45189EDB002500DA00266A
:101FA00000D9002700D8002800D7002900D6002A31
:101FB00000D5002B00D4002C00D3002D00D2002E21
:101FC00000D1002F00D0003000CF003100CE003211
:101FD00000CD003300CC003400CB003500CA003601
:101FE00000C9003700C8003800C7003900C6003AF1
:101FF00000C5003B00C4003C00C3003D00C2003EE1
:1020000000C1003F00C0004000BF004100BE0042D0
:1020100000BD004300BC004400BB004500BA0046C0
:1020200000B9004700B8004800B7004900B6004AB0
:1020300000B5004B00B41D182EB3004D00B2004E89
:1020400000B1004F00B0005000AF005100AE005290
:1020500000AD005300AC005400AB005500AA005680
:1020600000A9005700A829109EA7005900A6005AF1
:1020700000A5005B00A4005C00A3005D00A2005E60
:1020800000A1005F00A00060009F0061009E006250
:10209000009D0063009C0064009B0065009A006640
:1020A0000099006700980068009700690096006A30
:1020B0000095006B0094006C0093006D0092006E20
:1020C0000091006F00900070008F0071008E007210
:1020D000008D0073008C0074008B0075008A007600
:1020E0000089007700880078008700790086007AF0
:1020F0000085007B0084007C0083007D0082007EE0
:102100000081007F008002127F0A127E12127D1A67
:10211000127C22127B2A127A3212793A12784212F7
:10212000774A12765212755A12746212736A1272D8
:102130007212717A127082126F8A126E92126D9AF6
:10214000126CA2126BAA126AB21269BA1268C21297
:1021500067CA1266D21265DA1264E21263EA126288
:10216000F21261FA166002165F0A165E12165D1A06
:10217000165C22165B2A165A3216593A165842161F
:10218000574A16565216555A16546216536A165224
:102190007216517A165082164F8A164E92164D9A22
:1021A000164CA2164BAA164AB21649BA1648C216BF
:1021B00047CA1646D21645DA1644E21643EA1642D4
:1021C000F21641FA1A40021A3F0A1A3E121A3D1A32
:1021D0001A3C221A3B2A1A3A321A393A1A38421A47
:1021E000374A1A36521A355A1A34621A336A1A3270
:1021F000721A317A1A30821A2F8A1A2E921A2D9A4E
:102200001A2CA21A2BAA1A2AB21A29BA1A28C21AE6
:1022100027CA1A26D21A25DA1A24E21A23EA1A221F
:10222000F21A21FA1E2002031E1F0A031E1E1203A9
:102230001E1D1A031E1C22031E1B2A031E1A320314
:102240001E193A031E1842031E174A031E16520394
:102250001E155A031E1462031E136A031E12720314
:102260001E117A031E1082031E0F8A031E0E920394
:102270001E0D9A031E0CA2031E0BAA031E0AB20314
:102280001E09BA031E08C2031E07CA031E06D20394
:102290001E05DA031E04E2031E03EA031E02F20314
:1022A0002E018F041C062844014066B8045FFF0F0E
:1022B000F004E11000051A400140681000051A48BA
:1022C00001406A101C050800406C3C055E1F0205B9
:1022D00000053AF406002004200628000140718021
:1022E0005D4B05E11052241002250070A006281C49
:1022F0000040ACF0E11000051A180040AE100005D7
:102300001A200040B01004054A040140B200A405A0
:10231000040040B700D110522410052600AD9E06DF
:10232000200501020304040C051A06070809950696
:0423300000000000A9
:040000050800018965
:00000001FF
