:020000040800F2
:108000008980000857696C6420536F756E6420493D
:108010004920427920456E746972652047726F75F8
:108020007020202048656C6C6F20546F2054534C96
:1080300020323031392020202020202020202020F4
:10804000202020200100060001000000DFF80CD0F5
:1080500000F046F800480047018800089001002021
:10806000D0F800D04068004772B6034691F800A0EF
:1080700083F800A001F1010103F10103521EF5D2C2
:10808000D0F800D0406800470148804701480047C9
:108090003B8400084D80000840EA01039B0703D0A1
:1080A00009E008C9121F08C0042AFAD203E011F837
:1080B000013B00F8013B521EF9D27047D2B201E0F9
:1080C00000F8012B491EFBD270470022F6E710B5DD
:1080D00013460A4604461946FFF7F0FF204610BD36
:1080E000064C074D06E0E06840F0010394E8070005
:1080F00098471034AC42F6D3FFF7ACFF4045010877
:108100006045010801490860704700000C3C0240CE
:108110000248016841F4805101607047003C024010
:108120001FB5694600F059FA022100F001F81FBDA1
:1081300070B50646002529B1012927D0022928D08B
:108140004FF4407500F084F808281ED1124C2068C6
:1081500020F440702060206828432060206820F0D0
:10816000F8002060206846F0020108432060206883
:1081700040F48030206000F06BF8216821F00201AB
:108180002160216821F0F801216070BD4FF48075F5
:10819000D8E74FF40075D5E7103C02400B490820A2
:1081A0000A68D20301D5012070470A68D20601D5BA
:1081B000052070470A6812F0EF0F01D006207047C3
:1081C00009688907FBD50720704700000C3C024076
:1081D0000248016841F4006101607047003C0240C0
:1081E0000248016841F0004101607047103C0240C4
:1081F00070B50D46064600F02BF8082813D10A4C3E
:10820000206820F440702060206840F48070206076
:10821000206840F001002060358000F019F82168E6
:1082200021F00101216070BD103C0240054800684A
:10823000002805DA034804490C380160034901604D
:1082400070470000103C024023016745AB89EFCD29
:1082500008B508208DF80000FFF7A0FF8DF800009A
:108260009DF800000128F7D09DF8000008BDF0B58A
:108270000023012403270D6804FA03F215409542F8
:1082800042D1D0F800C05E0007FA06F52CEA050CD2
:10829000C0F800C091F804C0D0F800E00CFA06FC69
:1082A0004CEA0E0CC0F800C091F804C0BCF1010FFC
:1082B00002D0BCF1020F1FD1D0F808C02CEA050C87
:1082C000C0F808C091F805C0D0F808E00CFA06FC28
:1082D0004CEA0E0CC0F808C0D0F804C02CEA020C1E
:1082E000C0F804C0426891F806C00CFA03FC1FFAFB
:1082F0008CFC42EA0C024260C268AA43C260CA799E
:10830000C568B2402A43C2605B1C102BB3D3F0BDDA
:1083100041837047018370471CB50121022000F0A2
:108320004BF801208DF804008DF8070002208DF82D
:1083300005000820009069460148FFF798FF1CBD22
:108340000004024010B500F019FA00234FF4A562B2
:1083500014494FF0005000F092F901234FF41A72C3
:108360001149D80600F08BF902234BF228520F492D
:10837000980600F084F900F0D3F900F0B5F880B168
:1083800000BFBFF34F8F0A48006800F4E06009495E
:108390000843001D06490860BFF34F8F00BF00BFB0
:1083A000FEE710BD30880008588D0008C08F000817
:1083B0000CED00E00000FA05044A0029116801D024
:1083C000014300E0814311607047000030380240F3
:1083D00010B5044624B108210448FFF79BFF03E0D1
:1083E00008210248FFF794FF10BD0000000402407E
:1083F00010B50020FFF7ECFF642000F007F8012023
:10840000FFF7E6FF642000F001F810BD12E0401E07
:1084100000BF00BF00BF00BF00BF00BF00BF00BF64
:1084200000BF00BF00BF00BF00BF00BF00BF00BF54
:1084300000BF00BF0028EAD17047704702E008C8BB
:10844000121F08C1002AFAD170477047002001E0CE
:1084500001C1121F002AFBD170470000074A00B576
:10846000014612690020914207D200F0C3F9494247
:1084700000EB810050F8041D401A00BD00000020F0
:10848000FFF7ECBF30B500F0B5F9001F0E49002230
:108490001446CA6008E0CD689D4203D203EB820314
:1084A0001B1DCB60001F521C03685D1C03D0082AF3
:1084B000F1D30022CC6000F09DF9CB680A61C01AAC
:1084C000886090B230BD00000000002010B500248C
:1084D000FFF7D8FF20B1034803C800F074F9044641
:1084E000204610BD0800002010B5FFF7CBFF48B1B3
:1084F000FFF7ECFF0449896831F8021C884201D17A
:10850000012010BD002010BD0000002010B5FFF7B5
:10851000B7FF014682684068BDE810401231FFF79E
:10852000A3BD10B500F009F8A0F57F41FF3903D0D5
:10853000BDE81040FFF7EABF10BD30B50546FFF7B4
:10854000A1FF04000CD0002308E098B2FFF798FFC9
:108550008089A84201D198B230BD5B1CA342F4D3FC
:108560004FF6FF7030BD10B500F044F98038BDE81B
:108570001040802100F012B810B50446FFF756FEF7
:10858000B320FFF7BFFD2046FFF7CAFDFFF728FE27
:10859000FFF71EFEBDE81040FFF7BABD2DE9F04120
:1085A000840BA403001B47184FF0FF354FF480568F
:1085B0000FE028463246214608C91840521EFBD11A
:1085C000401C02D02046FFF7D7FF04F58044A7F5F2
:1085D0008047002FEDDCBDE8F08110B54FF48042FC
:1085E00010F4702F4FF0780309D003EA5032082AB4
:1085F00008D003EA520320334FF4003204E003EAC8
:10860000D02301E02023DA02DC080860C1E902245B
:10861000521E9043C0F3130000F1006048601846FA
:1086200010BD2DE9F041170027D04FF47F480446D4
:108630000D464646FFF7FAFDB320FFF763FD15F838
:10864000011B300A641C40EA01267F1EE00703D1AB
:108650003146A01EFFF7CCFD002FF0D1E00704D07B
:1086600048EA1621601EFFF7C3FDFFF7B9FDFFF7CB
:10867000AFFDBDE8F041FFF74BBDBDE8F0811CB593
:108680000024CDE90043234600F002F81CBD0000A1
:108690002DE9FF4F85B0204CDDE9128AA68C1746E4
:1086A0008B46814602EB08058EB314221B496846AF
:1086B000FFF7F2FCCDE90195ADF80CA0CDF80E5016
:1086C00054F8260F1235401B206000F093F854F840
:1086D000261900EB8600401A04EB86012438086056
:1086E00054F8260F12226946FFF79BFF20683A468E
:1086F00012305946FFF795FF54F8260912373844CF
:1087000042460899FFF78DFFA08C401EA08494F884
:10871000240009B0BDE8F08F650000202C45010859
:1087200038B5154D05E00022AA2311461046FFF783
:10873000A6FFA88C0028F6D100F05CF855F8262F8B
:10874000A0F12404A11A104600F03DF8ADF8000095
:1087500002462421084800F027F8ADF800002868F8
:108760000222801E6946FFF75CFF24220249204650
:10877000FFF757FF38BD00006500002010B5FFF778
:10878000F2FE2A210748FFF7A0FC00F033F8054964
:108790002438C1F826004FF0FF3008600820888494
:1087A00010BD00006500002010B503460C461046C1
:1087B00006E000BF13F8012B0146104600F007F851
:1087C000641EF7D210BD41F2AE52FFF7EDBF41403B
:1087D00081EA0110C0B2090A81EA002181EAC001E0
:1087E00081EA10107047000001480088800270473D
:1087F000227AFF1F00B5FFF7F7FF00F1006000BD10
:108800006420FFF703FEFFF787FD002402E0FFF777
:10881000EFFD641C0A2CFAD3FFF766FE10B10020AE
:10882000FFF77FFEFFF78EFD01E0FFF7E1FDFCE7BC
:10883000180900201D000020DFF80CD000F00EF811
:1088400000480047B504002018090020014880476F
:1088500001480047D301002009000020064C074DC5
:1088600006E0E06840F0010394E807009847103400
:10887000AC42F6D3FFF7E4FFF40400201405002017
:1088800001490860704700000C3C02400248016842
:1088900041F4805101607047003C024010F4702F99
:1088A0004FF0780107D001EA5030082806D001EADD
:1088B0005000203003E001EAD02000E02020022117
:1088C000AFF3008070B50646002529B1012927D0F5
:1088D000022928D04FF4407500F084F808281ED1F2
:1088E000124C206820F440702060206828432060EB
:1088F000206820F0F8002060206846F0020108435C
:108900002060206840F48030206000F06BF821681F
:1089100021F002012160216821F0F801216070BD81
:108920004FF48075D8E74FF40075D5E7103C02404E
:108930000B4908200A68D20301D5012070470A6854
:10894000D20601D5052070470A6812F0EF0F01D05A
:108950000620704709688907FBD50720704700008B
:108960000C3C02400248016841F40061016070471C
:10897000003C02400248016841F00041016070473C
:10898000103C024070B50D46064600F02BF8082852
:1089900013D10A4C206820F440702060206840F415
:1089A00080702060206840F001002060358000F079
:1089B00019F8216821F00101216070BD103C0240CE
:1089C00005480068002805DA034804490C380160AE
:1089D0000349016070470000103C024023016745D5
:1089E000AB89EFCD08B508208DF80000FFF7A0FF98
:1089F0008DF800009DF800000128F7D09DF80000D8
:108A000008BD704702E008C8121F08C1002AFAD149
:108A100070477047002001E001C1121F002AFBD1FE
:108A200070470000074A00B50146126900209142D4
:108A300007D200F051F9494200EB810050F8041DC3
:108A4000401A00BD00080020FFF7ECBF30B500F071
:108A500043F9001F0E4900221446CA6008E0CD68A1
:108A60009D4203D203EB82031B1DCB60001F521CEF
:108A700003685D1C03D0082AF1D30022CC6000F00B
:108A80002BF9CB680A61C01A886090B230BD000033
:108A90000008002010B50024FFF7D8FF20B10348DC
:108AA00003C800F002F90446204610BD0808002063
:108AB00010B5FFF7CBFF48B1FFF7ECFF0449896819
:108AC00031F8021C884201D1012010BD002010BDE8
:108AD0000008002030B50546FFF7B8FF04000CD0B1
:108AE000002308E098B2FFF7AFFF8089A84201D1C8
:108AF00098B230BD5B1CA342F4D34FF6FF7030BD7B
:108B000010B500F0E9F88038BDE81040802100F091
:108B100071B810B5FFF798FF01464FF000604A6842
:108B200082420BD300F0D8F802464868824205D949
:108B30008A68BDE81040123100F00EB810BD10B5C3
:108B4000FFF7C8FFA0F57F41FF3903D0BDE8104013
:108B5000FFF7DFBF10BD00002DE9F04104464FF4E0
:108B60000047380315460E4684420FD3104884420E
:108B70000CD2BD420AD9A5F5004206F5004104F524
:108B80000040FFF7E9FF3A463146E8E7204600F0AB
:108B900011F800280AD12946204600F02BF82A4671
:108BA00031462046BDE8F04100F043B8BDE8F08111
:108BB0000080000830B5002306E0C45CCD5CAC4208
:108BC00001D0002030BD5B1C9342F6D3012030BDA4
:108BD00010B50446FFF7F4FEB320FFF751FE204620
:108BE000FFF75CFEFFF7C6FEFFF7BCFEBDE81040D6
:108BF000FFF74CBE2DE9F041840BA403001B47187E
:108C00004FF0FF354FF480560FE02846324621469C
:108C100008C91840521EFBD1401C02D02046FFF765
:108C2000D7FF04F58044A7F58047002FEDDCBDE8B1
:108C3000F0812DE9F0414FF47F48174604460D4678
:108C40004646FFF7BDFEB320FFF71AFE0CE015F80D
:108C5000011B300A641C40EA01267F1EE00703D195
:108C60003146A01EFFF78EFE002FF0D1E00704D0A2
:108C700048EA1621601EFFF785FEFFF77BFEFFF72F
:108C800071FEBDE8F041FFF701BE000010B50346DC
:108C90000C46104606E000BF13F8012B01461046B3
:108CA00000F007F8641EF7D210BD41F2AE52FFF794
:108CB000EDBF414081EA0110C0B2090A81EA0021FA
:108CC00081EAC00181EA1010704700000148008865
:108CD00080027047227AFF1F00B5FFF7F7FF00F10F
:108CE000006000BDFFF7E4FE38B10120FFF727FF69
:108CF0000220FFF724FFFFF703FF00BFBFF34F8FF2
:108D00000648006800F4E06005490843001D034977
:108D10000860BFF34F8F00BF00BFFEE70CED00E01F
:108D20000000FA05140500200008002014000000CF
:108D3000D4010020280500201408002004010000B0
:108D4000E40100200000000000000000000000001E
:108D5000000000000000000018010020450000088D
:108D6000DFF80CD000F022F800480047FD010008B1
:108D700018010020D0F800D04068004772B60346C2
:108D800091F800A083F800A001F1010103F10103B3
:108D9000521EF5D2D0F800D0406800470148804705
:108DA000014800477900000809000008064C074DFB
:108DB00006E0E06840F0010394E8070098471034AB
:108DC000AC42F6D3FFF7D0FF34020008540200088B
:108DD000704702E008C8121F08C1002AFAD1704784
:108DE0007047002001E001C1121F002AFBD170472B
:108DF000074A00B5014612690020914207D200F0EF
:108E0000A3F8494200EB810050F8041D401A00BD50
:108E100000000020FFF7ECBF30B500F095F8001F10
:108E20000E4900221446CA6008E0CD689D4203D274
:108E300003EB82031B1DCB60001F521C03685D1CEB
:108E400003D0082AF1D30022CC6000F07DF8CB6873
:108E50000A61C01A886090B230BD00000000002096
:108E600010B50024FFF7D8FF20B1034803C800F075
:108E700054F80446204610BD0800002010B5FFF746
:108E8000CBFF48B1FFF7ECFF0449896831F8021CB9
:108E9000884201D1012010BD002010BD000000203B
:108EA00010B5FFF7B7FF014682684068BDE8104083
:108EB0001231FFF763BF10B500F009F8A0F57F414C
:108EC000FF3903D0BDE81040FFF7EABF10BD30B551
:108ED0000546FFF7A1FF04000CD0002308E098B27C
:108EE000FFF798FF8089A84201D198B230BD5B1C82
:108EF000A342F4D34FF6FF7030BD000010B5034617
:108F00000C46104606E000BF13F8012B0146104640
:108F100000F007F8641EF7D210BD41F2AE52FFF721
:108F2000EDBF414081EA0110C0B2090A81EA002187
:108F300081EAC00181EA10107047000001480088F2
:108F400080027047227AFF1F00B5FFF7F7FF00F19C
:108F5000006000BDFFF792FF10B10020FFF7ABFFEC
:108F600000BFBFF34F8F0748006800F4E060064978
:108F70000843001D03490860BFF34F8F00BF00BFC7
:108F8000FEE700000CED00E00000FA0554020008C6
:108F900000000020140000007A00000868020008A9
:108FA00014000020040100008A00000800000000F6
:108FB00000000000000000000000000000000000B1
:108FC000F0680020C5010008CD010008CF010008AD
:108FD000D1010008D3010008D501000800000000FD
:108FE000000000000000000000000000D7010008A1
:108FF000D901000800000000DB010008F1080008AA
:10900000DF010008DF010008DF010008DF010008C0
:10901000DF010008DF010008DF010008DF010008B0
:10902000C50D0008DF010008DF010008DF010008AE
:10903000DF010008DF010008DF010008DF01000890
:10904000DF010008DF010008DF010008DF01000880
:10905000DF010008DF010008DF010008110E000831
:10906000DF010008DF010008DF010008DF01000860
:10907000DF01000879800120B10A0020DF0100082B
:10908000DF010008DF010008DF010008DF01000840
:10909000DF0100083D270008DF010008DF010008AC
:1090A0004D0D0008DF010008DF010008DF010008A6
:1090B000DF010008DF010008DF010008DF01000810
:1090C000DF010008DF010008DF010008DF01000800
:1090D000DF010008DF010008DF010008DF010008F0
:1090E000DF010008DF010008DF010008DF010008E0
:1090F000DF010008DF010008DF010008DF010008D0
:10910000DF010008DF010008DF010008DF010008BF
:10911000DF010008DF010008DF010008DF010008AF
:10912000DF010008DF010008DF010008DF0100089F
:10913000DF010008DF010008DF010008DF0100088F
:10914000DF010008DF010008DFF80CD000F02CF888
:1091500000480047BD580008F0680020D0F800D053
:109160004068004772B6034691F800A083F800A05B
:1091700001F1010103F10103521EF5D2D0F800D034
:10918000406800470648804706480047FEE7FEE77C
:10919000FEE7FEE7FEE7FEE7FEE7FEE7FEE7FEE7A7
:1091A0001121000889010008064C074D06E0E0681F
:1091B00040F0010394E8070098471034AC42F6D31E
:1091C000FFF7C6FFC07E0008207F000800BF00BF79
:1091D00000BF00BF704700F080014FF0805242EAAC
:1091E0004113FF4910B40B604FF004230B604FF0A4
:1091F000806CC1F800C000F0400442EA84140C60A6
:109200000B60C1F800C000F0200442EAC4140C60F6
:109210000B60C1F800C000F0100442EA04240C60A6
:109220000B60C1F800C000F0080442EA44240C605E
:109230000B60C1F800C000F0040442EA84240C6012
:109240000B60C1F800C000F0020442EAC4240C60C4
:109250000B60C1F800C000F0010042EA0030086075
:109260000B60C1F800C0DF485A018261D2080A6071
:109270008103816110BC7047DB49E8280B46D1F8B7
:10928000722293F8683212D0E92817D0EB2806BF73
:10929000D64882427047BFF34F8FD5480168D54A00
:1092A00001F4E06111430160BFF34F8FFEE743F02B
:1092B000020081F86802A1F86E227047CE4882420F
:1092C00018BF704743F0010081F86802AA2081F8B6
:1092D00069027047C94810B50068C94C4FF40021B5
:1092E00080F003002160C74A4FF6E7711180BE4944
:1092F000088000F001FB4FF00810206010BD2DE940
:10930000F84304460068002635460078202805D139
:109310002068401C206000782028F9D04FF0000819
:109320006F46216811F8010B21603A281CBF2028E4
:10933000002813D0A0F13001092905D8C8B206EBE6
:10934000860100EB4106ECE7032DEAD200F0D9FAE2
:109350007855681CC5B207F80580E2E765B10C25B1
:10936000A94F0024694657F8240000F0CFFA30B125
:10937000601C84B2AC42F5D33046BDE8F883661C6D
:10938000FAE7F8B5A14800906846FFF7B8FF42F247
:10939000107100FB01F500246846FFF7B0FF64215F
:1093A0004843451944EB04066846FFF7A8FF4519F2
:1093B00066416846FFF7A3FF954948434519664152
:1093C0006846FFF79CFF9349484345196641684644
:1093D000FFF795FF9049914BA1FB002149096FF0E0
:1093E0001802514300EB8100A0FB031C04FB03C3E4
:1093F000022200FB0232481942EB0601F8BD2DE9BA
:10940000F0410446002020700F46204600F083FA09
:10941000834D0219804E6888A6FB003149096FF020
:109420001803594300EB8100022105F0F7FE1FB13C
:109430007CA1204600F074FA204600F06CFA021974
:10944000A8884AF2D73800FB0880800DA6FB0031BF
:1094500049096FF01803594300EB8100022105F020
:10946000DDFE1FB16FA1204600F05AFA204600F041
:1094700052FA0219A888A6FB003149096FF01803B7
:10948000594300EB8100022105F0C8FE27B166A117
:10949000204600F045FA03E064A1204600F040FABF
:1094A000204600F038FA021968884AF2D73100FBEA
:1094B0000180800DA6FB003149096FF01803594364
:1094C00000EB8100022105F0A9FE1FB157A1204643
:1094D00000F026FA204600F01EFA02192888A6FBA2
:1094E000003149096FF01803594300EB8100022154
:1094F00005F094FE27B14EA1204600F011FA03E0DA
:109500004CA1204600F00CFA204600F004FA0219A3
:1095100028884AF2D73100FB0180800DA6FB00317C
:10952000BDE8F04149096FF01803594300EB810091
:10953000022105F073BE70B50E460446012184B0C9
:10954000880301F03FF83C4DB4B1012C02D0022C4D
:1095500009D019E00A21002001F070FA4FF4806070
:109560006860282006E00721022001F067FA8020C9
:1095700068601720287007E000210120FFF7DBFF5B
:1095800000210220FFF7D7FF0A21002001F056FA40
:10959000002410208DF804408DF809408DF80A4011
:1095A0008DF80500002E19BF01208DF806008DF8FA
:1095B000064000208DF80B0068680090684600F0B7
:1095C00049FC28788DF8080002A800F00FFE95F9F4
:1095D00000000028BABF00F00F001849184931E018
:1095E000180802400000024012240020EFBEADDE49
:1095F0000CED00E00400FA0555AA41781004024081
:109600001804024010040040582300206C920120EE
:1096100000E1F50540420F001F85EB5100E40B54BB
:10962000669201203A000000200000002E00000099
:109630002E323000323000005023002014ED00E0C4
:1096400000E400E04454002E04BF04B070BD9B4908
:109650000098086004B070BD70B5994C05466078FC
:10966000FF281CBF0021FFF766FF65702846BDE894
:10967000704001215FE72DE9F04301218DB088039F
:1096800000F0A0FF00248DF824408DF8014008264A
:1096900001258DF802408DF825608DF826508DF853
:1096A00003500221204601F0C9F904204FF00C08B4
:1096B00008908DF8258008A800F0CCFB8DF800609C
:1096C000684600F093FD0121022000F04BFF0220CC
:1096D0008DF82C008DF82F408DF82D000320794F48
:1096E0000A900AA9384600F0E8FC02220021384618
:1096F00000F034FD02220121384600F02FFD012147
:10970000022000F047FF04A801F032FF6E4F3846F8
:1097100004F0F6FD4FF47A71B0FBF1F0401EADF8A5
:10972000100048000590ADF81840ADF8124004A9AB
:10973000384601F0DFFEDFF8949199F80000002828
:1097400018BF0220ADF80600ADF80850ADF80A4089
:10975000ADF80C40ADF8046001A9384601F027FDD2
:10976000ADF8048001A9384601F021FD01224FF433
:10977000C051384601F013FD554941F234200860CC
:1097800001221821384601F068FD99F8000020B147
:10979000AFF2BF411D2005F03FF81D208DF80000FD
:1097A0008DF801408DF802508DF80350684600F0A6
:1097B0001DFD484804704848079007A8FFF79FFD23
:1097C00042F2107100FB01F607A8FFF798FD642133
:1097D0004843861944EB040707A8FFF790FD861954
:1097E000674107A8FFF78BFD3C494843861944EBC6
:1097F000070807A8FFF783FD39494843871944EB59
:10980000080607A8FFF77BFD3649374BA1FB00216F
:1098100049096FF01802514300EB8100A0FB031CC3
:1098200004FB03C3022200FB0232C81942EB06010B
:1098300007460E46294A002300F077F842F21072DC
:10984000002300F072F842F21070DFF8A0801018C8
:1098500042F21072A8F800004FF00003384631467B
:1098600000F063F8164642F21072002300F05DF833
:1098700042F210701018A8F8020042F2107030186E
:10988000A8F804004FF0010108F10600FFF7B7FD4A
:1098900000211748FFF7B3FD4FF0E0204561154A5E
:1098A000F02111708461072101610DB0BDE8F083E2
:1098B0004FF0E0210620086170470000103C014095
:1098C000502300200004024000040040B023002088
:1098D000240400401DE400E06C92012000E1F50545
:1098E00040420F001F85EB5100E40B5466920120AB
:1098F0000097012023ED00E048F6AB3CC2F2010CDA
:10990000604740F2630CC2F2000C604740F2DD0C8D
:10991000C2F2000C604740F2CF0CC2F2000C60476C
:1099200040F2B70CC2F2000C604740F2010CC2F2E8
:10993000000C604748F2233CC2F2010C604740F241
:109940006F0CC2F2000C604740F2854CC2F2000C72
:10995000604740F6E17CC2F2000C604740F2472CC1
:10996000C2F2000C604740F2FD4CC2F2000C6047AE
:1099700040F2094CC2F2000C604740F23B2CC2F2AC
:10998000000C604740F2F90CC2F2000C604740F254
:109990002B3CC2F2000C604740F26F0CC2F2000C8C
:1099A000604740F2AD4CC2F2000C604740F2D54C2B
:1099B000C2F2000C604740F2234CC2F2000C604738
:1099C00040F2A10CC2F2000C604740F2A10CC2F2BE
:1099D000000C604740F2930CC2F2000C604740F26A
:1099E000554CC2F2000C604740F6110CC2F2000C5C
:1099F000604740F6413CC2F2000C604740F6197CDB
:109A0000C2F2000C604741F6B55CC2F2000C604740
:109A100048F2772CC2F2010C604710B502B9026817
:109A2000531C01D103685A1C21F0704139B12AB18D
:109A3000037A5C1C0472446844F82320016010BD62
:109A4000044A01238340106809B1184300E0984399
:109A50001060704700740040044A931483401068FB
:109A600009B1184300E0984310607047007400404B
:109A700030B5084C236840F6FE7282409343D1E92A
:109A800000252A43D1E902510D432A4382401A435B
:109A9000226030BD00740040074A904201D207485E
:109AA00001E005481038064A8B0001EA020101D5A1
:109AB000C1607047816070471064024000600240DE
:109AC0007D0F7D0F0029016802D041F0010101E006
:109AD00021F001010160704710B50C0601F01E0372
:109AE00004D54AB1446944F08004446180290CD013
:109AF00042B10168194307E0426922F080024261E5
:109B0000802902D001689943016010BD30B5036817
:109B1000124ACC6813400A682243D1E905452C4318
:109B20002243CC6922430C6A22434C6A22438C6A4A
:109B300022434C6B22438C6B22431A4302604269DE
:109B400022F00703D1E90B2422431A4342610A6938
:109B500042604A6882608968C16030BD3F801CF005
:109B60002DE9F04782B0044601F00CFD07191F4CA7
:109B7000DFF86880DFF868901A4B1B4DA4F10C06E3
:109B8000A4F1100AD8F800005968B0FBF9F0226877
:109B9000D3F800C0891A4CF0010CC3F800C0D5F806
:109BA00000C04CF0807CC5F800C0814207D3B1FBF7
:109BB000F0F101FB00202060306808443060DAF8E2
:109BC00004000097019001A9684604F049FE0028AE
:109BD00001D100BFD6E702B0BDE8F087A463002042
:109BE00040420F00001000E0FCED00E0E423002004
:109BF0002DE9F04F82B0A0F1010B002837D0224DA3
:109C0000DFF87480DFF874901D4C1E4EA5F10C0730
:109C1000A5F1100A01F0B6FC00F57A73D8F800003F
:109C20006168B0FBF9F02A68D4F800C0891A4CF0DA
:109C3000010CC4F800C0D6F800C04CF0807CC6F817
:109C400000C0814207D3B1FBF0F101FB0020286086
:109C5000386808443860DAF804000093019001A9DC
:109C6000684604F0FDFD28B1BBF1010BD2D202B071
:109C7000BDE8F08F00BFD1E7A463002040420F0091
:109C8000001000E0FCED00E0E423002070B5044685
:109C90000D462DB1002229462046FFF7BEFE70BDBD
:109CA000206820F0704140F20112881A91421CD0C5
:109CB00004DC61B1B1F5807F06D112E0012818D033
:109CC000A0F55060FF3815D00020206000BF207A3A
:109CD00018B1204600F036FE02E0204600F072FA8D
:109CE00011E02068401C20600DE02068401C2060CE
:109CF00009E008E005F0CAFB05F0DCFB05F0D2FB4B
:109D000005F0B0FB00BF00BF00BFC8E710B5194C9D
:109D10004FF400202060401200F096F81649888821
:109D200000EB400202EBC00001EBC002B1F8701280
:109D3000107D21F40043102B06D01049112B0AD0BE
:109D4000202B08BF08780DE00D4920F08000098A1B
:109D5000C1F3802104E0098820F08000C1F3C01124
:109D600040EAC1101075FFF7E5FD4FF008102060C4
:109D700010BD000018040240122400201008024008
:109D800000000240042000F05FF80D494FF480709D
:109D900008600C48018A11F0040F04D100BF018A49
:109DA00011F0040FFAD0BFF34F8F07480168074A3C
:109DB00001F4E06111430160BFF34F8FFEE7000043
:109DC00080E200E0000002400CED00E00400FA0533
:109DD00010B5194C4FF400202060802000F034F8BA
:109DE0001649888800EB400202EBC00001EBC0027C
:109DF000B1F87012107D21F40043102B06D01049E9
:109E0000112B0AD0202B08BF08780DE00D4920F057
:109E10008000098AC1F3802104E0098820F08000D5
:109E2000C1F3C01140EAC1101075FFF783FD4FF078
:109E30000810206010BD0000180402401224002009
:109E4000100802400000024001490860704700000D
:109E5000143C014030B51A498379026853B30B684A
:109E600093430B600A1D13680468A34313600279CF
:109E70000A441368046823431360114A08321368C4
:109E80000468A3431360131D1C680568AC431C6081
:109E90004479102C05D021440A68006802430A6006
:109EA00030BD1168046821431160196800680143DE
:109EB000196030BD0079084401689143016030BDEC
:109EC000003C014001490860704700000C3C024022
:109ED00005490028086802D040F4806001E020F4C1
:109EE0008060086070470000003C02400248016842
:109EF00041F4805101607047003C02407FB5044648
:109F00006946204602F0DDFD05460221284600F0A4
:109F100001F87FBD70B50646002529B1012927D07B
:109F2000022928D04FF4407500F0B8F808281ED157
:109F3000124C206820F44070206020682843206084
:109F4000206820F0F8002060206846F002010843F5
:109F50002060206840F48030206000F09FF8216885
:109F600021F002012160216821F0F801216070BD1B
:109F70004FF48075D8E74FF40075D5E7103C0240E8
:109F80000B4908200A68D20301D5012070470A68EE
:109F9000D20601D5052070470A6812F0EF0F01D0F4
:109FA0000620704709688907FBD507207047000025
:109FB0000C3C024005490028086802D040F40070BB
:109FC00001E020F40070086070470000003C02408F
:109FD0000248016841F4006101607047003C0240A2
:109FE0000248016841F0004101607047103C0240A6
:109FF00005480068C00705D0034804490C380160D3
:10A000000349016070470000143C02403B2A1908D4
:10A010007F6E5D4C05490028086802D040F48070CE
:10A0200001E020F48070086070470000003C0240AE
:10A0300070B50D46064600F031F8082813D10A4CD9
:10A04000206820F440702060206840F48070206018
:10A05000206840F001002060358000F01FF8216882
:10A0600021F00101216070BD103C024001490870DF
:10A0700070470000003C024005480068002805DAEF
:10A08000034804490C38016003490160704700002F
:10A09000103C024023016745AB89EFCD08B508208D
:10A0A0008DF80000FFF76CFF8DF800009DF80000B0
:10A0B0000128F7D09DF8000008BDF0B50023012469
:10A0C00003270D6804FA03F21540954242D1D0F8F7
:10A0D00000C05E0007FA06F52CEA050CC0F800C0C7
:10A0E00091F804C0D0F800E00CFA06FC4CEA0E0C23
:10A0F000C0F800C091F804C0BCF1010F02D0BCF15F
:10A10000020F1FD1D0F808C02CEA050CC0F808C017
:10A1100091F805C0D0F808E00CFA06FC4CEA0E0CE9
:10A12000C0F808C0D0F804C02CEA020CC0F804C083
:10A13000426891F806C00CFA03FC1FFA8CFC42EA54
:10A140000C024260C268AA43C260CA79C568B240C4
:10A150002A43C2605B1C102BB3D3F0BD4B07DB0E50
:10A160009A40C90810B500EB8100016A0F249C4099
:10A17000A1430162016A1143016210BD10B50520BF
:10A1800000F038FA064800F0F3FA0548006805497F
:10A19000B0FBF1F00449088000F064FC10BD000041
:10A1A000A463002040420F00D423002070B5044671
:10A1B0000D46E06805F04EF818B1E068294605F054
:10A1C000A9F870BD10B50446206868B9207A58B95E
:10A1D000E06805F056F82060206810F0004F03D0CA
:10A1E00021682046FFF7E2FF206810BD70B50F21FF
:10A1F000C478027801234FF0E026E4B1124C2468C1
:10A2000004F4E064C4F5E064C4F30724C4F1040575
:10A21000E1404478AC4085780D4025430B4C290142
:10A220001155007800F01F018B40400906EB8000BB
:10A23000C0F8003170BD02F01F008340500906EBEA
:10A240008000C0F8803170BD0CED00E000E400E05B
:10A250002DE9FF4F2DED108BB9B005461C46C022ED
:10A26000B34908A8FFF76BFB4B994A9800EB010B29
:10A27000D5F88400C08B0A2864D1204604EBD07145
:10A280004A104FF4F053A3EB8B118A1A5699A2EBA4
:10A29000810100EE101AB8EEC00A05F1900181EDBF
:10A2A000E50A084690EDE50AF7EE000AB4EEE00A8A
:10A2B000F1EE10FA03D2B7EE000A80EDE50A05F1DF
:10A2C000900090EDE50ADFED9B0AB4EEE00AF1EEB6
:10A2D00010FA03DD9FED970A80EDE50A05F1900085
:10A2E00090EDE50ADFED940A30EEC00ADFED930A47
:10A2F00080EE201A11EE106A3046FFF725FB41EC84
:10A30000190BB0EE491AF0EE691A9FED8D0BFFF7AD
:10A3100020FB8DED060B9DED060B53EC102B9FEDF6
:10A320008A0B51EC100BFFF719FB41EC100BB0EE50
:10A3300040AAF0EE60AA51EC1A0BFFF714FBC5F827
:10A340002804EBE0ABF10C0B4FEAE47104EB117164
:10A35000039409110BD4A146E11704EB1171091103
:10A36000A046E21704EB1272A1EB22110AE0274685
:10A37000E11704EB117109112646E21704EB127282
:10A3800001EB22110846FFF7F3FA41EC180B0C2001
:10A390009BFBF0F080B205900C219BFBF1F001FBE0
:10A3A00010B081B204912046E11704EB11710A113B
:10A3B000049902EBC1010FFA81FABAF1000F01DA38
:10A3C0004FF0000ABAF1600F01D34FF05F0A01228B
:10A3D000059902FA01F0FFF7CBFA41EC1A0B08A934
:10A3E00031F81A00FFF7C4FA41EC100BB0EE40EA66
:10A3F000F0EE60EA53EC182B51EC1E0BFFF7AEFAAF
:10A4000041EC100B8DED000B53EC182B9FED500B16
:10A4100051EC100BFFF7B1FA41EC100BB0EE40EA33
:10A42000F0EE60EA08A931F81A00FFF7A1FA41EC52
:10A43000100BB0EE40FAF0EE60FA53EC1E2B51EC2C
:10A440001F0BFFF78BFA41EC100BB0EE40DAF0EE89
:10A4500060DA9DED000B53EC102B51EC1D0BFFF758
:10A4600091FA41EC100BB0EE40CAF0EE60CA9FEDDD
:10A470003A0B53EC102B51EC1C0BFFF76FFA41EC2D
:10A48000100B8DED020B53EC1A2B9DED020B51ECD2
:10A49000100BFFF77CFA41EC100BB0EE40BAF0EE77
:10A4A00060BA51EC1B0BFFF75EFAC5F8240405F106
:10A4B0009000D0EDE50A5698400000EE100AB8EE84
:10A4C000C00A30EEC00A05F1900080EDE50A90ED7B
:10A4D000E50AF7EE000AB4EEE00AF1EE10FA03D254
:10A4E000B7EE000A80EDE50A05F1900090EDE50A6F
:10A4F000DFED100AB4EEE00AF1EE10FA03DD9FED95
:10A500000D0A80EDE50A05F1900090EDE50ADFED1A
:10A51000140A80EE801A80EDE61A00BF05F1900063
:10A5200090EDE60A39B0BDEC108BBDE8FF8F00005E
:10A53000E866000800FF7F470000904500004044A7
:10A540000000000000000040000000008055C040F6
:10A55000000000000000F03F00000000000030405C
:10A5600090775A4B044A0029116801D0014300E05A
:10A57000814311607047000030380240044A0029CE
:10A58000116801D0014300E0814311607047000071
:10A5900034380240044A0029116801D0014300E028
:10A5A000814311607047000040380240044A00298E
:10A5B000116801D0014300E0814311607047000041
:10A5C00020380240044A0029116801D0014300E00C
:10A5D000814311607047000044380240044A00295A
:10A5E000116801D0014300E0814311607047000011
:10A5F0002438024038B5044600F09CF8012000F0F1
:10A600001DF900F05BF90546012D76D1082C51D2D9
:10A61000DFE804F0040D17212B353E470F200223FD
:10A62000C82210210090880400F02AF943E00F208E
:10A6300002234FF4A87210210090880400F020F942
:10A6400039E00F2002234FF4C072102100908804DB
:10A6500000F016F92FE00F2002234FF4C8721021EA
:10A660000090880400F00CF925E00F2002234FF43D
:10A67000D27210210090880400F002F91BE007203C
:10A6800002236E2204210090080500F0F9F812E080
:10A6900007200223732204210090080500F0F0F83F
:10A6A00009E007200223782204210090080500F029
:10A6B000E7F800E000BF00BF012000F0DBF800BFBA
:10A6C000392000F097F80028FAD00520FFF7CEFCDB
:10A6D0000120FFF79FFC0120FFF76CFC0120FFF732
:10A6E000F7FB002000F0A0F8012C07DC002000F0B0
:10A6F000ADF8002000F0B4F813E015E0052C08DCFC
:10A700004FF4805000F0A2F84FF4805000F0A8F809
:10A7100007E04FF4A05000F099F84FF4A05000F07B
:10A720009FF8022000F0C0F80DB1012038BD0020D4
:10A73000FCE700000B48016841F001010160094A93
:10A740000021083211600268074B1A400260031DA5
:10A75000064A1A60026822F48022026001480C3026
:10A760000160704700380240FFFFF6FE1030002401
:10A7700030B51D4A11681D4B11F00C0103D004299E
:10A7800001D0082901D0036015E01749091F0C68A2
:10A79000C4F380550C6804F03F04B3FBF4F30C6879
:10A7A0000968C4F388146343C1F30141491C49009B
:10A7B000B3FBF1F1016011680F2303EA11110C4B97
:10A7C0005C5C0168E14041601468072505EA942457
:10A7D0001C5D21FA04F48460126805EA52329A5C26
:10A7E000D140C16030BD0000083802400024F400B0
:10A7F0009C23002002460020510901290BD0022988
:10A800000CD00849096802F01F02012393400B4253
:10A8100000D00120704703497439F3E70149091F4B
:10A82000F0E7000074380240034A116821F0F0019B
:10A8300001431160704700000838024002490022BD
:10A840000A7008707047000002380240034A11681D
:10A8500021F4E051014311607047000008380240C4
:10A8600003490A6822F4604242EAC0000860704767
:10A87000083802400149086670470000000047425E
:10A8800041EA82115A0810B5054B029C03EB0242C3
:10A890001143014341EA04600249086010BD000011
:10A8A0000000FFFF04380240034A116821F0030151
:10A8B00001431160704700000838024018B50020BD
:10A8C0004FF4A06400903120FFF794FF0099491CD9
:10A8D0000091A14201D00028F5D03120FFF78AFF76
:10A8E000002800D0012018BD05490028086802D0C2
:10A8F00040F0040001E020F0040008607047000010
:10A900000008065010B501214020FFF737FE012056
:10A91000FFF7EAFF10BD000010B5064804F0E2FCA6
:10A92000002804BF4FF6FF7010BD0248BDE810407C
:10A9300004F098BCB4230020014804F0D3BC00000C
:10A94000B42300200146087A38B1087A401E087204
:10A9500048680A7A50F822000860086870470029A1
:10A96000018802D041F0400101E021F04001018066
:10A970007047002A828801D00A4300E08A4382801F
:10A9800070470000114910B588420AD18414012192
:10A990002046FFF723FE2046BDE810400021FFF7C8
:10A9A0001DBE0B49884202D10121041404E009496B
:10A9B00088420AD10121C4132046FFF7F7FD204643
:10A9C000BDE810400021FFF7F1BD10BD003001408F
:10A9D00000380040003C004030B502884C8802F44A
:10A9E00041530A88CD8822438C882C4322430C890A
:10A9F00022434C8922438C892243CC8922431A4327
:10AA00000280828B22F400628283098A018230BD37
:10AA1000A1F57E420188FF3A02D041F4807101E045
:10AA200021F48071018070470029818802D041F0B3
:10AA3000040101E021F004018180704710B58A070C
:10AA400021F003040649130F21440F220C689A4099
:10AA500094430C600A68984002430A6010BD0000ED
:10AA60000838014010B500BF012341F21102032153
:10AA7000584803F055FE00BF00BF00234FF480523A
:10AA80000221544803F04CFE00BF00F087F900BFDC
:10AA9000012340F2033204214F4803F041FE00BF7E
:10AAA00000BF012340F2033205214B4803F038FE7A
:10AAB00000BF00BF002310221946464803F030FEB5
:10AAC00000BF00BF002310220121424803F028FEEE
:10AAD00000BF00BF00234FF4805202213D4803F025
:10AAE0001FFE00BF00BF00234FF4805204213948ED
:10AAF00003F016FE00BF00BF00234FF48052052173
:10AB0000344803F00DFE00BF00BF00234FF4805215
:10AB10000621304803F004FE00BF00BF00234FF4BD
:10AB2000805207212B4803F0FBFD00BF00BF032329
:10AB300010220821274803F0F3FD00BF00BF0323C4
:10AB400010220921234803F0EBFD00BF00BF0323BF
:10AB500010220A211F4803F0E3FD00BF00BF0323BA
:10AB600010220B211B4803F0DBFD00BF00BF0323B5
:10AB700010220C21174803F0D3FD00BF00BF0323B0
:10AB800010220D21134803F0CBFD00BF00BF0323AB
:10AB900010220E210F4803F0C3FD00BF00BF0323A6
:10ABA00010220F210B4803F0BBFD00BF00BF0023A4
:10ABB00010220221084803F0B3FD00BF0520FFF773
:10ABC00017F8044810300078C0F38000034908707B
:10ABD00010BD00000004024000000240B02300202D
:10ABE00070B5084C202525600146074804F080FB1D
:10ABF000012240F22771054800F0F0FD44F8805C26
:10AC000070BD000084E100E0C4230020001001407A
:10AC10002DE9F047DFF898A005000C4628D0002C5D
:10AC200008BFBDE8F087234F4FF020084FF0E02920
:10AC3000B8882646B04238BFBE881E4804F00AFBDA
:10AC4000B042FAD3C9F88481B2B22946194804F057
:10AC500068FB012240F22771504600F0BFFDC9F8A1
:10AC60000481B0B215FA86F5241AE1D1BDE8F08767
:10AC7000200C08BF8CB207D088B200F04BF8BDE8BA
:10AC8000F047042000F0E2BC0A4804F02BFB002847
:10AC9000FAD14021504600F07BFD0028F4D0052079
:10ACA00000F0D4FC2046BDE8F04700F033B80000C7
:10ACB00000100140C423002001B501216846FFF7C0
:10ACC000A7FF08BD014A002104F0CEB9F91C000815
:10ACD00010B50A4804F0BEFA84B2084804F002FB3A
:10ACE00020B94021064800F053FD28B90348808868
:10ACF000A04204BF601E84B2204610BDC4230020C1
:10AD00000010014041F48051014A04F0ADB9000047
:10AD1000F91C0008F8B51A4D04461A4804F0E2FA86
:10AD20000028FAD14021284600F032FD0028F4D056
:10AD3000002C08BFF8BD022000F088FC322C38BF80
:10AD4000FF2615D28DF8006001216846FFF760FFED
:10AD5000601E0404240CF5D10A4804F0C3FA00284C
:10AD6000FAD14021284600F013FD0028F4D002E07B
:10AD70002046FEF7F5FEBDE8F840032000F066BC73
:10AD800000100140C423002010B50446FEF7C3FDA7
:10AD900001462046BDE81040FFF73ABF00B595B028
:10ADA0000121C803FFF7F6FB01214805FFF7DAFB95
:10ADB00000BF012340F202320A216F4803F0B0FCC9
:10ADC00000BF00BF012340F212320B216A4803F09A
:10ADD000A7FC00BF00BF012340F202320C216648ED
:10ADE00003F09EFC00BF00BF012340F202320F219E
:10ADF000624803F095FC00BF06220A215E48FFF777
:10AE0000ADF906220B215C48FFF7A8F906220C21B8
:10AE10005948FFF7A3F906220F215848FFF79EF97A
:10AE200000201190129013904FF400500E900020CB
:10AE30000F9053480790002014904FF400600D903D
:10AE400080000E9000200B904FF4003010904012C4
:10AE50000F9000200690402009904A480890012059
:10AE60000A9000200C9000214748FEF72BFE00BFFF
:10AE70004548006810F0010FFAD106A94248FEF7D4
:10AE800045FE0020069009904048089001200A9055
:10AE900080020C9000213C48A838FEF713FE00BF4A
:10AEA0003948B838006910F0010FF9D106A93648C1
:10AEB000A838FEF72BFE36493348A838FEF7ECFDDC
:10AEC00034493148FEF7E8FD01212F48A838FEF744
:10AED000F9FD01212C48FEF7F5FD29480C38FFF754
:10AEE00051FD4FF44040ADF804004FF48270ADF8CE
:10AEF00006004FF40060ADF808000220ADF80A002B
:10AF00000020ADF80C00ADF80E00ADF81000ADF863
:10AF100012000720ADF8140001A919480C38FFF7FA
:10AF20005BFD012116480C38FFF77EFD14480838F8
:10AF3000008840F01000124908390880891510482F
:10AF40000C38FFF765FD01210D480C38FFF707FDB0
:10AF5000012211460A480C38FFF70BFD012202219D
:10AF600007480C38FFF705FD012210210648A838D4
:10AF7000FEF7B2FD15B000BD00080240000002401F
:10AF80000C3C0040AC230020B8600240AE230020FF
:10AF90003D008010400F002030B587B004461C22D1
:10AFA00016A16846FEF7CBFCA069FEF7B4FC054687
:10AFB0002A466846A169FEF7EFFC6846FFF7E4FE03
:10AFC00008212068FFF79EFE13A0FFF7DDFE082191
:10AFD0006068FFF797FE11A0FFF7D6FE0821A06872
:10AFE000FFF790FE0CA0FFF7CFFE0821E068FFF707
:10AFF00089FE0BA0FFF7C8FE07B030BD2E2E2E2E07
:10B000002E2E2E2E2E2E2E2E2E2E2E2E2E2E2E2E60
:10B010002E2E2E2E2E2000002E00000020000000DC
:10B020000D0A000010B519A0FFF7AEFE18A0FFF73B
:10B03000ABFE1CA0FFF7A8FE1EA0FFF7A5FE21494E
:10B0400009888802FFF73EFE10A0FFF79DFE1EA0B4
:10B05000FFF79AFE1B49123908680821FFF752FED4
:10B060002020FFF729FE17490E3908680821FFF74D
:10B0700049FE2020FFF720FE12490A3908680821FE
:10B08000FFF740FE01A0FFF77FFE10BD0D0A000094
:10B09000426F6F7420466C6173686572202E2E2E8D
:10B0A0000D0A0000456E747572652047726F7570E9
:10B0B0000D0A0000466C6173682053697A653A2076
:10B0C00000000000227AFF1F446576696365200056
:10B0D00010B50548006840F470000349086000207E
:10B0E000FFF788FA10BD000088ED00E070B5048C11
:10B0F00024F001040484058B048C4FF6FF7606EAE5
:10B100000313134325F0F3052B4324F00A020A43EB
:10B1100042F001010383018470BDF0B5048C24F07A
:10B1200010040484078B068C4FF6FF7404EA0115A3
:10B1300027F4734704EA0331394304EA02220A433D
:10B1400026F0A001294341F0100102830184F0BDE3
:10B1500010B50A884B88CC881A438B8823431A433E
:10B160000B891A434B8989891A430A43A0F8442062
:10B1700010BD0021018041808180C1800181418119
:10B1800081817047C943018270470029018802D03C
:10B1900041F0010101E021F0010101807047002A26
:10B1A000828901D00A4300E08A43828170472DE9F9
:10B1B000F0410D460E884988AA882B89044616B3AB
:10B1C000042E28D0082E268C4FF6FF702BD026F4A4
:10B1D00080562684A78B268C00EA022200EA0131E1
:10B1E00027F473473A4300EA0330104326F4204221
:10B1F0000A4342F48051A0832184E9882046BDE8B7
:10B20000F04100F06BB9FFF771FFE9882046BDE817
:10B21000F04100F047B9FFF780FFE9882046BDE81C
:10B22000F04100F047B926F480762684A78B268C5F
:10B2300000EA012100EA0310104327F0F307384326
:10B2400026F420620A4342F48071A0832184E988B5
:10B250002046BDE8F04100F039B9002A828901D0CA
:10B260000A4300E08A4382817047000030B5028CB7
:10B2700022F001020284028C8388048B22F00202F5
:10B2800024F073050C882C438D8915434A882A4382
:10B290000C4DA84202D00C4DA8420DD122F0080559
:10B2A000CA8923F440732A4322F004058A882A437A
:10B2B0000D8A1D434B8A2B43838004838968416335
:10B2C000028430BD0000014000040140028B22F0E6
:10B2D00008020A430283704770B5028C22F0100204
:10B2E0000284028C8488038B0D8823F4E6464FF693
:10B2F000FF7303EA052535438E8922F0200203EA15
:10B30000061616434A8803EA02123243104EB04230
:10B3100002D0104EB04215D122F08006CA8924F422
:10B32000406403EA0212324322F040068A8803EAAC
:10B33000021232430E8A03EA860626434C8A03EA47
:10B34000840434438480058389688163028470BDEA
:10B350000000014000040140028B4FF6FF7322F40D
:10B36000006203EA012111430183704770B5028C2A
:10B3700022F480720284028C8488838B0D8823F0EF
:10B3800073031D4322F400738E894FF6FF7202EAA5
:10B3900006261E434B8802EA03233343104EB04275
:10B3A00002D0104EB04215D123F40066CB8924F4AC
:10B3B000405402EA0323334323F480668B8802EA75
:10B3C000032333430E8A02EA061626434C8A02EA16
:10B3D00004143443848085838968C163038470BD09
:10B3E0000000014000040140828B22F008020A4361
:10B3F0008283704770B5028C22F480520284048CE0
:10B400008288838B0D8823F4E6464FF6FF7303EAA8
:10B410000525354324F400568C8903EA043434436B
:10B420004E8803EA06362643084CA04202D0084C58
:10B43000A04205D122F480440A8A03EA8212224300
:10B440008280858389680164068470BD00000140A4
:10B4500000040140828B4FF6FF7322F4006203EA7E
:10B460000121114381837047028922F070020A434F
:10B4700002817047028922F08002028102890A4318
:10B4800002817047828822F07002828082880A439B
:10B4900082807047028922F00702028102890A43F2
:10B4A00002817047028B22F00C020283028B0A4356
:10B4B00002837047028B22F440620283028B4FF6B4
:10B4C000FF7303EA01210A4302837047828B22F053
:10B4D0000C028283828B0A4382837047828B22F420
:10B4E00040628283828B4FF6FF7303EA01210A4395
:10B4F0008283704730B50288164B174C98420DD0A6
:10B50000A0420BD0B0F1804F08D0144DA84205D016
:10B51000134DA84202D0134DA84203D122F070056A
:10B520004A882A43104DA84206D0104DA84203D0A5
:10B5300022F440750A892A4302804A68C2620A8856
:10B540000285984201D0A04201D1897A0186012169
:10B55000818230BD00000140000401400004004031
:10B5600000080040000C00400010004000140040A3
:10B570004FF0FF31416000210180018141808172E3
:10B5800070470000124810B400681249124BB0FB1B
:10B59000F1F05968114A1C68D2F800C0A1EB0C0107
:10B5A00044F001041C600E4B1C6844F080741C6065
:10B5B000A2F10C03814207D3B1FBF0F101FB00C003
:10B5C00010601868084418600648406810BC70474E
:10B5D000A463002040420F00001000E0E42300209C
:10B5E000FCED00E0D4230020134810B400684FF4B1
:10B5F0007A71B0FBF1F0114B5968114A1C68D2F80E
:10B6000000C0A1EB0C0144F001041C600D4B1C6850
:10B6100044F080741C60A2F10C03814207D3B1FB9B
:10B62000F0F101FB00C0106018680844186006487B
:10B63000C06810BC70470000A4630020001000E048
:10B64000EC230020FCED00E0D423002010B52A4CB0
:10B65000042828BF10BDDFE800F0021F3D4601218D
:10B660001020FEF7AFFF072209212046FEF776FDE6
:10B6700007220A212046FEF771FD012340F2013224
:10B680000921204603F04CF8204601231022BDE892
:10B6900010400A2103F044B801211020FEF792FF68
:10B6A000072209212046FEF759FD07220A212046DC
:10B6B000FEF754FD012341F202320921204603F036
:10B6C0002FF820460123BDE8104040F202320A2143
:10B6D00003F026B820460123BDE8104040F20132B5
:10B6E000092103F01DB820460123BDE8104041F2B6
:10B6F0000232092103F014B80000024038B51C4C96
:10B7000040F22551204600F04AF898B1204600F05A
:10B71000D9F88DF80000174803F09CFD20B10122F4
:10B720006946144803F0FDFD012240F227712046CE
:10B7300000F054F840F22771204600F030F800285D
:10B7400008BF38BD0C4803F0CDFD40B10A4803F0F6
:10B7500089FD01462046BDE8384000F0B7B82046D4
:10B76000BDE83840002240F2277100F037B80000F1
:10B7700000100140B4230020C42300200029818947
:10B7800002D041F4005101E021F400518181704761
:10B790000246002012880A4200D00120704730B5CE
:10B7A00001F01F0201240025C1F3421304FA02F242
:10B7B000012B0FD0022B0FD0838A4FEA1121008872
:10B7C000134204FA01F400EA040001D000B101259B
:10B7D000284630BD8389F0E7038AEEE710B5C1F350
:10B7E000421301F01F040121A140012B07D0022BBD
:10B7F00007D01430002A026805D00A4304E00C3058
:10B80000F8E71030F6E78A43026010BD7FB50446C2
:10B81000008A0D4620F44051E88808432082A08920
:10B8200041F20C618843A9882A8911436A8902433D
:10B830001143A181A08A20F44071A8890843A08205
:10B840006846FEF795FF1D48844202D01C4884429A
:10B8500001D1039800E00298A1890904002900EBB6
:10B86000C00101EB0010296802DA4FEA410101E052
:10B870004FEA8101B0FBF1F26420B2FBF0F14FEA34
:10B8800001114FEA11136FF018056B4302EB8302AD
:10B89000A3891D044FF0320306D503EBC202B2FBAD
:10B8A000F0F000F0070005E003EB0212B2FBF0F04D
:10B8B00000F00F00084320817FBD00000010014010
:10B8C000001401408088C0F308007047C1F30801EC
:10B8D0008180704770B5054686B00C460120FFF7A1
:10B8E000B5FE2D4E00213046FFF748FF2B4803F0F0
:10B8F000F9FC0146294803F09BFC2109002204F0D1
:10B900000F00012908BF4FF4C06142D0022914BFC3
:10B9100000214FF480613CD0002808BF4FF48050D4
:10B9200009D0022808BF4FF4005004D0032814BFE8
:10B9300000204FF440500095ADF80420ADF806000B
:10B940000020ADF80810ADF80C000C20ADF80A008E
:10B9500069463046FFF75AFF25208DF81000FF207A
:10B960008DF811008DF8120001208DF8130004A845
:10B97000FEF73CFC0A49F0200870012240F22551F4
:10B980003046FFF72BFF01213046FFF7F7FE06B0E8
:10B9900070BD4FF48052BFE700100140B423002077
:10B9A00025E400E070B5044600680D46002660B14D
:10B9B000FFF71AFE21680A1A0BD52068521928448D
:10B9C000206006F10106F8D403E0FFF70DFE2844DD
:10B9D0002060304670BD0146D1F88400008C401EC6
:10B9E00082B2002007E001F259431B5C0BB1531EE9
:10B9F0009AB2431C98B2D1F884301B8C8342F2DC9B
:10BA000012B9012381F8583491F8580470470000A6
:10BA10002DE9F04F2DED068B81B00446B0EE40AA23
:10BA20004FF480394FF0400A4FF0FF0BD4F8541414
:10BA3000491CC4F85414D4F85014491EC4F85014C6
:10BA4000D4F85004012877DAD4F8841001F5927103
:10BA5000D4F8440400EB800001EB40000189D4F8E5
:10BA60002C04814231D8D4F83C14491CC4F83C144D
:10BA7000D4F88410098CD4F83C04884204D3D4F858
:10BA80008400418CC4F83C14D4F83C14C4F840142D
:10BA90002046FFF7A0FF012104F25940D4F84024CA
:10BAA0008154D4F82C04000C000402D10021C4F805
:10BAB0002C14D4F884302433D4F83C04195CB4F842
:10BAC0002C0482B2204601F079FA204601F0A6F952
:10BAD0000020AFE000EB800204F5C7511144C978A3
:10BAE0000E2904D00F2928D0172974D13FE000EB8C
:10BAF000800204F5C7511144C9780A0100EB8003A4
:10BB000004F5C7511944097942EA2111CAB200EB80
:10BB1000800304F5C7511944CA7000EB800204F594
:10BB2000C7511144097901F00F0200EB800304F5BD
:10BB3000C75119440A714EE089E000EB800204F518
:10BB4000C75111440979202908DA00EB800204F575
:10BB5000C75111440A79C4F84C2407E000EB800275
:10BB600004F5C75111440A79C4F8482433E000EBC6
:10BB7000800204F5C7511144097911F0F00102D097
:10BB8000102910D100E016E000EB800204F5C75147
:10BB90001144C978491CCAB200EB800304F5C751AF
:10BBA0001944CA7007E0002200EB800304F5C75176
:10BBB0001944CA7000BF00BF00EB800204F5C751F2
:10BBC0001144097901F00F0200EB800304F5C7511D
:10BBD00019440A7100BF00BF012204F50E6101EB98
:10BBE000C0110A6700EB800204F5C7511144C978FF
:10BBF000ED291DD100EB800204F5C75111440979EC
:10BC000001F00F0204F50E6101EBC0110A6704F5A3
:10BC10000E6101EBC011096F51B104F50E6101EB2A
:10BC2000C0110A6F521C04F50E6101EBC0110A67C6
:10BC3000411C88B2D4F88410098B81423FF74AAF87
:10BC4000D4F84C14C4F850140021C4F8541400253E
:10BC5000F1E3002104F50E6000EBC51080F825101B
:10BC600004F50E6000EBC510016F491E04F50E606F
:10BC700000EBC5100167002104F50E6000EBC51054
:10BC8000C16704F50E6000EBC510006F002867D196
:10BC900005EB850104F5C7500844407800286CD0B6
:10BCA00005EB850204F5C75010444078C0EBC00096
:10BCB00000EB4000D4F880100844017C04F50E60CD
:10BCC00000EBC510016205EB850104F5C75008447F
:10BCD000C078032800D14FE005EB850104F5C7507B
:10BCE000405CE0B3002104F50E6000EBC510416537
:10BCF00005EB850204F5C75010444078C0EBC00046
:10BD000000EB4000D4F88010084490F9111004F5BD
:10BD10000E6000EBC510C16505EB850204F5C75048
:10BD200010444078C0EBC00000EB4000D4F8801015
:10BD3000084490F9141004F50E6000EBC51001657D
:10BD400005EB850104F5C7500844417804F50E6001
:10BD500000EBC51080F8241005EB850101E00AE036
:10BD600094E004F5C7500844417804F50E6000EBF8
:10BD7000C51080F8251000BF17E005EB850104F51C
:10BD8000C750405C88B1002104F50E6000EBC5107F
:10BD9000416504F50E6000EBC51090F8241004F521
:10BDA0000E6000EBC51080F8251005EB850104F549
:10BDB000C750405CE8B305EB850104F5C750084463
:10BDC000C07803283AD1002104F50E6000EBC510BD
:10BDD000816505EB850104F5C750415C04F50E60F3
:10BDE00000EBC510017204F50E6000EBC51090F871
:10BDF0002400C0EBC00000EB4000D4F880100844E1
:10BE000090F9111004F50E6000EBC510416604F5C1
:10BE10000E6000EBC51090F82400C0EBC00000EBF2
:10BE20004000D4F88010084490F9141004F50E6016
:10BE300000E00FE000EBC51001660AE005EB8501AC
:10BE400004F5C750415C04F50E6000EBC5100170AD
:10BE500000BF00BF05EB850104F5C750084480789A
:10BE6000102813DB05EB850104F5C75008448078E2
:10BE700050280BDC05EB850104F5C7500844817898
:10BE8000103904F50E6000EBC5100162002104F5C5
:10BE90000E6000EBC510416005EB850104F5C7504D
:10BEA0000844C0780C2879D008DC46D2DFE800F0DE
:10BEB00015465E7B4545454545FEFDFCE6286ED0B2
:10BEC00006DC0D286CD0E1286BD0E22835D151E298
:10BED000EA2867D0EB28F9D1AEE20321D4F8540464
:10BEE00090FBF1F201FB120020B1012809D00228D9
:10BEF00022D113E0002104F50E6000EBC510416073
:10BF00001AE005EB850104F5C750084400790111DA
:10BF100004F50E6000EBC51041600DE005EB8501F6
:10BF200004F5C7500844007900F00F0104F50E60D5
:10BF300000EBC510416000BF00BF95E204F50E6044
:10BF400000EBC510006F80B104F50E6000EBC5106A
:10BF500005EB8502416D04F5C7501044007901449A
:10BF600004F50E6000EBC51041657DE204F50E603E
:10BF700000EBC510006F80B104F50E6000EBC5103A
:10BF800005EB8502416D04F5C75010440079091A8C
:10BF900004F50E6000EBC510416565E241E101E288
:10BFA0009EE1CFE12FE204F50E6000EBC510006FBB
:10BFB00000287CD0D4F83804082801D14FF00008BC
:10BFC0004FF0000804F50E6000EBC510806D009086
:10BFD00004F50E6000EBC510436E04F50E6000EB37
:10BFE000C510026E04F50E6000EBC510017A204604
:10BFF000FEF72EF904F1900090EDE50A10EE101A0C
:10C000000846FDF7A1FC41EC100B04F50E6000EBB7
:10C01000C51080ED040B04F1900090EDE60A10EEDF
:10C02000101A0846FDF790FC41EC100B04F50E6069
:10C0300000EBC51080ED060B04F50E6000EBC5109B
:10C0400090ED062BB0EE420AF0EE620A04F50E60A7
:10C0500000EBC51090ED122BB0EE421AF0EE621A12
:10C0600053EC102B51EC110BFDF79BFC50D204F557
:10C070000E6000EBC51005EB8502416D04F5C7505D
:10C0800010440079014404F50E6000EBC5104165D1
:10C0900004F50E6000EBC510406D009004F50E60D5
:10C0A00000EBC510C36D03E0FBE0C6E0A7E0A5E030
:10C0B00004F50E6000EBC510026D04F50E6000EB98
:10C0C000C51001782046FEF7C3F804F1900090ED0A
:10C0D000E60A10EE101A0846FDF736FC41EC100B8C
:10C0E000B0EE408AF0EE608A04F50E6000EBC510F9
:10C0F00090ED061BB0EE410AF0EE610A53EC102BF6
:10C1000051EC180BFDF752FC4DD24FF001084AE0FC
:10C1100004F50E6000EBC51005EB8502416D04F5DA
:10C12000C75010440079091A04F50E6000EBC510E1
:10C13000416504F50E6000EBC510406D009004F5FC
:10C140000E6000EBC510C36D04F50E6000EBC5106A
:10C15000026D04F50E6000EBC51001782046FEF775
:10C1600077F804F1900090EDE60A10EE101A0846F8
:10C17000FDF7EAFB41EC100BB0EE408AF0EE608A6E
:10C1800004F50E6000EBC51090ED061BB0EE410A01
:10C19000F0EE610A53EC102B51EC180BFDF701FC8B
:10C1A00001D24FF00108B8F1010F27D104F50E605C
:10C1B00000EBC510017A04F50E6000EBC5100170AC
:10C1C00004F50E6000EBC510016E04F50E6000EB87
:10C1D000C510016504F50E6000EBC510416E04F555
:10C1E0000E6000EBC510C16504F50E6000EBC510D4
:10C1F000816D04F50E6000EBC510416534E105EB7F
:10C20000850104F5C750405C50B105EB850104F58C
:10C21000C7500844017904F50E6000EBC510C167F2
:10C2200022E105EB850104F5C7500844017904F5C6
:10C230000E6000EBC510016216E104F50E6000EB24
:10C24000C510006F60B305EB850104F5C7500844C5
:10C25000007910F0F00F12D004F50E6000EBC5105D
:10C2600005EB8502016A04F5C7501044007901EB23
:10C27000201104F50E6000EBC510016210E004F51A
:10C280000E6000EBC51005EB8502016A04F5C7508E
:10C2900010440079091A04F50E6000EBC510016224
:10C2A000E2E004F50E6000EBC510006FB8B94FF086
:10C2B0000061C4F82C1405EB850104F5C75008444F
:10C2C0000179C4F83C14D4F88410098CD4F83C04E7
:10C2D000884204D3D4F88400418CC4F83C14C3E0F1
:10C2E00004F50E6000EBC510006F50BB05EB850137
:10C2F00004F5C7500844007900F00F0105EB8502F2
:10C3000004F5C75010440079001100EB800041EAA9
:10C310004001C4F82C14D4F82C0440F00061C4F897
:10C320002C14D4F84014C4F83C14D4F88410098CAC
:10C33000D4F83C04884204D3D4F88400418CC4F877
:10C340003C1491E004F50E6000EBC510006F80B95D
:10C3500004F50E6000EBC51005EB8502416D04F598
:10C36000C75010440079014404F50E6000EBC5107D
:10C37000416579E004F50E6000EBC510006F80B9EF
:10C3800004F50E6000EBC51005EB8502416D04F568
:10C39000C75010440079091A04F50E6000EBC5106F
:10C3A000416561E004F50E6000EBC510006F28BB2D
:10C3B00005EB850104F5C7500844007920B9D4F88D
:10C3C0003814C4F830141DE005EB850204F5C7509D
:10C3D00010440079D4F83414814210D2D4F83004D7
:10C3E00040F00061C4F82C14D4F83414491CC4F88B
:10C3F0003414D4F84014491EC4F83C1402E000215F
:10C40000C4F8341430E004F50E6000EBC510006F82
:10C4100080B904F50E6000EBC51005EB8502016ADA
:10C4200004F5C75010440079014404F50E6000EB98
:10C43000C510016218E030E204F50E6000EBC51093
:10C44000006F80B904F50E6000EBC51005EB8502A6
:10C45000016A04F5C75010440079091A04F50E600A
:10C4600000EBC510016200BF00BF04F50E6000EBD9
:10C47000C510006A402805DD402104F50E6000EB80
:10C48000C510016204F50E6000EBC510006A0028BB
:10C4900005DA002104F50E6000EBC510016204F519
:10C4A0000E6000EBC510406D009004F50E6000EBCF
:10C4B000C51090F800C004F50E6000EBC5100079BF
:10C4C0006044C1B204F50E6000EBC510C36D04F505
:10C4D0000E6000EBC510026D2046FDF7B9FE04F1B9
:10C4E000900090EDE50A10EE101A0846FDF72CFAC0
:10C4F00041EC100B04F50E6000EBC51080ED100B45
:10C5000004F1900090EDE60A10EE101A0846FDF7CF
:10C510001BFA41EC100B04F50E6000EBC51080ED2A
:10C52000120B04F1900090EDE50A10EE101A084687
:10C53000FDF70AFA41EC100B04F50E6000EBC51094
:10C5400080ED0C0B04F1900090EDE60A10EE101A4D
:10C550000846FDF7F9F941EC100B04F50E6000EB0D
:10C56000C51080ED0E0B04F50E6000EBC51090F8C1
:10C57000207004F50E6000EBC51090F826A04FEA7D
:10C58000192000FB0AF094F85915484300FB07F600
:10C59000B00B00FB0BF6360B04F50E6000EBC5107C
:10C5A000A0F8746004F50E6000EBC51090F87410EC
:10C5B00004F50E6000EBC51080F8761004F50E60EF
:10C5C00000EBC51090F8741004F50E6000EBC51078
:10C5D00080F87710D4F88400C08B01287ED035B164
:10C5E000012D53D0022D7AD0032D4ED1EFE004F56A
:10C5F0000E6101EBC511B1F87400FDF7B9F941EC1A
:10C60000100BB0EE409AF0EE609A9FEDAA0B53EC3F
:10C61000102B51EC190BFDF7A1F941EC100BB0EE0A
:10C62000408AF0EE608A51EC180BFDF7C4F9C1B2F4
:10C6300004F50E6000EBC51080F8761004F50E616D
:10C6400001EBC511B1F87400FDF792F941EC100B44
:10C65000B0EE409AF0EE609A9FED980B53EC102BE1
:10C6600051EC190BFDF77AF941EC100BB0EE408A52
:10C67000F0EE608A51EC180BFDF79DF9C1B204F59C
:10C680000E6000EBC51080F87710EFE004F50E6146
:10C6900001EBC511B1F87400FDF76AF941EC100B1C
:10C6A000B0EE409AF0EE609A9FED820B53EC102BA7
:10C6B00051EC190BFDF752F941EC100BB0EE408A2A
:10C6C000F0EE608A51EC180BFDF775F9C1B204F574
:10C6D0000E6000EBC51080F8761001E0C7E027E09F
:10C6E00004F50E6101EBC511B1F87400FDF740F9D6
:10C6F00041EC100BB0EE409AF0EE609A9FED710B9A
:10C7000053EC102B51EC190BFDF728F941EC100BF1
:10C71000B0EE408AF0EE608A51EC180BFDF74BF951
:10C72000C1B204F50E6000EBC51080F877109DE0F3
:10C7300004F50E6101EBC511B1F87400FDF718F9AD
:10C7400041EC100BB0EE409AF0EE609A9FED5D0B5D
:10C7500053EC102B51EC190BFDF700F941EC100BC9
:10C76000B0EE408AF0EE608A51EC180BFDF723F929
:10C77000C1B204F50E6000EBC51080F8761004F528
:10C780000E6101EBC511B1F87400FDF7F1F841EC51
:10C79000100BB0EE409AF0EE609A9FED460B53EC12
:10C7A000102B51EC190BFDF7D9F841EC100BB0EE42
:10C7B000408AF0EE608A51EC180BFDF7FCF8C1B22C
:10C7C00004F50E6000EBC51080F877104EE004F51C
:10C7D0000E6101EBC511B1F87400FDF7C9F841EC29
:10C7E000100BB0EE409AF0EE609A9FED340B53ECD4
:10C7F000102B51EC190BFDF7B1F841EC100BB0EE1A
:10C80000408AF0EE608A51EC180BFDF7D4F8C1B203
:10C8100004F50E6000EBC51080F8761004F50E618B
:10C8200001EBC511B1F87400FDF7A2F841EC100B53
:10C83000B0EE409AF0EE609A9FED1E0B53EC102B79
:10C8400051EC190BFDF78AF841EC100BB0EE408A61
:10C85000F0EE608A51EC180BFDF7ADF8C1B204F5AB
:10C860000E6000EBC51080F8771000BF00BF04F524
:10C870000E6000EBC51090F8761004F50E6000EB2A
:10C88000C51090F8770041EA002104F50E6000EB36
:10C89000C510A0F87810681C85B2D4F88400008B0D
:10C8A000A8423FF7D6A994F8580401B0BDEC068B16
:10C8B000BDE8F08F000000000000F03F9A999999C0
:10C8C0009999D93FCDCCCCCCCCCCEC3F02E008C878
:10C8D000121F08C1002AFAD170477047002001E0FA
:10C8E00001C1121F002AFBD17047000030B502467B
:10C8F000002307480068824208D201F009FF511C5A
:10C90000042505FB11031C681B1B00BF184630BD26
:10C910009823002010B504462046FFF7E7FF10BD1E
:10C9200010B501F0F5FE041F002200201149086037
:10C930000AE010480068984204D2501C03EB8000C3
:10C940000C490860241F521C2368581C01D0082A77
:10C95000EFD3581C03D0002006490860002201F0E4
:10C96000D7FE04490968401A034908600348026079
:10C9700090B210BD94230020902300209823002023
:10C9800070B50024FFF7CCFF054635B104480168B7
:10C990000448006801F09CFE0446204670BD00007B
:10C9A000942300209023002070B5FFF7B9FF0446C0
:10C9B0005CB1FFF7E5FF05460548006830F8026CFA
:10C9C000B54201D1012070BD00BF0020FBE700008F
:10C9D0009023002070B505462846FFF79BFF0446CC
:10C9E000A268606804F11201FCF7BCFB70BD70B571
:10C9F0000546284600F009F80446A4F57F40FF38B4
:10CA000002D02046FFF7E6FF70BDF0B50546FFF700
:10CA100087FF06466EB1002409E0A0B2FFF77AFF57
:10CA20000746B889A84201D1A0B2F0BD641CB44247
:10CA3000F3D34FF6FF70F8E770B5802501F068FE7C
:10CA4000A0F180048021204600F012F870BD10B5DE
:10CA50000446FDF711FBB320FDF734FA2046FDF73D
:10CA60004DFAFDF7BDFAFDF7B3FAFDF73FFA10BD39
:10CA70002DE9F04705460E46AC0BA403281B871989
:10CA80001BE04FF0FF384FF48059A24607E0DAF878
:10CA9000000000EA08080AF1040AA9F10109B9F145
:10CAA000000FF4D118F1010002D02046FFF7CFFFAC
:10CAB00004F58044A7F5804700BF002FE1DCBDE806
:10CAC000F08770B5024600234FF4804412F4702FB3
:10CAD00003D1782000EAD2230EE0782000EA523316
:10CAE000082B06D000EA530000F120034FF4003475
:10CAF00002E018334FF480340A60D808C8608C60B4
:10CB000001F0FCFDC2F31305661EB54328444860DE
:10CB1000184670BD2DE9F047074688461546002D9A
:10CB20002DD03C46C1464FF47F46FDF7A5FAB32011
:10CB3000FDF7C8F90FE0301299F8001040EA01261D
:10CB4000641C09F101096D1E14F0010F03D1A01E30
:10CB50003146FDF76DFA002DEDD114F0010F07D02D
:10CB60004FF47F4040EA2626601E3146FDF760FA0A
:10CB7000FDF736FAFDF72CFAFDF7B8F900BFBDE86E
:10CB8000F0872DE9FC4105460E4617461C4600205D
:10CB900003463A463146CDE90004284600F002F843
:10CBA000BDE8FC812DE9FF4F87B007461446984643
:10CBB000DDE9149A04EB09052648808C002843D04F
:10CBC0001422254902A8FCF7BAFE03970495ADF894
:10CBD00014A0CDF816501F48868C05F1120BD0F822
:10CBE0002600A0EB0B001B49C1F8260001F090FDC8
:10CBF000243800EB86001749D1F82610401A01901E
:10CC0000144901EB8601019808601249D1F8260009
:10CC1000122202A9FFF77EFF0E49D1F8261001F17A
:10CC2000120022460899FFF775FF0A49D1F826102D
:10CC3000123108194A464146FFF76CFF0548808CBF
:10CC4000401E0449888400BF024890F824000BB0BD
:10CC5000BDE8F08F596200207C7E000838B505E001
:10CC6000AA23002211461046FFF78BFF1348808C41
:10CC70000028F5D101F04CFDA0F124040F48D0F8B4
:10CC80002600251A0D49D1F82600294601F020FD7D
:10CC90000090BDF800202421084801F003FD009019
:10CCA0000649D1F82610881E02226946FFF732FF96
:10CCB000242202492046FFF72DFF38BD596200208B
:10CCC00010B5FFF7B9FE2A210748FCF779FE01F0FD
:10CCD0001FFD24380449C1F826004FF0FF300860DA
:10CCE0000820888410BD0000596200202DE9F0471B
:10CCF00004464FF00008B4F8440485B2B4F82C049C
:10CD000087B2B4F88800A8427CDDD4F8840000F52E
:10CD1000927005EB850100EB41000089B84275DD9A
:10CD20003C48D0F82064A02100F5C750FCF74DFE28
:10CD3000002048E0D4F8842002F5927205EB8503C8
:10CD400002EB4302D2F800C03246761C1CF80210F7
:10CD500011F0800F15D1D4F8843003F5927305EBF0
:10CD6000850C03EB4C031B689A5900EB800C2A4B93
:10CD70000CF8031000EB800C6344C3F80120361D4F
:10CD80001FE000221BE011F0010F15D0D4F884C081
:10CD90000CF5927C05EB85090CEB490CDCF800A046
:10CDA000B446761C1AF80C3000EB8009DFF868C036
:10CDB000CC440CF8023000BF4910531C9AB2052A2B
:10CDC000E1DB411C88B21349D1F88410098B814200
:10CDD000B0DC1048C0F82064C4F83874D4F82C14BF
:10CDE000491CC4F82C14D4F8840000F5927005EBAB
:10CDF000850100EB41000189D4F82C04814202D165
:10CE0000022001E002E00120804600BF4046BDE86C
:10CE1000F087000008270020E83F00207FB5054686
:10CE20002846FFF763FF06461449D1F8380402216B
:10CE3000FDF768FF12A0FDF7A7FF00240FE014B173
:10CE400010A0FDF7A1FF04EB84020F4950186946BA
:10CE500000F01EF86846FDF797FF601C84B2074893
:10CE6000D0F88400008BA042E9DC05A0FDF78CFF20
:10CE700006A0FDF789FF304604B070BD08270020EA
:10CE80007C00000020000000E83F00200D0A0000A8
:10CE9000F0B591B005460C46282232A107A8FCF750
:10CEA0004EFD287800282CD0287861281ADA1C2218
:10CEB00036A16846FCF743FD2878401E0C2190FB04
:10CEC000F1F087B22878401E90FBF1F201FB1200CE
:10CED00086B2684600EB46000088208007F13000EB
:10CEE000A07013E02878612805D12FA00188218047
:10CEF0008078A0700AE02DA0018821808078A07041
:10CF000004E02BA0018821808078A070E41C687860
:10CF100030B16878224648F2020102F0A1F802E03E
:10CF200024A000882080A41CA87830B1A8782246CC
:10CF300048F2020102F094F802E01FA0008820806D
:10CF4000A41CE87807A9085C04F8010B287922469C
:10CF500048F2020102F084F8A41C0020207011B0F5
:10CF6000F0BD000030313233343536373839414284
:10CF7000434445464748494A4B4C4D4E4F50515209
:10CF8000535455565758595A00000000432D432317
:10CF9000442D4423452D462D4623472D4723412D1F
:10CFA0004123422D00000000205820003F3F3F0059
:10CFB0002D2D2D002E2E00002D2D000070B50446C5
:10CFC0000D461646B4F88800A84225DDC4F844543E
:10CFD000D4F8840000F5927005EB850100EB410068
:10CFE0000089B0420ADCD4F8840000F5927005EBA9
:10CFF000850100EB41000089401E86B20021C4F883
:10D000002014C4F82C1402E02046FFF76FFE300015
:10D01000A6F101018EB2F7D170BD2DE9F0410446B1
:10D020000D461746D4F88400008CA84204DCD4F8DE
:10D030008400008C401E85B2D4F884002430465D04
:10D0400031463A462046FFF7B9FFBDE8F08170B59A
:10D0500004460E4643F6F00104F19000FCF7B5FCDF
:10D06000C4F81864D4F88400818BC4F84814D4F848
:10D070008400418BC4F84C14D4F884102431D4F8C3
:10D080003C04095CC4F8441400252EE0402104F55A
:10D090000E6000EBC510016204F50E6000EBC510D8
:10D0A00080F82610302104F50E6000EBC5100170E9
:10D0B000C5EBC50204F1900000EB8200D4F88010AB
:10D0C00041610021C5EBC50304F1900202EB83022C
:10D0D00051609160C5EBC50204F1900101EB820043
:10D0E000002100F00EFB681C85B2202DCEDBB4F8C9
:10D0F000400481B200222046FFF78FFF012104F295
:10D100005940D4F840248154402184F859154FF0F7
:10D11000FF31C4F85414FF21D4F88400028C04F2C7
:10D120005940815470BD00002DE9F05F04464FF076
:10D13000000A204600F0EAF80646B6F5807F5AD984
:10D140004FF400202D490860C6124EE0D4F81C04AC
:10D1500010B9204600F054F83546D4F81004C0F554
:10D160000067BD4200D93D46D4F81C04A84201D254
:10D17000D4F81C544FF0040905FB09F104F19002A6
:10D1800041F6F00C6244D4F8103402EB8300FCF753
:10D190001CFC4FF0000818E0D4F88420138B04F135
:10D1A000900241F6F00B5A44D4F810C402EB8C0103
:10D1B000C8EBC80C04F1900202EB8C002A4600F088
:10D1C000C1F908F101001FFA80F8D4F88400008B3F
:10D1D0004045E1DC2946204600F0C6F8761BD4F82D
:10D1E0001C04411BC4F81C1400BF002EAED14FF02C
:10D1F0000810024908605046BDE8F09F180402403C
:10D200002DE9F041044604F19000D0EDE20AF8EE79
:10D21000600AB0EE600A2046FEF7FAFB0746D4F833
:10D220001804C0EB00108100D4F8480400EB400063
:10D23000C000B1FBF0F1C4F81C14002546E004F571
:10D240000E6000EBC51090F825607EB104F50E600D
:10D2500000EBC510C06F0302C5EBC50204F19000DE
:10D2600000EB82013246204600F038F804F50E62E9
:10D2700002EBC512D4F8181492ED0E1BB0EE410A61
:10D28000F0EE610AC5EBC50304F1900202EB8300E6
:10D2900000F000F904F50E6000EBC51090F8761070
:10D2A000C5EBC50204F1900000EB8200017604F5A5
:10D2B0000E6000EBC51090F87710C5EBC50204F1C5
:10D2C000900000EB82004176681C85B2D4F884009F
:10D2D000008BA842B3DC3846BDE8F0812DE9F0416F
:10D2E00004460D4616461F46B4F88A00B0420BDDD0
:10D2F000C6EBC60101EB4101D4F880000844686127
:10D300003946284600F0FDF9BDE8F08110B5044625
:10D31000204600F020F8C0F500630BB1581E10BD88
:10D320000020FCE730B501460020D1F81424D1F8E4
:10D33000103493420ED01346521C01F1900441F672
:10D34000F0052C4454F82300B2F5006F00D1002200
:10D35000C1F8142430BD0146B1F81024B1F814040A
:10D36000101AC0F30A007047B0F810240A44C2F340
:10D370000A03C0F8103470472DE9FF41044666687F
:10D3800006F1300700253946012001F043FD80B247
:10D39000ADF80400BDF8040001F04AFB1830CDF8E8
:10D3A0000600206800904AF6AA20ADF80A00C043A3
:10D3B0000390A07C20B1012805D0022804D000BF32
:10D3C000E068A06000BF00BF00BF00BF0025BDF83F
:10D3D000040010236A46294601F0DEFD1035BDF831
:10D3E000040008230022294601F0C2FBA06808308F
:10D3F0000544BDF8040008230022294601F0B8FBCB
:10D40000E0680830A168401A0544BDF8040008230C
:10D410000022294601F0ACFB60680830E168401A40
:10D420000544BDF8040008230022294601F0A0FBB2
:10D43000BDF8040001F0FCFA04B0BDE8F0812DE96C
:10D44000F04104460D469046FF2215212046FCF788
:10D45000C1FA65600020A060E560402020740020D3
:10D4600060740120A0748020E074002020752046A4
:10D47000FFF782FF07462760002605E04246314657
:10D48000204600F016F9761CAE42F7D33846BDE8C8
:10D49000F08100002DE9F0412DED088B0446B0EE3F
:10D4A000408AF0EE608A0D469FED220B53EC102B64
:10D4B00051EC180BFCF752FA41EC100BB0EE409A0D
:10D4C000F0EE609A51EC190BFCF775FA20602846D3
:10D4D000FCF74EFA41EC100BB0EE40AAF0EE60AA59
:10D4E0009FED160B53EC102B51EC180BFCF736FA92
:10D4F00041EC100BB0EE40BAF0EE60BA53EC1A2BD0
:10D5000051EC1B0BFCF743FA41EC100BB0EE409AC8
:10D51000F0EE609A51EC190BFCF761FA06460F46E3
:10D52000380240EA16603102C4E90110BDEC088BF4
:10D53000BDE8F08100000000000070400000000025
:10D54000000070412DE9FF4F84B00C46164641693A
:10D550004FF48073079A93FBF2F9027E02FB09F203
:10D56000120A0392427E02FB09F2120A0292CA6870
:10D570008B68D51A8A6802F10807CA7C802A06DA05
:10D58000CA7C5200029B5A43120A029207E0CA7CEC
:10D59000C2F1FF025200039B5A43120A039205B9DB
:10D5A000012580E0D0E901BAD0E9038318EB0B082C
:10D5B00043EB0A03C0E9038302690B68D3F8063022
:10D5C00013F802C0BCF1000F4ED10023B0F80AA03E
:10D5D0001AF4004F02D04FF0FF3A01E04FF0010A79
:10D5E000D046B8F1000F06DBBA4204D20832C8F1C7
:10D5F000000A0FFA8AF8D31B002B02DAC3F1000AE3
:10D6000003E0B3FBF5FA05FB1A3A5346B8F1000FF5
:10D6100009DB91F812A0BAF1020F0DD1A5F1010AB0
:10D62000AAEB030308E091F812A0BAF1020F03D0AD
:10D63000A5F1010AAAEB030391F812A0BAF1020FB7
:10D6400009D14FF0000ED0E901BADBF1000B6EEB0F
:10D650000A0AC0E901BAFA180261D1F800A0DAF8A2
:10D6600006A01AF802C000BF4FFA8CF3DDF80C8058
:10D6700003FB08F31BB201934FFA8CF3DDF808802B
:10D6800003FB08F31BB20093B4F80080009B4344F3
:10D690001BB22380B4F80280019B43441BB2638019
:10D6A000241D761E00BF002E7FF47CAF08B0BDE8BD
:10D6B000F08F2DE9F74304460D464FF018086068D7
:10D6C000A8421CD9206887882E469DF8080080F063
:10D6D000800002909DF8080008B901200290A0681F
:10D6E000A84200D80836E068A84200D8083606F1FB
:10D6F0001801012302AA384601F04EFC00BFBDE824
:10D70000FE83024653695B688B4201D90B4602E0F7
:10D7100053695B685B1E184653699B688B4200D84F
:10D7200008305369DB688B4200D808300023C2E917
:10D73000033070472DE9F04104460669808B0027CD
:10D7400000EB40012848DFF8A48004F12A050068B6
:10D7500000EB810239465068F6B9D2F808C043465A
:10D760000022ECFB0832A3691209A3F88A20A269FF
:10D77000C2F88000A0698022C0F88C101520208596
:10D7800010212846FFF75BFE28608088FDF79AFA93
:10D7900017A0FDF7F9FA012714490020E6FB08104D
:10D7A0000009A0EBC00000EB4000801908BF012772
:10D7B00017D0142815D1A1692868B1F88A10C1F1D1
:10D7C0000101C1EBC10101EB410108442860284679
:10D7D000FFF7D2FD28608088FDF774FA05A0FDF7F9
:10D7E000D3FA3846BDE8F081E0220020C3300CC3F4
:10D7F0003A0000002E000000002070472DE9F001E3
:10D80000254B828B01691B6802EB420203EB82020B
:10D81000836954684FF0000CB1F5927F11D2FF225A
:10D82000A3F88820002904BF8069C0F884402ED066
:10D8300002291CD004292AD1418D41F4004141859F
:10D8400025E0164DA1F59272A5FB0276F7087E42FF
:10D8500006EB860602EB4606B3F88880D0F82A204D
:10D86000BFB2474513D216B1042E03D00FE04FF0DC
:10D87000010C0CE0B1F5947F06D1A2F59271A5FBE5
:10D880000151C908A3F888101119C0F82A10BDE881
:10D89000F001604670470000E0220020CDCCCCCCE7
:10D8A00010B50446006801F0BDFC606801F0BAFCE8
:10D8B00000202081606110BD0181002141817047FD
:10D8C000006801F00FBD70B504460D46406801F0D8
:10D8D000C1FC0004000C08BF70BD29466068BDE8AB
:10D8E000704001F005BD10B5406801F0B3FC80B296
:10D8F00010BD4069704742691143416170470000A3
:10D900002DE9F0474169044611F0010F08BFBDE859
:10D91000F08720890026D8B1DFF8148401281ED0B2
:10D920000325022831D004F12A0710284DD01128F0
:10D9300000F0E580202800F0E880212800F07C81BC
:10D94000302818BF21F0010000F0E98100F0E6BAAC
:10D950006089002808BFF7A040F0E58111E06089E8
:10D96000002840F0E081A8F89262F3A0FDF70CFADD
:10D97000206801F057FC606801F054FC2681F1A09A
:10D980006661FDF701FA00F003B9608960B1012812
:10D9900008BF022011D0022804BF6581BDE8F087CE
:10D9A00003280DD000F0BFB9A8F89262E7A0FDF7F8
:10D9B000EBF901F093F86089401C6081BDE8F087C5
:10D9C000E0A0FDF7E1F900F0E3B8608928B1012893
:10D9D00022D0022840D000F0A6B9DFA0FDF7D4F98C
:10D9E0000120E16801F016FAA169C0B20870A083B5
:10D9F000FDF768F9DAA0FDF7C7F9E068FDF762F90D
:10DA0000CFA0FDF7C1F9D7482685C4E90860608931
:10DA1000401C6081BDE8F087606801F063FC38B1AC
:10DA2000C7A0FDF7B1F96089401C6081BDE8F087AF
:10DA3000258D55B1A08B2B4604F12A02216A01F0F5
:10DA4000ABFA206A411921622685D4E9030181429B
:10DA50000CBFC5A0C6A094E7606801F043FC5FEA74
:10DA6000000844D00025606801F03CFC18B16068F3
:10DA700001F0F8FB0546A8F10100636A1FFA80F87F
:10DA8000E3B100221146204698470004000C15D04F
:10DA9000B4F828A0A146BAF1000F0FD0B9F81C00C5
:10DAA000534609F12A02D9F8201001F075FAD9F885
:10DAB00020005044C9F82000A9F82860208D421C9D
:10DAC0002285C5552069411C2161238D2046202BCC
:10DAD0000AD10546016A808B05F12A0201F05CFA41
